{
	"Solidity/Solidity/Contracts/Projects/twitter_modifiers.sol": {
		"twitterModifiers": {
			"abi": [
				{
					"inputs": [],
					"stateMutability": "nonpayable",
					"type": "constructor"
				},
				{
					"inputs": [],
					"name": "MAX_TWEET_LENGTH",
					"outputs": [
						{
							"internalType": "uint16",
							"name": "",
							"type": "uint16"
						}
					],
					"stateMutability": "view",
					"type": "function"
				},
				{
					"inputs": [
						{
							"internalType": "uint16",
							"name": "newTweetLength",
							"type": "uint16"
						}
					],
					"name": "changeTweetLength",
					"outputs": [],
					"stateMutability": "nonpayable",
					"type": "function"
				},
				{
					"inputs": [
						{
							"internalType": "string",
							"name": "tweetContent",
							"type": "string"
						}
					],
					"name": "createTweet",
					"outputs": [],
					"stateMutability": "nonpayable",
					"type": "function"
				},
				{
					"inputs": [
						{
							"internalType": "address",
							"name": "_author",
							"type": "address"
						}
					],
					"name": "getTweets",
					"outputs": [
						{
							"components": [
								{
									"internalType": "uint256",
									"name": "id",
									"type": "uint256"
								},
								{
									"internalType": "address",
									"name": "author",
									"type": "address"
								},
								{
									"internalType": "string",
									"name": "content",
									"type": "string"
								},
								{
									"internalType": "uint256",
									"name": "timestamp",
									"type": "uint256"
								},
								{
									"internalType": "uint256",
									"name": "likes",
									"type": "uint256"
								}
							],
							"internalType": "struct twitterModifiers.Tweet[]",
							"name": "",
							"type": "tuple[]"
						}
					],
					"stateMutability": "view",
					"type": "function"
				},
				{
					"inputs": [
						{
							"internalType": "address",
							"name": "_owner",
							"type": "address"
						},
						{
							"internalType": "uint256",
							"name": "_id",
							"type": "uint256"
						}
					],
					"name": "likeTweet",
					"outputs": [],
					"stateMutability": "nonpayable",
					"type": "function"
				},
				{
					"inputs": [],
					"name": "owner",
					"outputs": [
						{
							"internalType": "address",
							"name": "",
							"type": "address"
						}
					],
					"stateMutability": "view",
					"type": "function"
				},
				{
					"inputs": [
						{
							"internalType": "address",
							"name": "_author",
							"type": "address"
						},
						{
							"internalType": "uint256",
							"name": "_i",
							"type": "uint256"
						}
					],
					"name": "singleTweet",
					"outputs": [
						{
							"components": [
								{
									"internalType": "uint256",
									"name": "id",
									"type": "uint256"
								},
								{
									"internalType": "address",
									"name": "author",
									"type": "address"
								},
								{
									"internalType": "string",
									"name": "content",
									"type": "string"
								},
								{
									"internalType": "uint256",
									"name": "timestamp",
									"type": "uint256"
								},
								{
									"internalType": "uint256",
									"name": "likes",
									"type": "uint256"
								}
							],
							"internalType": "struct twitterModifiers.Tweet",
							"name": "",
							"type": "tuple"
						}
					],
					"stateMutability": "view",
					"type": "function"
				},
				{
					"inputs": [
						{
							"internalType": "address",
							"name": "",
							"type": "address"
						},
						{
							"internalType": "uint256",
							"name": "",
							"type": "uint256"
						}
					],
					"name": "tweets",
					"outputs": [
						{
							"internalType": "uint256",
							"name": "id",
							"type": "uint256"
						},
						{
							"internalType": "address",
							"name": "author",
							"type": "address"
						},
						{
							"internalType": "string",
							"name": "content",
							"type": "string"
						},
						{
							"internalType": "uint256",
							"name": "timestamp",
							"type": "uint256"
						},
						{
							"internalType": "uint256",
							"name": "likes",
							"type": "uint256"
						}
					],
					"stateMutability": "view",
					"type": "function"
				},
				{
					"inputs": [
						{
							"internalType": "address",
							"name": "_owner",
							"type": "address"
						},
						{
							"internalType": "uint256",
							"name": "_id",
							"type": "uint256"
						}
					],
					"name": "unlikeTweet",
					"outputs": [],
					"stateMutability": "nonpayable",
					"type": "function"
				}
			],
			"devdoc": {
				"kind": "dev",
				"methods": {},
				"version": 1
			},
			"evm": {
				"assembly": "    /* \"Solidity/Solidity/Contracts/Projects/twitter_modifiers.sol\":60:2203  contract twitterModifiers{... */\n  mstore(0x40, 0x80)\n    /* \"Solidity/Solidity/Contracts/Projects/twitter_modifiers.sol\":127:128  5 */\n  0x05\n    /* \"Solidity/Solidity/Contracts/Projects/twitter_modifiers.sol\":94:128  uint16 public MAX_TWEET_LENGTH = 5 */\n  0x00\n  dup1\n  0x0100\n  exp\n  dup2\n  sload\n  dup2\n  0xffff\n  mul\n  not\n  and\n  swap1\n  dup4\n  0xffff\n  and\n  mul\n  or\n  swap1\n  sstore\n  pop\n    /* \"Solidity/Solidity/Contracts/Projects/twitter_modifiers.sol\":474:524  constructor(){... */\n  callvalue\n  dup1\n  iszero\n  tag_1\n  jumpi\n  0x00\n  dup1\n  revert\ntag_1:\n  pop\n    /* \"Solidity/Solidity/Contracts/Projects/twitter_modifiers.sol\":506:516  msg.sender */\n  caller\n    /* \"Solidity/Solidity/Contracts/Projects/twitter_modifiers.sol\":498:503  owner */\n  0x02\n  0x00\n    /* \"Solidity/Solidity/Contracts/Projects/twitter_modifiers.sol\":498:516  owner = msg.sender */\n  0x0100\n  exp\n  dup2\n  sload\n  dup2\n  0xffffffffffffffffffffffffffffffffffffffff\n  mul\n  not\n  and\n  swap1\n  dup4\n  0xffffffffffffffffffffffffffffffffffffffff\n  and\n  mul\n  or\n  swap1\n  sstore\n  pop\n    /* \"Solidity/Solidity/Contracts/Projects/twitter_modifiers.sol\":60:2203  contract twitterModifiers{... */\n  dataSize(sub_0)\n  dup1\n  dataOffset(sub_0)\n  0x00\n  codecopy\n  0x00\n  return\nstop\n\nsub_0: assembly {\n        /* \"Solidity/Solidity/Contracts/Projects/twitter_modifiers.sol\":60:2203  contract twitterModifiers{... */\n      mstore(0x40, 0x80)\n      callvalue\n      dup1\n      iszero\n      tag_1\n      jumpi\n      0x00\n      dup1\n      revert\n    tag_1:\n      pop\n      jumpi(tag_2, lt(calldatasize, 0x04))\n      shr(0xe0, calldataload(0x00))\n      dup1\n      0x63378216\n      gt\n      tag_12\n      jumpi\n      dup1\n      0x63378216\n      eq\n      tag_7\n      jumpi\n      dup1\n      0x6eb10797\n      eq\n      tag_8\n      jumpi\n      dup1\n      0x7c9cd2bc\n      eq\n      tag_9\n      jumpi\n      dup1\n      0x8da5cb5b\n      eq\n      tag_10\n      jumpi\n      dup1\n      0x9e92b093\n      eq\n      tag_11\n      jumpi\n      jump(tag_2)\n    tag_12:\n      dup1\n      0x05a1b4a9\n      eq\n      tag_3\n      jumpi\n      dup1\n      0x254e4019\n      eq\n      tag_4\n      jumpi\n      dup1\n      0x3d9b569f\n      eq\n      tag_5\n      jumpi\n      dup1\n      0x58bfa4ab\n      eq\n      tag_6\n      jumpi\n    tag_2:\n      0x00\n      dup1\n      revert\n        /* \"Solidity/Solidity/Contracts/Projects/twitter_modifiers.sol\":394:436  mapping (address => Tweet[]) public tweets */\n    tag_3:\n      tag_13\n      0x04\n      dup1\n      calldatasize\n      sub\n      dup2\n      add\n      swap1\n      tag_14\n      swap2\n      swap1\n      tag_15\n      jump\t// in\n    tag_14:\n      tag_16\n      jump\t// in\n    tag_13:\n      mload(0x40)\n      tag_17\n      swap6\n      swap5\n      swap4\n      swap3\n      swap2\n      swap1\n      tag_18\n      jump\t// in\n    tag_17:\n      mload(0x40)\n      dup1\n      swap2\n      sub\n      swap1\n      return\n        /* \"Solidity/Solidity/Contracts/Projects/twitter_modifiers.sol\":2069:2197  function singleTweet(address _author, uint _i) external view returns (Tweet memory){... */\n    tag_4:\n      tag_19\n      0x04\n      dup1\n      calldatasize\n      sub\n      dup2\n      add\n      swap1\n      tag_20\n      swap2\n      swap1\n      tag_15\n      jump\t// in\n    tag_20:\n      tag_21\n      jump\t// in\n    tag_19:\n      mload(0x40)\n      tag_22\n      swap2\n      swap1\n      tag_23\n      jump\t// in\n    tag_22:\n      mload(0x40)\n      dup1\n      swap2\n      sub\n      swap1\n      return\n        /* \"Solidity/Solidity/Contracts/Projects/twitter_modifiers.sol\":1450:1744  function unlikeTweet(address _owner, uint _id) public{... */\n    tag_5:\n      tag_24\n      0x04\n      dup1\n      calldatasize\n      sub\n      dup2\n      add\n      swap1\n      tag_25\n      swap2\n      swap1\n      tag_15\n      jump\t// in\n    tag_25:\n      tag_26\n      jump\t// in\n    tag_24:\n      stop\n        /* \"Solidity/Solidity/Contracts/Projects/twitter_modifiers.sol\":1752:1870  function changeTweetLength(uint16 newTweetLength) public onlyOwner{... */\n    tag_6:\n      tag_27\n      0x04\n      dup1\n      calldatasize\n      sub\n      dup2\n      add\n      swap1\n      tag_28\n      swap2\n      swap1\n      tag_29\n      jump\t// in\n    tag_28:\n      tag_30\n      jump\t// in\n    tag_27:\n      stop\n        /* \"Solidity/Solidity/Contracts/Projects/twitter_modifiers.sol\":1220:1442  function likeTweet(address _owner, uint _id) public{... */\n    tag_7:\n      tag_31\n      0x04\n      dup1\n      calldatasize\n      sub\n      dup2\n      add\n      swap1\n      tag_32\n      swap2\n      swap1\n      tag_15\n      jump\t// in\n    tag_32:\n      tag_33\n      jump\t// in\n    tag_31:\n      stop\n        /* \"Solidity/Solidity/Contracts/Projects/twitter_modifiers.sol\":94:128  uint16 public MAX_TWEET_LENGTH = 5 */\n    tag_8:\n      tag_34\n      tag_35\n      jump\t// in\n    tag_34:\n      mload(0x40)\n      tag_36\n      swap2\n      swap1\n      tag_37\n      jump\t// in\n    tag_36:\n      mload(0x40)\n      dup1\n      swap2\n      sub\n      swap1\n      return\n        /* \"Solidity/Solidity/Contracts/Projects/twitter_modifiers.sol\":644:1212  function createTweet(string memory tweetContent)public {... */\n    tag_9:\n      tag_38\n      0x04\n      dup1\n      calldatasize\n      sub\n      dup2\n      add\n      swap1\n      tag_39\n      swap2\n      swap1\n      tag_40\n      jump\t// in\n    tag_39:\n      tag_41\n      jump\t// in\n    tag_38:\n      stop\n        /* \"Solidity/Solidity/Contracts/Projects/twitter_modifiers.sol\":445:465  address public owner */\n    tag_10:\n      tag_42\n      tag_43\n      jump\t// in\n    tag_42:\n      mload(0x40)\n      tag_44\n      swap2\n      swap1\n      tag_45\n      jump\t// in\n    tag_44:\n      mload(0x40)\n      dup1\n      swap2\n      sub\n      swap1\n      return\n        /* \"Solidity/Solidity/Contracts/Projects/twitter_modifiers.sol\":1912:2027  function getTweets(address _author) external view returns (Tweet[] memory){... */\n    tag_11:\n      tag_46\n      0x04\n      dup1\n      calldatasize\n      sub\n      dup2\n      add\n      swap1\n      tag_47\n      swap2\n      swap1\n      tag_48\n      jump\t// in\n    tag_47:\n      tag_49\n      jump\t// in\n    tag_46:\n      mload(0x40)\n      tag_50\n      swap2\n      swap1\n      tag_51\n      jump\t// in\n    tag_50:\n      mload(0x40)\n      dup1\n      swap2\n      sub\n      swap1\n      return\n        /* \"Solidity/Solidity/Contracts/Projects/twitter_modifiers.sol\":394:436  mapping (address => Tweet[]) public tweets */\n    tag_16:\n      mstore(0x20, 0x01)\n      dup2\n      0x00\n      mstore\n      keccak256(0x00, 0x40)\n      dup2\n      dup2\n      sload\n      dup2\n      lt\n      tag_52\n      jumpi\n      0x00\n      dup1\n      revert\n    tag_52:\n      swap1\n      0x00\n      mstore\n      keccak256(0x00, 0x20)\n      swap1\n      0x05\n      mul\n      add\n      0x00\n      swap2\n      pop\n      swap2\n      pop\n      pop\n      dup1\n      0x00\n      add\n      sload\n      swap1\n      dup1\n      0x01\n      add\n      0x00\n      swap1\n      sload\n      swap1\n      0x0100\n      exp\n      swap1\n      div\n      0xffffffffffffffffffffffffffffffffffffffff\n      and\n      swap1\n      dup1\n      0x02\n      add\n      dup1\n      sload\n      tag_54\n      swap1\n      tag_55\n      jump\t// in\n    tag_54:\n      dup1\n      0x1f\n      add\n      0x20\n      dup1\n      swap2\n      div\n      mul\n      0x20\n      add\n      mload(0x40)\n      swap1\n      dup2\n      add\n      0x40\n      mstore\n      dup1\n      swap3\n      swap2\n      swap1\n      dup2\n      dup2\n      mstore\n      0x20\n      add\n      dup3\n      dup1\n      sload\n      tag_56\n      swap1\n      tag_55\n      jump\t// in\n    tag_56:\n      dup1\n      iszero\n      tag_57\n      jumpi\n      dup1\n      0x1f\n      lt\n      tag_58\n      jumpi\n      0x0100\n      dup1\n      dup4\n      sload\n      div\n      mul\n      dup4\n      mstore\n      swap2\n      0x20\n      add\n      swap2\n      jump(tag_57)\n    tag_58:\n      dup3\n      add\n      swap2\n      swap1\n      0x00\n      mstore\n      keccak256(0x00, 0x20)\n      swap1\n    tag_59:\n      dup2\n      sload\n      dup2\n      mstore\n      swap1\n      0x01\n      add\n      swap1\n      0x20\n      add\n      dup1\n      dup4\n      gt\n      tag_59\n      jumpi\n      dup3\n      swap1\n      sub\n      0x1f\n      and\n      dup3\n      add\n      swap2\n    tag_57:\n      pop\n      pop\n      pop\n      pop\n      pop\n      swap1\n      dup1\n      0x03\n      add\n      sload\n      swap1\n      dup1\n      0x04\n      add\n      sload\n      swap1\n      pop\n      dup6\n      jump\t// out\n        /* \"Solidity/Solidity/Contracts/Projects/twitter_modifiers.sol\":2069:2197  function singleTweet(address _author, uint _i) external view returns (Tweet memory){... */\n    tag_21:\n        /* \"Solidity/Solidity/Contracts/Projects/twitter_modifiers.sol\":2139:2151  Tweet memory */\n      tag_60\n      tag_61\n      jump\t// in\n    tag_60:\n        /* \"Solidity/Solidity/Contracts/Projects/twitter_modifiers.sol\":2170:2176  tweets */\n      0x01\n        /* \"Solidity/Solidity/Contracts/Projects/twitter_modifiers.sol\":2170:2185  tweets[_author] */\n      0x00\n        /* \"Solidity/Solidity/Contracts/Projects/twitter_modifiers.sol\":2177:2184  _author */\n      dup5\n        /* \"Solidity/Solidity/Contracts/Projects/twitter_modifiers.sol\":2170:2185  tweets[_author] */\n      0xffffffffffffffffffffffffffffffffffffffff\n      and\n      0xffffffffffffffffffffffffffffffffffffffff\n      and\n      dup2\n      mstore\n      0x20\n      add\n      swap1\n      dup2\n      mstore\n      0x20\n      add\n      0x00\n      keccak256\n        /* \"Solidity/Solidity/Contracts/Projects/twitter_modifiers.sol\":2186:2188  _i */\n      dup3\n        /* \"Solidity/Solidity/Contracts/Projects/twitter_modifiers.sol\":2170:2189  tweets[_author][_i] */\n      dup2\n      sload\n      dup2\n      lt\n      tag_63\n      jumpi\n      tag_64\n      tag_65\n      jump\t// in\n    tag_64:\n    tag_63:\n      swap1\n      0x00\n      mstore\n      keccak256(0x00, 0x20)\n      swap1\n      0x05\n      mul\n      add\n        /* \"Solidity/Solidity/Contracts/Projects/twitter_modifiers.sol\":2163:2189  return tweets[_author][_i] */\n      mload(0x40)\n      dup1\n      0xa0\n      add\n      0x40\n      mstore\n      swap1\n      dup2\n      0x00\n      dup3\n      add\n      sload\n      dup2\n      mstore\n      0x20\n      add\n      0x01\n      dup3\n      add\n      0x00\n      swap1\n      sload\n      swap1\n      0x0100\n      exp\n      swap1\n      div\n      0xffffffffffffffffffffffffffffffffffffffff\n      and\n      0xffffffffffffffffffffffffffffffffffffffff\n      and\n      0xffffffffffffffffffffffffffffffffffffffff\n      and\n      dup2\n      mstore\n      0x20\n      add\n      0x02\n      dup3\n      add\n      dup1\n      sload\n      tag_67\n      swap1\n      tag_55\n      jump\t// in\n    tag_67:\n      dup1\n      0x1f\n      add\n      0x20\n      dup1\n      swap2\n      div\n      mul\n      0x20\n      add\n      mload(0x40)\n      swap1\n      dup2\n      add\n      0x40\n      mstore\n      dup1\n      swap3\n      swap2\n      swap1\n      dup2\n      dup2\n      mstore\n      0x20\n      add\n      dup3\n      dup1\n      sload\n      tag_68\n      swap1\n      tag_55\n      jump\t// in\n    tag_68:\n      dup1\n      iszero\n      tag_69\n      jumpi\n      dup1\n      0x1f\n      lt\n      tag_70\n      jumpi\n      0x0100\n      dup1\n      dup4\n      sload\n      div\n      mul\n      dup4\n      mstore\n      swap2\n      0x20\n      add\n      swap2\n      jump(tag_69)\n    tag_70:\n      dup3\n      add\n      swap2\n      swap1\n      0x00\n      mstore\n      keccak256(0x00, 0x20)\n      swap1\n    tag_71:\n      dup2\n      sload\n      dup2\n      mstore\n      swap1\n      0x01\n      add\n      swap1\n      0x20\n      add\n      dup1\n      dup4\n      gt\n      tag_71\n      jumpi\n      dup3\n      swap1\n      sub\n      0x1f\n      and\n      dup3\n      add\n      swap2\n    tag_69:\n      pop\n      pop\n      pop\n      pop\n      pop\n      dup2\n      mstore\n      0x20\n      add\n      0x03\n      dup3\n      add\n      sload\n      dup2\n      mstore\n      0x20\n      add\n      0x04\n      dup3\n      add\n      sload\n      dup2\n      mstore\n      pop\n      pop\n      swap1\n      pop\n        /* \"Solidity/Solidity/Contracts/Projects/twitter_modifiers.sol\":2069:2197  function singleTweet(address _author, uint _i) external view returns (Tweet memory){... */\n      swap3\n      swap2\n      pop\n      pop\n      jump\t// out\n        /* \"Solidity/Solidity/Contracts/Projects/twitter_modifiers.sol\":1450:1744  function unlikeTweet(address _owner, uint _id) public{... */\n    tag_26:\n        /* \"Solidity/Solidity/Contracts/Projects/twitter_modifiers.sol\":1548:1551  _id */\n      dup1\n        /* \"Solidity/Solidity/Contracts/Projects/twitter_modifiers.sol\":1522:1528  tweets */\n      0x01\n        /* \"Solidity/Solidity/Contracts/Projects/twitter_modifiers.sol\":1522:1536  tweets[_owner] */\n      0x00\n        /* \"Solidity/Solidity/Contracts/Projects/twitter_modifiers.sol\":1529:1535  _owner */\n      dup5\n        /* \"Solidity/Solidity/Contracts/Projects/twitter_modifiers.sol\":1522:1536  tweets[_owner] */\n      0xffffffffffffffffffffffffffffffffffffffff\n      and\n      0xffffffffffffffffffffffffffffffffffffffff\n      and\n      dup2\n      mstore\n      0x20\n      add\n      swap1\n      dup2\n      mstore\n      0x20\n      add\n      0x00\n      keccak256\n        /* \"Solidity/Solidity/Contracts/Projects/twitter_modifiers.sol\":1537:1540  _id */\n      dup3\n        /* \"Solidity/Solidity/Contracts/Projects/twitter_modifiers.sol\":1522:1541  tweets[_owner][_id] */\n      dup2\n      sload\n      dup2\n      lt\n      tag_73\n      jumpi\n      tag_74\n      tag_65\n      jump\t// in\n    tag_74:\n    tag_73:\n      swap1\n      0x00\n      mstore\n      keccak256(0x00, 0x20)\n      swap1\n      0x05\n      mul\n      add\n        /* \"Solidity/Solidity/Contracts/Projects/twitter_modifiers.sol\":1522:1544  tweets[_owner][_id].id */\n      0x00\n      add\n      sload\n        /* \"Solidity/Solidity/Contracts/Projects/twitter_modifiers.sol\":1522:1551  tweets[_owner][_id].id == _id */\n      eq\n        /* \"Solidity/Solidity/Contracts/Projects/twitter_modifiers.sol\":1514:1574  require(tweets[_owner][_id].id == _id,\"INVALID TWEET INDEX\") */\n      tag_76\n      jumpi\n      mload(0x40)\n      0x08c379a000000000000000000000000000000000000000000000000000000000\n      dup2\n      mstore\n      0x04\n      add\n      tag_77\n      swap1\n      tag_78\n      jump\t// in\n    tag_77:\n      mload(0x40)\n      dup1\n      swap2\n      sub\n      swap1\n      revert\n    tag_76:\n        /* \"Solidity/Solidity/Contracts/Projects/twitter_modifiers.sol\":1621:1622  0 */\n      0x00\n        /* \"Solidity/Solidity/Contracts/Projects/twitter_modifiers.sol\":1593:1599  tweets */\n      0x01\n        /* \"Solidity/Solidity/Contracts/Projects/twitter_modifiers.sol\":1593:1607  tweets[_owner] */\n      0x00\n        /* \"Solidity/Solidity/Contracts/Projects/twitter_modifiers.sol\":1600:1606  _owner */\n      dup5\n        /* \"Solidity/Solidity/Contracts/Projects/twitter_modifiers.sol\":1593:1607  tweets[_owner] */\n      0xffffffffffffffffffffffffffffffffffffffff\n      and\n      0xffffffffffffffffffffffffffffffffffffffff\n      and\n      dup2\n      mstore\n      0x20\n      add\n      swap1\n      dup2\n      mstore\n      0x20\n      add\n      0x00\n      keccak256\n        /* \"Solidity/Solidity/Contracts/Projects/twitter_modifiers.sol\":1608:1611  _id */\n      dup3\n        /* \"Solidity/Solidity/Contracts/Projects/twitter_modifiers.sol\":1593:1612  tweets[_owner][_id] */\n      dup2\n      sload\n      dup2\n      lt\n      tag_79\n      jumpi\n      tag_80\n      tag_65\n      jump\t// in\n    tag_80:\n    tag_79:\n      swap1\n      0x00\n      mstore\n      keccak256(0x00, 0x20)\n      swap1\n      0x05\n      mul\n      add\n        /* \"Solidity/Solidity/Contracts/Projects/twitter_modifiers.sol\":1593:1618  tweets[_owner][_id].likes */\n      0x04\n      add\n      sload\n        /* \"Solidity/Solidity/Contracts/Projects/twitter_modifiers.sol\":1593:1622  tweets[_owner][_id].likes > 0 */\n      gt\n        /* \"Solidity/Solidity/Contracts/Projects/twitter_modifiers.sol\":1585:1644  require(tweets[_owner][_id].likes > 0,\"TWEET HAS NO LIKES\") */\n      tag_82\n      jumpi\n      mload(0x40)\n      0x08c379a000000000000000000000000000000000000000000000000000000000\n      dup2\n      mstore\n      0x04\n      add\n      tag_83\n      swap1\n      tag_84\n      jump\t// in\n    tag_83:\n      mload(0x40)\n      dup1\n      swap2\n      sub\n      swap1\n      revert\n    tag_82:\n        /* \"Solidity/Solidity/Contracts/Projects/twitter_modifiers.sol\":1705:1711  tweets */\n      0x01\n        /* \"Solidity/Solidity/Contracts/Projects/twitter_modifiers.sol\":1705:1723  tweets[msg.sender] */\n      0x00\n        /* \"Solidity/Solidity/Contracts/Projects/twitter_modifiers.sol\":1712:1722  msg.sender */\n      caller\n        /* \"Solidity/Solidity/Contracts/Projects/twitter_modifiers.sol\":1705:1723  tweets[msg.sender] */\n      0xffffffffffffffffffffffffffffffffffffffff\n      and\n      0xffffffffffffffffffffffffffffffffffffffff\n      and\n      dup2\n      mstore\n      0x20\n      add\n      swap1\n      dup2\n      mstore\n      0x20\n      add\n      0x00\n      keccak256\n        /* \"Solidity/Solidity/Contracts/Projects/twitter_modifiers.sol\":1724:1727  _id */\n      dup2\n        /* \"Solidity/Solidity/Contracts/Projects/twitter_modifiers.sol\":1705:1728  tweets[msg.sender][_id] */\n      dup2\n      sload\n      dup2\n      lt\n      tag_85\n      jumpi\n      tag_86\n      tag_65\n      jump\t// in\n    tag_86:\n    tag_85:\n      swap1\n      0x00\n      mstore\n      keccak256(0x00, 0x20)\n      swap1\n      0x05\n      mul\n      add\n        /* \"Solidity/Solidity/Contracts/Projects/twitter_modifiers.sol\":1705:1734  tweets[msg.sender][_id].likes */\n      0x04\n      add\n      0x00\n        /* \"Solidity/Solidity/Contracts/Projects/twitter_modifiers.sol\":1705:1736  tweets[msg.sender][_id].likes-- */\n      dup2\n      sload\n      dup1\n      swap3\n      swap2\n      swap1\n      tag_88\n      swap1\n      tag_89\n      jump\t// in\n    tag_88:\n      swap2\n      swap1\n      pop\n      sstore\n      pop\n        /* \"Solidity/Solidity/Contracts/Projects/twitter_modifiers.sol\":1450:1744  function unlikeTweet(address _owner, uint _id) public{... */\n      pop\n      pop\n      jump\t// out\n        /* \"Solidity/Solidity/Contracts/Projects/twitter_modifiers.sol\":1752:1870  function changeTweetLength(uint16 newTweetLength) public onlyOwner{... */\n    tag_30:\n        /* \"Solidity/Solidity/Contracts/Projects/twitter_modifiers.sol\":585:590  owner */\n      0x02\n      0x00\n      swap1\n      sload\n      swap1\n      0x0100\n      exp\n      swap1\n      div\n      0xffffffffffffffffffffffffffffffffffffffff\n      and\n        /* \"Solidity/Solidity/Contracts/Projects/twitter_modifiers.sol\":571:590  msg.sender == owner */\n      0xffffffffffffffffffffffffffffffffffffffff\n      and\n        /* \"Solidity/Solidity/Contracts/Projects/twitter_modifiers.sol\":571:581  msg.sender */\n      caller\n        /* \"Solidity/Solidity/Contracts/Projects/twitter_modifiers.sol\":571:590  msg.sender == owner */\n      0xffffffffffffffffffffffffffffffffffffffff\n      and\n      eq\n        /* \"Solidity/Solidity/Contracts/Projects/twitter_modifiers.sol\":563:616  require(msg.sender == owner, \"YOU ARE NOT THE OWNER\") */\n      tag_91\n      jumpi\n      mload(0x40)\n      0x08c379a000000000000000000000000000000000000000000000000000000000\n      dup2\n      mstore\n      0x04\n      add\n      tag_92\n      swap1\n      tag_93\n      jump\t// in\n    tag_92:\n      mload(0x40)\n      dup1\n      swap2\n      sub\n      swap1\n      revert\n    tag_91:\n        /* \"Solidity/Solidity/Contracts/Projects/twitter_modifiers.sol\":1848:1862  newTweetLength */\n      dup1\n        /* \"Solidity/Solidity/Contracts/Projects/twitter_modifiers.sol\":1829:1845  MAX_TWEET_LENGTH */\n      0x00\n      dup1\n        /* \"Solidity/Solidity/Contracts/Projects/twitter_modifiers.sol\":1829:1862  MAX_TWEET_LENGTH = newTweetLength */\n      0x0100\n      exp\n      dup2\n      sload\n      dup2\n      0xffff\n      mul\n      not\n      and\n      swap1\n      dup4\n      0xffff\n      and\n      mul\n      or\n      swap1\n      sstore\n      pop\n        /* \"Solidity/Solidity/Contracts/Projects/twitter_modifiers.sol\":1752:1870  function changeTweetLength(uint16 newTweetLength) public onlyOwner{... */\n      pop\n      jump\t// out\n        /* \"Solidity/Solidity/Contracts/Projects/twitter_modifiers.sol\":1220:1442  function likeTweet(address _owner, uint _id) public{... */\n    tag_33:\n        /* \"Solidity/Solidity/Contracts/Projects/twitter_modifiers.sol\":1316:1319  _id */\n      dup1\n        /* \"Solidity/Solidity/Contracts/Projects/twitter_modifiers.sol\":1290:1296  tweets */\n      0x01\n        /* \"Solidity/Solidity/Contracts/Projects/twitter_modifiers.sol\":1290:1304  tweets[_owner] */\n      0x00\n        /* \"Solidity/Solidity/Contracts/Projects/twitter_modifiers.sol\":1297:1303  _owner */\n      dup5\n        /* \"Solidity/Solidity/Contracts/Projects/twitter_modifiers.sol\":1290:1304  tweets[_owner] */\n      0xffffffffffffffffffffffffffffffffffffffff\n      and\n      0xffffffffffffffffffffffffffffffffffffffff\n      and\n      dup2\n      mstore\n      0x20\n      add\n      swap1\n      dup2\n      mstore\n      0x20\n      add\n      0x00\n      keccak256\n        /* \"Solidity/Solidity/Contracts/Projects/twitter_modifiers.sol\":1305:1308  _id */\n      dup3\n        /* \"Solidity/Solidity/Contracts/Projects/twitter_modifiers.sol\":1290:1309  tweets[_owner][_id] */\n      dup2\n      sload\n      dup2\n      lt\n      tag_96\n      jumpi\n      tag_97\n      tag_65\n      jump\t// in\n    tag_97:\n    tag_96:\n      swap1\n      0x00\n      mstore\n      keccak256(0x00, 0x20)\n      swap1\n      0x05\n      mul\n      add\n        /* \"Solidity/Solidity/Contracts/Projects/twitter_modifiers.sol\":1290:1312  tweets[_owner][_id].id */\n      0x00\n      add\n      sload\n        /* \"Solidity/Solidity/Contracts/Projects/twitter_modifiers.sol\":1290:1319  tweets[_owner][_id].id == _id */\n      eq\n        /* \"Solidity/Solidity/Contracts/Projects/twitter_modifiers.sol\":1282:1342  require(tweets[_owner][_id].id == _id,\"INVALID TWEET INDEX\") */\n      tag_99\n      jumpi\n      mload(0x40)\n      0x08c379a000000000000000000000000000000000000000000000000000000000\n      dup2\n      mstore\n      0x04\n      add\n      tag_100\n      swap1\n      tag_78\n      jump\t// in\n    tag_100:\n      mload(0x40)\n      dup1\n      swap2\n      sub\n      swap1\n      revert\n    tag_99:\n        /* \"Solidity/Solidity/Contracts/Projects/twitter_modifiers.sol\":1403:1409  tweets */\n      0x01\n        /* \"Solidity/Solidity/Contracts/Projects/twitter_modifiers.sol\":1403:1421  tweets[msg.sender] */\n      0x00\n        /* \"Solidity/Solidity/Contracts/Projects/twitter_modifiers.sol\":1410:1420  msg.sender */\n      caller\n        /* \"Solidity/Solidity/Contracts/Projects/twitter_modifiers.sol\":1403:1421  tweets[msg.sender] */\n      0xffffffffffffffffffffffffffffffffffffffff\n      and\n      0xffffffffffffffffffffffffffffffffffffffff\n      and\n      dup2\n      mstore\n      0x20\n      add\n      swap1\n      dup2\n      mstore\n      0x20\n      add\n      0x00\n      keccak256\n        /* \"Solidity/Solidity/Contracts/Projects/twitter_modifiers.sol\":1422:1425  _id */\n      dup2\n        /* \"Solidity/Solidity/Contracts/Projects/twitter_modifiers.sol\":1403:1426  tweets[msg.sender][_id] */\n      dup2\n      sload\n      dup2\n      lt\n      tag_101\n      jumpi\n      tag_102\n      tag_65\n      jump\t// in\n    tag_102:\n    tag_101:\n      swap1\n      0x00\n      mstore\n      keccak256(0x00, 0x20)\n      swap1\n      0x05\n      mul\n      add\n        /* \"Solidity/Solidity/Contracts/Projects/twitter_modifiers.sol\":1403:1432  tweets[msg.sender][_id].likes */\n      0x04\n      add\n      0x00\n        /* \"Solidity/Solidity/Contracts/Projects/twitter_modifiers.sol\":1403:1434  tweets[msg.sender][_id].likes++ */\n      dup2\n      sload\n      dup1\n      swap3\n      swap2\n      swap1\n      tag_104\n      swap1\n      tag_105\n      jump\t// in\n    tag_104:\n      swap2\n      swap1\n      pop\n      sstore\n      pop\n        /* \"Solidity/Solidity/Contracts/Projects/twitter_modifiers.sol\":1220:1442  function likeTweet(address _owner, uint _id) public{... */\n      pop\n      pop\n      jump\t// out\n        /* \"Solidity/Solidity/Contracts/Projects/twitter_modifiers.sol\":94:128  uint16 public MAX_TWEET_LENGTH = 5 */\n    tag_35:\n      0x00\n      dup1\n      sload\n      swap1\n      0x0100\n      exp\n      swap1\n      div\n      0xffff\n      and\n      dup2\n      jump\t// out\n        /* \"Solidity/Solidity/Contracts/Projects/twitter_modifiers.sol\":644:1212  function createTweet(string memory tweetContent)public {... */\n    tag_41:\n        /* \"Solidity/Solidity/Contracts/Projects/twitter_modifiers.sol\":830:846  MAX_TWEET_LENGTH */\n      0x00\n      dup1\n      sload\n      swap1\n      0x0100\n      exp\n      swap1\n      div\n      0xffff\n      and\n        /* \"Solidity/Solidity/Contracts/Projects/twitter_modifiers.sol\":800:846  bytes(tweetContent).length <= MAX_TWEET_LENGTH */\n      0xffff\n      and\n        /* \"Solidity/Solidity/Contracts/Projects/twitter_modifiers.sol\":806:818  tweetContent */\n      dup2\n        /* \"Solidity/Solidity/Contracts/Projects/twitter_modifiers.sol\":800:826  bytes(tweetContent).length */\n      mload\n        /* \"Solidity/Solidity/Contracts/Projects/twitter_modifiers.sol\":800:846  bytes(tweetContent).length <= MAX_TWEET_LENGTH */\n      gt\n      iszero\n        /* \"Solidity/Solidity/Contracts/Projects/twitter_modifiers.sol\":791:883  require((bytes(tweetContent).length <= MAX_TWEET_LENGTH), \"TWEET TOO LOOOONG BROOOOOOO!!!!\") */\n      tag_107\n      jumpi\n      mload(0x40)\n      0x08c379a000000000000000000000000000000000000000000000000000000000\n      dup2\n      mstore\n      0x04\n      add\n      tag_108\n      swap1\n      tag_109\n      jump\t// in\n    tag_108:\n      mload(0x40)\n      dup1\n      swap2\n      sub\n      swap1\n      revert\n    tag_107:\n        /* \"Solidity/Solidity/Contracts/Projects/twitter_modifiers.sol\":937:959  Tweet memory newTweets */\n      0x00\n        /* \"Solidity/Solidity/Contracts/Projects/twitter_modifiers.sol\":962:1157  Tweet({... */\n      mload(0x40)\n      dup1\n      0xa0\n      add\n      0x40\n      mstore\n      dup1\n        /* \"Solidity/Solidity/Contracts/Projects/twitter_modifiers.sol\":987:993  tweets */\n      0x01\n        /* \"Solidity/Solidity/Contracts/Projects/twitter_modifiers.sol\":987:1005  tweets[msg.sender] */\n      0x00\n        /* \"Solidity/Solidity/Contracts/Projects/twitter_modifiers.sol\":994:1004  msg.sender */\n      caller\n        /* \"Solidity/Solidity/Contracts/Projects/twitter_modifiers.sol\":987:1005  tweets[msg.sender] */\n      0xffffffffffffffffffffffffffffffffffffffff\n      and\n      0xffffffffffffffffffffffffffffffffffffffff\n      and\n      dup2\n      mstore\n      0x20\n      add\n      swap1\n      dup2\n      mstore\n      0x20\n      add\n      0x00\n      keccak256\n        /* \"Solidity/Solidity/Contracts/Projects/twitter_modifiers.sol\":987:1012  tweets[msg.sender].length */\n      dup1\n      sload\n      swap1\n      pop\n        /* \"Solidity/Solidity/Contracts/Projects/twitter_modifiers.sol\":962:1157  Tweet({... */\n      dup2\n      mstore\n      0x20\n      add\n        /* \"Solidity/Solidity/Contracts/Projects/twitter_modifiers.sol\":1035:1045  msg.sender */\n      caller\n        /* \"Solidity/Solidity/Contracts/Projects/twitter_modifiers.sol\":962:1157  Tweet({... */\n      0xffffffffffffffffffffffffffffffffffffffff\n      and\n      dup2\n      mstore\n      0x20\n      add\n        /* \"Solidity/Solidity/Contracts/Projects/twitter_modifiers.sol\":1069:1081  tweetContent */\n      dup4\n        /* \"Solidity/Solidity/Contracts/Projects/twitter_modifiers.sol\":962:1157  Tweet({... */\n      dup2\n      mstore\n      0x20\n      add\n        /* \"Solidity/Solidity/Contracts/Projects/twitter_modifiers.sol\":1107:1122  block.timestamp */\n      timestamp\n        /* \"Solidity/Solidity/Contracts/Projects/twitter_modifiers.sol\":962:1157  Tweet({... */\n      dup2\n      mstore\n      0x20\n      add\n        /* \"Solidity/Solidity/Contracts/Projects/twitter_modifiers.sol\":1144:1145  0 */\n      0x00\n        /* \"Solidity/Solidity/Contracts/Projects/twitter_modifiers.sol\":962:1157  Tweet({... */\n      dup2\n      mstore\n      pop\n        /* \"Solidity/Solidity/Contracts/Projects/twitter_modifiers.sol\":937:1157  Tweet memory newTweets = Tweet({... */\n      swap1\n      pop\n        /* \"Solidity/Solidity/Contracts/Projects/twitter_modifiers.sol\":1170:1176  tweets */\n      0x01\n        /* \"Solidity/Solidity/Contracts/Projects/twitter_modifiers.sol\":1170:1188  tweets[msg.sender] */\n      0x00\n        /* \"Solidity/Solidity/Contracts/Projects/twitter_modifiers.sol\":1177:1187  msg.sender */\n      caller\n        /* \"Solidity/Solidity/Contracts/Projects/twitter_modifiers.sol\":1170:1188  tweets[msg.sender] */\n      0xffffffffffffffffffffffffffffffffffffffff\n      and\n      0xffffffffffffffffffffffffffffffffffffffff\n      and\n      dup2\n      mstore\n      0x20\n      add\n      swap1\n      dup2\n      mstore\n      0x20\n      add\n      0x00\n      keccak256\n        /* \"Solidity/Solidity/Contracts/Projects/twitter_modifiers.sol\":1194:1203  newTweets */\n      dup2\n        /* \"Solidity/Solidity/Contracts/Projects/twitter_modifiers.sol\":1170:1204  tweets[msg.sender].push(newTweets) */\n      swap1\n      dup1\n      0x01\n      dup2\n      sload\n      add\n      dup1\n      dup3\n      sstore\n      dup1\n      swap2\n      pop\n      pop\n      0x01\n      swap1\n      sub\n      swap1\n      0x00\n      mstore\n      keccak256(0x00, 0x20)\n      swap1\n      0x05\n      mul\n      add\n      0x00\n      swap1\n      swap2\n      swap1\n      swap2\n      swap1\n      swap2\n      pop\n      0x00\n      dup3\n      add\n      mload\n      dup2\n      0x00\n      add\n      sstore\n      0x20\n      dup3\n      add\n      mload\n      dup2\n      0x01\n      add\n      exp(0x0100, 0x00)\n      dup2\n      sload\n      dup2\n      0xffffffffffffffffffffffffffffffffffffffff\n      mul\n      not\n      and\n      swap1\n      dup4\n      0xffffffffffffffffffffffffffffffffffffffff\n      and\n      mul\n      or\n      swap1\n      sstore\n      pop\n      0x40\n      dup3\n      add\n      mload\n      dup2\n      0x02\n      add\n      swap1\n      dup2\n      tag_111\n      swap2\n      swap1\n      tag_112\n      jump\t// in\n    tag_111:\n      pop\n      0x60\n      dup3\n      add\n      mload\n      dup2\n      0x03\n      add\n      sstore\n      0x80\n      dup3\n      add\n      mload\n      dup2\n      0x04\n      add\n      sstore\n      pop\n      pop\n        /* \"Solidity/Solidity/Contracts/Projects/twitter_modifiers.sol\":699:1212  {... */\n      pop\n        /* \"Solidity/Solidity/Contracts/Projects/twitter_modifiers.sol\":644:1212  function createTweet(string memory tweetContent)public {... */\n      pop\n      jump\t// out\n        /* \"Solidity/Solidity/Contracts/Projects/twitter_modifiers.sol\":445:465  address public owner */\n    tag_43:\n      0x02\n      0x00\n      swap1\n      sload\n      swap1\n      0x0100\n      exp\n      swap1\n      div\n      0xffffffffffffffffffffffffffffffffffffffff\n      and\n      dup2\n      jump\t// out\n        /* \"Solidity/Solidity/Contracts/Projects/twitter_modifiers.sol\":1912:2027  function getTweets(address _author) external view returns (Tweet[] memory){... */\n    tag_49:\n        /* \"Solidity/Solidity/Contracts/Projects/twitter_modifiers.sol\":1971:1985  Tweet[] memory */\n      0x60\n        /* \"Solidity/Solidity/Contracts/Projects/twitter_modifiers.sol\":2004:2010  tweets */\n      0x01\n        /* \"Solidity/Solidity/Contracts/Projects/twitter_modifiers.sol\":2004:2019  tweets[_author] */\n      0x00\n        /* \"Solidity/Solidity/Contracts/Projects/twitter_modifiers.sol\":2011:2018  _author */\n      dup4\n        /* \"Solidity/Solidity/Contracts/Projects/twitter_modifiers.sol\":2004:2019  tweets[_author] */\n      0xffffffffffffffffffffffffffffffffffffffff\n      and\n      0xffffffffffffffffffffffffffffffffffffffff\n      and\n      dup2\n      mstore\n      0x20\n      add\n      swap1\n      dup2\n      mstore\n      0x20\n      add\n      0x00\n      keccak256\n        /* \"Solidity/Solidity/Contracts/Projects/twitter_modifiers.sol\":1997:2019  return tweets[_author] */\n      dup1\n      sload\n      dup1\n      0x20\n      mul\n      0x20\n      add\n      mload(0x40)\n      swap1\n      dup2\n      add\n      0x40\n      mstore\n      dup1\n      swap3\n      swap2\n      swap1\n      dup2\n      dup2\n      mstore\n      0x20\n      add\n      0x00\n      swap1\n    tag_114:\n      dup3\n      dup3\n      lt\n      iszero\n      tag_115\n      jumpi\n      dup4\n      dup3\n      swap1\n      0x00\n      mstore\n      keccak256(0x00, 0x20)\n      swap1\n      0x05\n      mul\n      add\n      mload(0x40)\n      dup1\n      0xa0\n      add\n      0x40\n      mstore\n      swap1\n      dup2\n      0x00\n      dup3\n      add\n      sload\n      dup2\n      mstore\n      0x20\n      add\n      0x01\n      dup3\n      add\n      0x00\n      swap1\n      sload\n      swap1\n      0x0100\n      exp\n      swap1\n      div\n      0xffffffffffffffffffffffffffffffffffffffff\n      and\n      0xffffffffffffffffffffffffffffffffffffffff\n      and\n      0xffffffffffffffffffffffffffffffffffffffff\n      and\n      dup2\n      mstore\n      0x20\n      add\n      0x02\n      dup3\n      add\n      dup1\n      sload\n      tag_117\n      swap1\n      tag_55\n      jump\t// in\n    tag_117:\n      dup1\n      0x1f\n      add\n      0x20\n      dup1\n      swap2\n      div\n      mul\n      0x20\n      add\n      mload(0x40)\n      swap1\n      dup2\n      add\n      0x40\n      mstore\n      dup1\n      swap3\n      swap2\n      swap1\n      dup2\n      dup2\n      mstore\n      0x20\n      add\n      dup3\n      dup1\n      sload\n      tag_118\n      swap1\n      tag_55\n      jump\t// in\n    tag_118:\n      dup1\n      iszero\n      tag_119\n      jumpi\n      dup1\n      0x1f\n      lt\n      tag_120\n      jumpi\n      0x0100\n      dup1\n      dup4\n      sload\n      div\n      mul\n      dup4\n      mstore\n      swap2\n      0x20\n      add\n      swap2\n      jump(tag_119)\n    tag_120:\n      dup3\n      add\n      swap2\n      swap1\n      0x00\n      mstore\n      keccak256(0x00, 0x20)\n      swap1\n    tag_121:\n      dup2\n      sload\n      dup2\n      mstore\n      swap1\n      0x01\n      add\n      swap1\n      0x20\n      add\n      dup1\n      dup4\n      gt\n      tag_121\n      jumpi\n      dup3\n      swap1\n      sub\n      0x1f\n      and\n      dup3\n      add\n      swap2\n    tag_119:\n      pop\n      pop\n      pop\n      pop\n      pop\n      dup2\n      mstore\n      0x20\n      add\n      0x03\n      dup3\n      add\n      sload\n      dup2\n      mstore\n      0x20\n      add\n      0x04\n      dup3\n      add\n      sload\n      dup2\n      mstore\n      pop\n      pop\n      dup2\n      mstore\n      0x20\n      add\n      swap1\n      0x01\n      add\n      swap1\n      jump(tag_114)\n    tag_115:\n      pop\n      pop\n      pop\n      pop\n      swap1\n      pop\n        /* \"Solidity/Solidity/Contracts/Projects/twitter_modifiers.sol\":1912:2027  function getTweets(address _author) external view returns (Tweet[] memory){... */\n      swap2\n      swap1\n      pop\n      jump\t// out\n    tag_61:\n      mload(0x40)\n      dup1\n      0xa0\n      add\n      0x40\n      mstore\n      dup1\n      0x00\n      dup2\n      mstore\n      0x20\n      add\n      and(0xffffffffffffffffffffffffffffffffffffffff, 0x00)\n      dup2\n      mstore\n      0x20\n      add\n      0x60\n      dup2\n      mstore\n      0x20\n      add\n      0x00\n      dup2\n      mstore\n      0x20\n      add\n      0x00\n      dup2\n      mstore\n      pop\n      swap1\n      jump\t// out\n        /* \"#utility.yul\":7:82   */\n    tag_122:\n        /* \"#utility.yul\":40:46   */\n      0x00\n        /* \"#utility.yul\":73:75   */\n      0x40\n        /* \"#utility.yul\":67:76   */\n      mload\n        /* \"#utility.yul\":57:76   */\n      swap1\n      pop\n        /* \"#utility.yul\":7:82   */\n      swap1\n      jump\t// out\n        /* \"#utility.yul\":88:205   */\n    tag_123:\n        /* \"#utility.yul\":197:198   */\n      0x00\n        /* \"#utility.yul\":194:195   */\n      dup1\n        /* \"#utility.yul\":187:199   */\n      revert\n        /* \"#utility.yul\":211:328   */\n    tag_124:\n        /* \"#utility.yul\":320:321   */\n      0x00\n        /* \"#utility.yul\":317:318   */\n      dup1\n        /* \"#utility.yul\":310:322   */\n      revert\n        /* \"#utility.yul\":334:460   */\n    tag_125:\n        /* \"#utility.yul\":371:378   */\n      0x00\n        /* \"#utility.yul\":411:453   */\n      0xffffffffffffffffffffffffffffffffffffffff\n        /* \"#utility.yul\":404:409   */\n      dup3\n        /* \"#utility.yul\":400:454   */\n      and\n        /* \"#utility.yul\":389:454   */\n      swap1\n      pop\n        /* \"#utility.yul\":334:460   */\n      swap2\n      swap1\n      pop\n      jump\t// out\n        /* \"#utility.yul\":466:562   */\n    tag_126:\n        /* \"#utility.yul\":503:510   */\n      0x00\n        /* \"#utility.yul\":532:556   */\n      tag_195\n        /* \"#utility.yul\":550:555   */\n      dup3\n        /* \"#utility.yul\":532:556   */\n      tag_125\n      jump\t// in\n    tag_195:\n        /* \"#utility.yul\":521:556   */\n      swap1\n      pop\n        /* \"#utility.yul\":466:562   */\n      swap2\n      swap1\n      pop\n      jump\t// out\n        /* \"#utility.yul\":568:690   */\n    tag_127:\n        /* \"#utility.yul\":641:665   */\n      tag_197\n        /* \"#utility.yul\":659:664   */\n      dup2\n        /* \"#utility.yul\":641:665   */\n      tag_126\n      jump\t// in\n    tag_197:\n        /* \"#utility.yul\":634:639   */\n      dup2\n        /* \"#utility.yul\":631:666   */\n      eq\n        /* \"#utility.yul\":621:684   */\n      tag_198\n      jumpi\n        /* \"#utility.yul\":680:681   */\n      0x00\n        /* \"#utility.yul\":677:678   */\n      dup1\n        /* \"#utility.yul\":670:682   */\n      revert\n        /* \"#utility.yul\":621:684   */\n    tag_198:\n        /* \"#utility.yul\":568:690   */\n      pop\n      jump\t// out\n        /* \"#utility.yul\":696:835   */\n    tag_128:\n        /* \"#utility.yul\":742:747   */\n      0x00\n        /* \"#utility.yul\":780:786   */\n      dup2\n        /* \"#utility.yul\":767:787   */\n      calldataload\n        /* \"#utility.yul\":758:787   */\n      swap1\n      pop\n        /* \"#utility.yul\":796:829   */\n      tag_200\n        /* \"#utility.yul\":823:828   */\n      dup2\n        /* \"#utility.yul\":796:829   */\n      tag_127\n      jump\t// in\n    tag_200:\n        /* \"#utility.yul\":696:835   */\n      swap3\n      swap2\n      pop\n      pop\n      jump\t// out\n        /* \"#utility.yul\":841:918   */\n    tag_129:\n        /* \"#utility.yul\":878:885   */\n      0x00\n        /* \"#utility.yul\":907:912   */\n      dup2\n        /* \"#utility.yul\":896:912   */\n      swap1\n      pop\n        /* \"#utility.yul\":841:918   */\n      swap2\n      swap1\n      pop\n      jump\t// out\n        /* \"#utility.yul\":924:1046   */\n    tag_130:\n        /* \"#utility.yul\":997:1021   */\n      tag_203\n        /* \"#utility.yul\":1015:1020   */\n      dup2\n        /* \"#utility.yul\":997:1021   */\n      tag_129\n      jump\t// in\n    tag_203:\n        /* \"#utility.yul\":990:995   */\n      dup2\n        /* \"#utility.yul\":987:1022   */\n      eq\n        /* \"#utility.yul\":977:1040   */\n      tag_204\n      jumpi\n        /* \"#utility.yul\":1036:1037   */\n      0x00\n        /* \"#utility.yul\":1033:1034   */\n      dup1\n        /* \"#utility.yul\":1026:1038   */\n      revert\n        /* \"#utility.yul\":977:1040   */\n    tag_204:\n        /* \"#utility.yul\":924:1046   */\n      pop\n      jump\t// out\n        /* \"#utility.yul\":1052:1191   */\n    tag_131:\n        /* \"#utility.yul\":1098:1103   */\n      0x00\n        /* \"#utility.yul\":1136:1142   */\n      dup2\n        /* \"#utility.yul\":1123:1143   */\n      calldataload\n        /* \"#utility.yul\":1114:1143   */\n      swap1\n      pop\n        /* \"#utility.yul\":1152:1185   */\n      tag_206\n        /* \"#utility.yul\":1179:1184   */\n      dup2\n        /* \"#utility.yul\":1152:1185   */\n      tag_130\n      jump\t// in\n    tag_206:\n        /* \"#utility.yul\":1052:1191   */\n      swap3\n      swap2\n      pop\n      pop\n      jump\t// out\n        /* \"#utility.yul\":1197:1671   */\n    tag_15:\n        /* \"#utility.yul\":1265:1271   */\n      0x00\n        /* \"#utility.yul\":1273:1279   */\n      dup1\n        /* \"#utility.yul\":1322:1324   */\n      0x40\n        /* \"#utility.yul\":1310:1319   */\n      dup4\n        /* \"#utility.yul\":1301:1308   */\n      dup6\n        /* \"#utility.yul\":1297:1320   */\n      sub\n        /* \"#utility.yul\":1293:1325   */\n      slt\n        /* \"#utility.yul\":1290:1409   */\n      iszero\n      tag_208\n      jumpi\n        /* \"#utility.yul\":1328:1407   */\n      tag_209\n      tag_123\n      jump\t// in\n    tag_209:\n        /* \"#utility.yul\":1290:1409   */\n    tag_208:\n        /* \"#utility.yul\":1448:1449   */\n      0x00\n        /* \"#utility.yul\":1473:1526   */\n      tag_210\n        /* \"#utility.yul\":1518:1525   */\n      dup6\n        /* \"#utility.yul\":1509:1515   */\n      dup3\n        /* \"#utility.yul\":1498:1507   */\n      dup7\n        /* \"#utility.yul\":1494:1516   */\n      add\n        /* \"#utility.yul\":1473:1526   */\n      tag_128\n      jump\t// in\n    tag_210:\n        /* \"#utility.yul\":1463:1526   */\n      swap3\n      pop\n        /* \"#utility.yul\":1419:1536   */\n      pop\n        /* \"#utility.yul\":1575:1577   */\n      0x20\n        /* \"#utility.yul\":1601:1654   */\n      tag_211\n        /* \"#utility.yul\":1646:1653   */\n      dup6\n        /* \"#utility.yul\":1637:1643   */\n      dup3\n        /* \"#utility.yul\":1626:1635   */\n      dup7\n        /* \"#utility.yul\":1622:1644   */\n      add\n        /* \"#utility.yul\":1601:1654   */\n      tag_131\n      jump\t// in\n    tag_211:\n        /* \"#utility.yul\":1591:1654   */\n      swap2\n      pop\n        /* \"#utility.yul\":1546:1664   */\n      pop\n        /* \"#utility.yul\":1197:1671   */\n      swap3\n      pop\n      swap3\n      swap1\n      pop\n      jump\t// out\n        /* \"#utility.yul\":1677:1795   */\n    tag_132:\n        /* \"#utility.yul\":1764:1788   */\n      tag_213\n        /* \"#utility.yul\":1782:1787   */\n      dup2\n        /* \"#utility.yul\":1764:1788   */\n      tag_129\n      jump\t// in\n    tag_213:\n        /* \"#utility.yul\":1759:1762   */\n      dup3\n        /* \"#utility.yul\":1752:1789   */\n      mstore\n        /* \"#utility.yul\":1677:1795   */\n      pop\n      pop\n      jump\t// out\n        /* \"#utility.yul\":1801:1919   */\n    tag_133:\n        /* \"#utility.yul\":1888:1912   */\n      tag_215\n        /* \"#utility.yul\":1906:1911   */\n      dup2\n        /* \"#utility.yul\":1888:1912   */\n      tag_126\n      jump\t// in\n    tag_215:\n        /* \"#utility.yul\":1883:1886   */\n      dup3\n        /* \"#utility.yul\":1876:1913   */\n      mstore\n        /* \"#utility.yul\":1801:1919   */\n      pop\n      pop\n      jump\t// out\n        /* \"#utility.yul\":1925:2024   */\n    tag_134:\n        /* \"#utility.yul\":1977:1983   */\n      0x00\n        /* \"#utility.yul\":2011:2016   */\n      dup2\n        /* \"#utility.yul\":2005:2017   */\n      mload\n        /* \"#utility.yul\":1995:2017   */\n      swap1\n      pop\n        /* \"#utility.yul\":1925:2024   */\n      swap2\n      swap1\n      pop\n      jump\t// out\n        /* \"#utility.yul\":2030:2199   */\n    tag_135:\n        /* \"#utility.yul\":2114:2125   */\n      0x00\n        /* \"#utility.yul\":2148:2154   */\n      dup3\n        /* \"#utility.yul\":2143:2146   */\n      dup3\n        /* \"#utility.yul\":2136:2155   */\n      mstore\n        /* \"#utility.yul\":2188:2192   */\n      0x20\n        /* \"#utility.yul\":2183:2186   */\n      dup3\n        /* \"#utility.yul\":2179:2193   */\n      add\n        /* \"#utility.yul\":2164:2193   */\n      swap1\n      pop\n        /* \"#utility.yul\":2030:2199   */\n      swap3\n      swap2\n      pop\n      pop\n      jump\t// out\n        /* \"#utility.yul\":2205:2344   */\n    tag_136:\n        /* \"#utility.yul\":2294:2300   */\n      dup3\n        /* \"#utility.yul\":2289:2292   */\n      dup2\n        /* \"#utility.yul\":2284:2287   */\n      dup4\n        /* \"#utility.yul\":2278:2301   */\n      mcopy\n        /* \"#utility.yul\":2335:2336   */\n      0x00\n        /* \"#utility.yul\":2326:2332   */\n      dup4\n        /* \"#utility.yul\":2321:2324   */\n      dup4\n        /* \"#utility.yul\":2317:2333   */\n      add\n        /* \"#utility.yul\":2310:2337   */\n      mstore\n        /* \"#utility.yul\":2205:2344   */\n      pop\n      pop\n      pop\n      jump\t// out\n        /* \"#utility.yul\":2350:2452   */\n    tag_137:\n        /* \"#utility.yul\":2391:2397   */\n      0x00\n        /* \"#utility.yul\":2442:2444   */\n      0x1f\n        /* \"#utility.yul\":2438:2445   */\n      not\n        /* \"#utility.yul\":2433:2435   */\n      0x1f\n        /* \"#utility.yul\":2426:2431   */\n      dup4\n        /* \"#utility.yul\":2422:2436   */\n      add\n        /* \"#utility.yul\":2418:2446   */\n      and\n        /* \"#utility.yul\":2408:2446   */\n      swap1\n      pop\n        /* \"#utility.yul\":2350:2452   */\n      swap2\n      swap1\n      pop\n      jump\t// out\n        /* \"#utility.yul\":2458:2835   */\n    tag_138:\n        /* \"#utility.yul\":2546:2549   */\n      0x00\n        /* \"#utility.yul\":2574:2613   */\n      tag_221\n        /* \"#utility.yul\":2607:2612   */\n      dup3\n        /* \"#utility.yul\":2574:2613   */\n      tag_134\n      jump\t// in\n    tag_221:\n        /* \"#utility.yul\":2629:2700   */\n      tag_222\n        /* \"#utility.yul\":2693:2699   */\n      dup2\n        /* \"#utility.yul\":2688:2691   */\n      dup6\n        /* \"#utility.yul\":2629:2700   */\n      tag_135\n      jump\t// in\n    tag_222:\n        /* \"#utility.yul\":2622:2700   */\n      swap4\n      pop\n        /* \"#utility.yul\":2709:2774   */\n      tag_223\n        /* \"#utility.yul\":2767:2773   */\n      dup2\n        /* \"#utility.yul\":2762:2765   */\n      dup6\n        /* \"#utility.yul\":2755:2759   */\n      0x20\n        /* \"#utility.yul\":2748:2753   */\n      dup7\n        /* \"#utility.yul\":2744:2760   */\n      add\n        /* \"#utility.yul\":2709:2774   */\n      tag_136\n      jump\t// in\n    tag_223:\n        /* \"#utility.yul\":2799:2828   */\n      tag_224\n        /* \"#utility.yul\":2821:2827   */\n      dup2\n        /* \"#utility.yul\":2799:2828   */\n      tag_137\n      jump\t// in\n    tag_224:\n        /* \"#utility.yul\":2794:2797   */\n      dup5\n        /* \"#utility.yul\":2790:2829   */\n      add\n        /* \"#utility.yul\":2783:2829   */\n      swap2\n      pop\n        /* \"#utility.yul\":2550:2835   */\n      pop\n        /* \"#utility.yul\":2458:2835   */\n      swap3\n      swap2\n      pop\n      pop\n      jump\t// out\n        /* \"#utility.yul\":2841:3596   */\n    tag_18:\n        /* \"#utility.yul\":3066:3070   */\n      0x00\n        /* \"#utility.yul\":3104:3107   */\n      0xa0\n        /* \"#utility.yul\":3093:3102   */\n      dup3\n        /* \"#utility.yul\":3089:3108   */\n      add\n        /* \"#utility.yul\":3081:3108   */\n      swap1\n      pop\n        /* \"#utility.yul\":3118:3189   */\n      tag_226\n        /* \"#utility.yul\":3186:3187   */\n      0x00\n        /* \"#utility.yul\":3175:3184   */\n      dup4\n        /* \"#utility.yul\":3171:3188   */\n      add\n        /* \"#utility.yul\":3162:3168   */\n      dup9\n        /* \"#utility.yul\":3118:3189   */\n      tag_132\n      jump\t// in\n    tag_226:\n        /* \"#utility.yul\":3199:3271   */\n      tag_227\n        /* \"#utility.yul\":3267:3269   */\n      0x20\n        /* \"#utility.yul\":3256:3265   */\n      dup4\n        /* \"#utility.yul\":3252:3270   */\n      add\n        /* \"#utility.yul\":3243:3249   */\n      dup8\n        /* \"#utility.yul\":3199:3271   */\n      tag_133\n      jump\t// in\n    tag_227:\n        /* \"#utility.yul\":3318:3327   */\n      dup2\n        /* \"#utility.yul\":3312:3316   */\n      dup2\n        /* \"#utility.yul\":3308:3328   */\n      sub\n        /* \"#utility.yul\":3303:3305   */\n      0x40\n        /* \"#utility.yul\":3292:3301   */\n      dup4\n        /* \"#utility.yul\":3288:3306   */\n      add\n        /* \"#utility.yul\":3281:3329   */\n      mstore\n        /* \"#utility.yul\":3346:3424   */\n      tag_228\n        /* \"#utility.yul\":3419:3423   */\n      dup2\n        /* \"#utility.yul\":3410:3416   */\n      dup7\n        /* \"#utility.yul\":3346:3424   */\n      tag_138\n      jump\t// in\n    tag_228:\n        /* \"#utility.yul\":3338:3424   */\n      swap1\n      pop\n        /* \"#utility.yul\":3434:3506   */\n      tag_229\n        /* \"#utility.yul\":3502:3504   */\n      0x60\n        /* \"#utility.yul\":3491:3500   */\n      dup4\n        /* \"#utility.yul\":3487:3505   */\n      add\n        /* \"#utility.yul\":3478:3484   */\n      dup6\n        /* \"#utility.yul\":3434:3506   */\n      tag_132\n      jump\t// in\n    tag_229:\n        /* \"#utility.yul\":3516:3589   */\n      tag_230\n        /* \"#utility.yul\":3584:3587   */\n      0x80\n        /* \"#utility.yul\":3573:3582   */\n      dup4\n        /* \"#utility.yul\":3569:3588   */\n      add\n        /* \"#utility.yul\":3560:3566   */\n      dup5\n        /* \"#utility.yul\":3516:3589   */\n      tag_132\n      jump\t// in\n    tag_230:\n        /* \"#utility.yul\":2841:3596   */\n      swap7\n      swap6\n      pop\n      pop\n      pop\n      pop\n      pop\n      pop\n      jump\t// out\n        /* \"#utility.yul\":3602:3710   */\n    tag_139:\n        /* \"#utility.yul\":3679:3703   */\n      tag_232\n        /* \"#utility.yul\":3697:3702   */\n      dup2\n        /* \"#utility.yul\":3679:3703   */\n      tag_129\n      jump\t// in\n    tag_232:\n        /* \"#utility.yul\":3674:3677   */\n      dup3\n        /* \"#utility.yul\":3667:3704   */\n      mstore\n        /* \"#utility.yul\":3602:3710   */\n      pop\n      pop\n      jump\t// out\n        /* \"#utility.yul\":3716:3824   */\n    tag_140:\n        /* \"#utility.yul\":3793:3817   */\n      tag_234\n        /* \"#utility.yul\":3811:3816   */\n      dup2\n        /* \"#utility.yul\":3793:3817   */\n      tag_126\n      jump\t// in\n    tag_234:\n        /* \"#utility.yul\":3788:3791   */\n      dup3\n        /* \"#utility.yul\":3781:3818   */\n      mstore\n        /* \"#utility.yul\":3716:3824   */\n      pop\n      pop\n      jump\t// out\n        /* \"#utility.yul\":3830:3989   */\n    tag_141:\n        /* \"#utility.yul\":3904:3915   */\n      0x00\n        /* \"#utility.yul\":3938:3944   */\n      dup3\n        /* \"#utility.yul\":3933:3936   */\n      dup3\n        /* \"#utility.yul\":3926:3945   */\n      mstore\n        /* \"#utility.yul\":3978:3982   */\n      0x20\n        /* \"#utility.yul\":3973:3976   */\n      dup3\n        /* \"#utility.yul\":3969:3983   */\n      add\n        /* \"#utility.yul\":3954:3983   */\n      swap1\n      pop\n        /* \"#utility.yul\":3830:3989   */\n      swap3\n      swap2\n      pop\n      pop\n      jump\t// out\n        /* \"#utility.yul\":3995:4352   */\n    tag_142:\n        /* \"#utility.yul\":4073:4076   */\n      0x00\n        /* \"#utility.yul\":4101:4140   */\n      tag_237\n        /* \"#utility.yul\":4134:4139   */\n      dup3\n        /* \"#utility.yul\":4101:4140   */\n      tag_134\n      jump\t// in\n    tag_237:\n        /* \"#utility.yul\":4156:4217   */\n      tag_238\n        /* \"#utility.yul\":4210:4216   */\n      dup2\n        /* \"#utility.yul\":4205:4208   */\n      dup6\n        /* \"#utility.yul\":4156:4217   */\n      tag_141\n      jump\t// in\n    tag_238:\n        /* \"#utility.yul\":4149:4217   */\n      swap4\n      pop\n        /* \"#utility.yul\":4226:4291   */\n      tag_239\n        /* \"#utility.yul\":4284:4290   */\n      dup2\n        /* \"#utility.yul\":4279:4282   */\n      dup6\n        /* \"#utility.yul\":4272:4276   */\n      0x20\n        /* \"#utility.yul\":4265:4270   */\n      dup7\n        /* \"#utility.yul\":4261:4277   */\n      add\n        /* \"#utility.yul\":4226:4291   */\n      tag_136\n      jump\t// in\n    tag_239:\n        /* \"#utility.yul\":4316:4345   */\n      tag_240\n        /* \"#utility.yul\":4338:4344   */\n      dup2\n        /* \"#utility.yul\":4316:4345   */\n      tag_137\n      jump\t// in\n    tag_240:\n        /* \"#utility.yul\":4311:4314   */\n      dup5\n        /* \"#utility.yul\":4307:4346   */\n      add\n        /* \"#utility.yul\":4300:4346   */\n      swap2\n      pop\n        /* \"#utility.yul\":4077:4352   */\n      pop\n        /* \"#utility.yul\":3995:4352   */\n      swap3\n      swap2\n      pop\n      pop\n      jump\t// out\n        /* \"#utility.yul\":4428:5557   */\n    tag_143:\n        /* \"#utility.yul\":4539:4542   */\n      0x00\n        /* \"#utility.yul\":4575:4579   */\n      0xa0\n        /* \"#utility.yul\":4570:4573   */\n      dup4\n        /* \"#utility.yul\":4566:4580   */\n      add\n        /* \"#utility.yul\":4660:4664   */\n      0x00\n        /* \"#utility.yul\":4653:4658   */\n      dup4\n        /* \"#utility.yul\":4649:4665   */\n      add\n        /* \"#utility.yul\":4643:4666   */\n      mload\n        /* \"#utility.yul\":4679:4742   */\n      tag_242\n        /* \"#utility.yul\":4736:4740   */\n      0x00\n        /* \"#utility.yul\":4731:4734   */\n      dup7\n        /* \"#utility.yul\":4727:4741   */\n      add\n        /* \"#utility.yul\":4713:4725   */\n      dup3\n        /* \"#utility.yul\":4679:4742   */\n      tag_139\n      jump\t// in\n    tag_242:\n        /* \"#utility.yul\":4590:4752   */\n      pop\n        /* \"#utility.yul\":4836:4840   */\n      0x20\n        /* \"#utility.yul\":4829:4834   */\n      dup4\n        /* \"#utility.yul\":4825:4841   */\n      add\n        /* \"#utility.yul\":4819:4842   */\n      mload\n        /* \"#utility.yul\":4855:4918   */\n      tag_243\n        /* \"#utility.yul\":4912:4916   */\n      0x20\n        /* \"#utility.yul\":4907:4910   */\n      dup7\n        /* \"#utility.yul\":4903:4917   */\n      add\n        /* \"#utility.yul\":4889:4901   */\n      dup3\n        /* \"#utility.yul\":4855:4918   */\n      tag_140\n      jump\t// in\n    tag_243:\n        /* \"#utility.yul\":4762:4928   */\n      pop\n        /* \"#utility.yul\":5013:5017   */\n      0x40\n        /* \"#utility.yul\":5006:5011   */\n      dup4\n        /* \"#utility.yul\":5002:5018   */\n      add\n        /* \"#utility.yul\":4996:5019   */\n      mload\n        /* \"#utility.yul\":5066:5069   */\n      dup5\n        /* \"#utility.yul\":5060:5064   */\n      dup3\n        /* \"#utility.yul\":5056:5070   */\n      sub\n        /* \"#utility.yul\":5049:5053   */\n      0x40\n        /* \"#utility.yul\":5044:5047   */\n      dup7\n        /* \"#utility.yul\":5040:5054   */\n      add\n        /* \"#utility.yul\":5033:5071   */\n      mstore\n        /* \"#utility.yul\":5092:5165   */\n      tag_244\n        /* \"#utility.yul\":5160:5164   */\n      dup3\n        /* \"#utility.yul\":5146:5158   */\n      dup3\n        /* \"#utility.yul\":5092:5165   */\n      tag_142\n      jump\t// in\n    tag_244:\n        /* \"#utility.yul\":5084:5165   */\n      swap2\n      pop\n        /* \"#utility.yul\":4938:5176   */\n      pop\n        /* \"#utility.yul\":5263:5267   */\n      0x60\n        /* \"#utility.yul\":5256:5261   */\n      dup4\n        /* \"#utility.yul\":5252:5268   */\n      add\n        /* \"#utility.yul\":5246:5269   */\n      mload\n        /* \"#utility.yul\":5282:5345   */\n      tag_245\n        /* \"#utility.yul\":5339:5343   */\n      0x60\n        /* \"#utility.yul\":5334:5337   */\n      dup7\n        /* \"#utility.yul\":5330:5344   */\n      add\n        /* \"#utility.yul\":5316:5328   */\n      dup3\n        /* \"#utility.yul\":5282:5345   */\n      tag_139\n      jump\t// in\n    tag_245:\n        /* \"#utility.yul\":5186:5355   */\n      pop\n        /* \"#utility.yul\":5438:5442   */\n      0x80\n        /* \"#utility.yul\":5431:5436   */\n      dup4\n        /* \"#utility.yul\":5427:5443   */\n      add\n        /* \"#utility.yul\":5421:5444   */\n      mload\n        /* \"#utility.yul\":5457:5520   */\n      tag_246\n        /* \"#utility.yul\":5514:5518   */\n      0x80\n        /* \"#utility.yul\":5509:5512   */\n      dup7\n        /* \"#utility.yul\":5505:5519   */\n      add\n        /* \"#utility.yul\":5491:5503   */\n      dup3\n        /* \"#utility.yul\":5457:5520   */\n      tag_139\n      jump\t// in\n    tag_246:\n        /* \"#utility.yul\":5365:5530   */\n      pop\n        /* \"#utility.yul\":5547:5551   */\n      dup1\n        /* \"#utility.yul\":5540:5551   */\n      swap2\n      pop\n        /* \"#utility.yul\":4544:5557   */\n      pop\n        /* \"#utility.yul\":4428:5557   */\n      swap3\n      swap2\n      pop\n      pop\n      jump\t// out\n        /* \"#utility.yul\":5563:5920   */\n    tag_23:\n        /* \"#utility.yul\":5698:5702   */\n      0x00\n        /* \"#utility.yul\":5736:5738   */\n      0x20\n        /* \"#utility.yul\":5725:5734   */\n      dup3\n        /* \"#utility.yul\":5721:5739   */\n      add\n        /* \"#utility.yul\":5713:5739   */\n      swap1\n      pop\n        /* \"#utility.yul\":5785:5794   */\n      dup2\n        /* \"#utility.yul\":5779:5783   */\n      dup2\n        /* \"#utility.yul\":5775:5795   */\n      sub\n        /* \"#utility.yul\":5771:5772   */\n      0x00\n        /* \"#utility.yul\":5760:5769   */\n      dup4\n        /* \"#utility.yul\":5756:5773   */\n      add\n        /* \"#utility.yul\":5749:5796   */\n      mstore\n        /* \"#utility.yul\":5813:5913   */\n      tag_248\n        /* \"#utility.yul\":5908:5912   */\n      dup2\n        /* \"#utility.yul\":5899:5905   */\n      dup5\n        /* \"#utility.yul\":5813:5913   */\n      tag_143\n      jump\t// in\n    tag_248:\n        /* \"#utility.yul\":5805:5913   */\n      swap1\n      pop\n        /* \"#utility.yul\":5563:5920   */\n      swap3\n      swap2\n      pop\n      pop\n      jump\t// out\n        /* \"#utility.yul\":5926:6015   */\n    tag_144:\n        /* \"#utility.yul\":5962:5969   */\n      0x00\n        /* \"#utility.yul\":6002:6008   */\n      0xffff\n        /* \"#utility.yul\":5995:6000   */\n      dup3\n        /* \"#utility.yul\":5991:6009   */\n      and\n        /* \"#utility.yul\":5980:6009   */\n      swap1\n      pop\n        /* \"#utility.yul\":5926:6015   */\n      swap2\n      swap1\n      pop\n      jump\t// out\n        /* \"#utility.yul\":6021:6141   */\n    tag_145:\n        /* \"#utility.yul\":6093:6116   */\n      tag_251\n        /* \"#utility.yul\":6110:6115   */\n      dup2\n        /* \"#utility.yul\":6093:6116   */\n      tag_144\n      jump\t// in\n    tag_251:\n        /* \"#utility.yul\":6086:6091   */\n      dup2\n        /* \"#utility.yul\":6083:6117   */\n      eq\n        /* \"#utility.yul\":6073:6135   */\n      tag_252\n      jumpi\n        /* \"#utility.yul\":6131:6132   */\n      0x00\n        /* \"#utility.yul\":6128:6129   */\n      dup1\n        /* \"#utility.yul\":6121:6133   */\n      revert\n        /* \"#utility.yul\":6073:6135   */\n    tag_252:\n        /* \"#utility.yul\":6021:6141   */\n      pop\n      jump\t// out\n        /* \"#utility.yul\":6147:6284   */\n    tag_146:\n        /* \"#utility.yul\":6192:6197   */\n      0x00\n        /* \"#utility.yul\":6230:6236   */\n      dup2\n        /* \"#utility.yul\":6217:6237   */\n      calldataload\n        /* \"#utility.yul\":6208:6237   */\n      swap1\n      pop\n        /* \"#utility.yul\":6246:6278   */\n      tag_254\n        /* \"#utility.yul\":6272:6277   */\n      dup2\n        /* \"#utility.yul\":6246:6278   */\n      tag_145\n      jump\t// in\n    tag_254:\n        /* \"#utility.yul\":6147:6284   */\n      swap3\n      swap2\n      pop\n      pop\n      jump\t// out\n        /* \"#utility.yul\":6290:6617   */\n    tag_29:\n        /* \"#utility.yul\":6348:6354   */\n      0x00\n        /* \"#utility.yul\":6397:6399   */\n      0x20\n        /* \"#utility.yul\":6385:6394   */\n      dup3\n        /* \"#utility.yul\":6376:6383   */\n      dup5\n        /* \"#utility.yul\":6372:6395   */\n      sub\n        /* \"#utility.yul\":6368:6400   */\n      slt\n        /* \"#utility.yul\":6365:6484   */\n      iszero\n      tag_256\n      jumpi\n        /* \"#utility.yul\":6403:6482   */\n      tag_257\n      tag_123\n      jump\t// in\n    tag_257:\n        /* \"#utility.yul\":6365:6484   */\n    tag_256:\n        /* \"#utility.yul\":6523:6524   */\n      0x00\n        /* \"#utility.yul\":6548:6600   */\n      tag_258\n        /* \"#utility.yul\":6592:6599   */\n      dup5\n        /* \"#utility.yul\":6583:6589   */\n      dup3\n        /* \"#utility.yul\":6572:6581   */\n      dup6\n        /* \"#utility.yul\":6568:6590   */\n      add\n        /* \"#utility.yul\":6548:6600   */\n      tag_146\n      jump\t// in\n    tag_258:\n        /* \"#utility.yul\":6538:6600   */\n      swap2\n      pop\n        /* \"#utility.yul\":6494:6610   */\n      pop\n        /* \"#utility.yul\":6290:6617   */\n      swap3\n      swap2\n      pop\n      pop\n      jump\t// out\n        /* \"#utility.yul\":6623:6738   */\n    tag_147:\n        /* \"#utility.yul\":6708:6731   */\n      tag_260\n        /* \"#utility.yul\":6725:6730   */\n      dup2\n        /* \"#utility.yul\":6708:6731   */\n      tag_144\n      jump\t// in\n    tag_260:\n        /* \"#utility.yul\":6703:6706   */\n      dup3\n        /* \"#utility.yul\":6696:6732   */\n      mstore\n        /* \"#utility.yul\":6623:6738   */\n      pop\n      pop\n      jump\t// out\n        /* \"#utility.yul\":6744:6962   */\n    tag_37:\n        /* \"#utility.yul\":6835:6839   */\n      0x00\n        /* \"#utility.yul\":6873:6875   */\n      0x20\n        /* \"#utility.yul\":6862:6871   */\n      dup3\n        /* \"#utility.yul\":6858:6876   */\n      add\n        /* \"#utility.yul\":6850:6876   */\n      swap1\n      pop\n        /* \"#utility.yul\":6886:6955   */\n      tag_262\n        /* \"#utility.yul\":6952:6953   */\n      0x00\n        /* \"#utility.yul\":6941:6950   */\n      dup4\n        /* \"#utility.yul\":6937:6954   */\n      add\n        /* \"#utility.yul\":6928:6934   */\n      dup5\n        /* \"#utility.yul\":6886:6955   */\n      tag_147\n      jump\t// in\n    tag_262:\n        /* \"#utility.yul\":6744:6962   */\n      swap3\n      swap2\n      pop\n      pop\n      jump\t// out\n        /* \"#utility.yul\":6968:7085   */\n    tag_148:\n        /* \"#utility.yul\":7077:7078   */\n      0x00\n        /* \"#utility.yul\":7074:7075   */\n      dup1\n        /* \"#utility.yul\":7067:7079   */\n      revert\n        /* \"#utility.yul\":7091:7208   */\n    tag_149:\n        /* \"#utility.yul\":7200:7201   */\n      0x00\n        /* \"#utility.yul\":7197:7198   */\n      dup1\n        /* \"#utility.yul\":7190:7202   */\n      revert\n        /* \"#utility.yul\":7214:7394   */\n    tag_150:\n        /* \"#utility.yul\":7262:7339   */\n      0x4e487b7100000000000000000000000000000000000000000000000000000000\n        /* \"#utility.yul\":7259:7260   */\n      0x00\n        /* \"#utility.yul\":7252:7340   */\n      mstore\n        /* \"#utility.yul\":7359:7363   */\n      0x41\n        /* \"#utility.yul\":7356:7357   */\n      0x04\n        /* \"#utility.yul\":7349:7364   */\n      mstore\n        /* \"#utility.yul\":7383:7387   */\n      0x24\n        /* \"#utility.yul\":7380:7381   */\n      0x00\n        /* \"#utility.yul\":7373:7388   */\n      revert\n        /* \"#utility.yul\":7400:7681   */\n    tag_151:\n        /* \"#utility.yul\":7483:7510   */\n      tag_267\n        /* \"#utility.yul\":7505:7509   */\n      dup3\n        /* \"#utility.yul\":7483:7510   */\n      tag_137\n      jump\t// in\n    tag_267:\n        /* \"#utility.yul\":7475:7481   */\n      dup2\n        /* \"#utility.yul\":7471:7511   */\n      add\n        /* \"#utility.yul\":7613:7619   */\n      dup2\n        /* \"#utility.yul\":7601:7611   */\n      dup2\n        /* \"#utility.yul\":7598:7620   */\n      lt\n        /* \"#utility.yul\":7577:7595   */\n      0xffffffffffffffff\n        /* \"#utility.yul\":7565:7575   */\n      dup3\n        /* \"#utility.yul\":7562:7596   */\n      gt\n        /* \"#utility.yul\":7559:7621   */\n      or\n        /* \"#utility.yul\":7556:7644   */\n      iszero\n      tag_268\n      jumpi\n        /* \"#utility.yul\":7624:7642   */\n      tag_269\n      tag_150\n      jump\t// in\n    tag_269:\n        /* \"#utility.yul\":7556:7644   */\n    tag_268:\n        /* \"#utility.yul\":7664:7674   */\n      dup1\n        /* \"#utility.yul\":7660:7662   */\n      0x40\n        /* \"#utility.yul\":7653:7675   */\n      mstore\n        /* \"#utility.yul\":7443:7681   */\n      pop\n        /* \"#utility.yul\":7400:7681   */\n      pop\n      pop\n      jump\t// out\n        /* \"#utility.yul\":7687:7816   */\n    tag_152:\n        /* \"#utility.yul\":7721:7727   */\n      0x00\n        /* \"#utility.yul\":7748:7768   */\n      tag_271\n      tag_122\n      jump\t// in\n    tag_271:\n        /* \"#utility.yul\":7738:7768   */\n      swap1\n      pop\n        /* \"#utility.yul\":7777:7810   */\n      tag_272\n        /* \"#utility.yul\":7805:7809   */\n      dup3\n        /* \"#utility.yul\":7797:7803   */\n      dup3\n        /* \"#utility.yul\":7777:7810   */\n      tag_151\n      jump\t// in\n    tag_272:\n        /* \"#utility.yul\":7687:7816   */\n      swap2\n      swap1\n      pop\n      jump\t// out\n        /* \"#utility.yul\":7822:8130   */\n    tag_153:\n        /* \"#utility.yul\":7884:7888   */\n      0x00\n        /* \"#utility.yul\":7974:7992   */\n      0xffffffffffffffff\n        /* \"#utility.yul\":7966:7972   */\n      dup3\n        /* \"#utility.yul\":7963:7993   */\n      gt\n        /* \"#utility.yul\":7960:8016   */\n      iszero\n      tag_274\n      jumpi\n        /* \"#utility.yul\":7996:8014   */\n      tag_275\n      tag_150\n      jump\t// in\n    tag_275:\n        /* \"#utility.yul\":7960:8016   */\n    tag_274:\n        /* \"#utility.yul\":8034:8063   */\n      tag_276\n        /* \"#utility.yul\":8056:8062   */\n      dup3\n        /* \"#utility.yul\":8034:8063   */\n      tag_137\n      jump\t// in\n    tag_276:\n        /* \"#utility.yul\":8026:8063   */\n      swap1\n      pop\n        /* \"#utility.yul\":8118:8122   */\n      0x20\n        /* \"#utility.yul\":8112:8116   */\n      dup2\n        /* \"#utility.yul\":8108:8123   */\n      add\n        /* \"#utility.yul\":8100:8123   */\n      swap1\n      pop\n        /* \"#utility.yul\":7822:8130   */\n      swap2\n      swap1\n      pop\n      jump\t// out\n        /* \"#utility.yul\":8136:8284   */\n    tag_154:\n        /* \"#utility.yul\":8234:8240   */\n      dup3\n        /* \"#utility.yul\":8229:8232   */\n      dup2\n        /* \"#utility.yul\":8224:8227   */\n      dup4\n        /* \"#utility.yul\":8211:8241   */\n      calldatacopy\n        /* \"#utility.yul\":8275:8276   */\n      0x00\n        /* \"#utility.yul\":8266:8272   */\n      dup4\n        /* \"#utility.yul\":8261:8264   */\n      dup4\n        /* \"#utility.yul\":8257:8273   */\n      add\n        /* \"#utility.yul\":8250:8277   */\n      mstore\n        /* \"#utility.yul\":8136:8284   */\n      pop\n      pop\n      pop\n      jump\t// out\n        /* \"#utility.yul\":8290:8715   */\n    tag_155:\n        /* \"#utility.yul\":8368:8373   */\n      0x00\n        /* \"#utility.yul\":8393:8459   */\n      tag_279\n        /* \"#utility.yul\":8409:8458   */\n      tag_280\n        /* \"#utility.yul\":8451:8457   */\n      dup5\n        /* \"#utility.yul\":8409:8458   */\n      tag_153\n      jump\t// in\n    tag_280:\n        /* \"#utility.yul\":8393:8459   */\n      tag_152\n      jump\t// in\n    tag_279:\n        /* \"#utility.yul\":8384:8459   */\n      swap1\n      pop\n        /* \"#utility.yul\":8482:8488   */\n      dup3\n        /* \"#utility.yul\":8475:8480   */\n      dup2\n        /* \"#utility.yul\":8468:8489   */\n      mstore\n        /* \"#utility.yul\":8520:8524   */\n      0x20\n        /* \"#utility.yul\":8513:8518   */\n      dup2\n        /* \"#utility.yul\":8509:8525   */\n      add\n        /* \"#utility.yul\":8558:8561   */\n      dup5\n        /* \"#utility.yul\":8549:8555   */\n      dup5\n        /* \"#utility.yul\":8544:8547   */\n      dup5\n        /* \"#utility.yul\":8540:8556   */\n      add\n        /* \"#utility.yul\":8537:8562   */\n      gt\n        /* \"#utility.yul\":8534:8646   */\n      iszero\n      tag_281\n      jumpi\n        /* \"#utility.yul\":8565:8644   */\n      tag_282\n      tag_149\n      jump\t// in\n    tag_282:\n        /* \"#utility.yul\":8534:8646   */\n    tag_281:\n        /* \"#utility.yul\":8655:8709   */\n      tag_283\n        /* \"#utility.yul\":8702:8708   */\n      dup5\n        /* \"#utility.yul\":8697:8700   */\n      dup3\n        /* \"#utility.yul\":8692:8695   */\n      dup6\n        /* \"#utility.yul\":8655:8709   */\n      tag_154\n      jump\t// in\n    tag_283:\n        /* \"#utility.yul\":8374:8715   */\n      pop\n        /* \"#utility.yul\":8290:8715   */\n      swap4\n      swap3\n      pop\n      pop\n      pop\n      jump\t// out\n        /* \"#utility.yul\":8735:9075   */\n    tag_156:\n        /* \"#utility.yul\":8791:8796   */\n      0x00\n        /* \"#utility.yul\":8840:8843   */\n      dup3\n        /* \"#utility.yul\":8833:8837   */\n      0x1f\n        /* \"#utility.yul\":8825:8831   */\n      dup4\n        /* \"#utility.yul\":8821:8838   */\n      add\n        /* \"#utility.yul\":8817:8844   */\n      slt\n        /* \"#utility.yul\":8807:8929   */\n      tag_285\n      jumpi\n        /* \"#utility.yul\":8848:8927   */\n      tag_286\n      tag_148\n      jump\t// in\n    tag_286:\n        /* \"#utility.yul\":8807:8929   */\n    tag_285:\n        /* \"#utility.yul\":8965:8971   */\n      dup2\n        /* \"#utility.yul\":8952:8972   */\n      calldataload\n        /* \"#utility.yul\":8990:9069   */\n      tag_287\n        /* \"#utility.yul\":9065:9068   */\n      dup5\n        /* \"#utility.yul\":9057:9063   */\n      dup3\n        /* \"#utility.yul\":9050:9054   */\n      0x20\n        /* \"#utility.yul\":9042:9048   */\n      dup7\n        /* \"#utility.yul\":9038:9055   */\n      add\n        /* \"#utility.yul\":8990:9069   */\n      tag_155\n      jump\t// in\n    tag_287:\n        /* \"#utility.yul\":8981:9069   */\n      swap2\n      pop\n        /* \"#utility.yul\":8797:9075   */\n      pop\n        /* \"#utility.yul\":8735:9075   */\n      swap3\n      swap2\n      pop\n      pop\n      jump\t// out\n        /* \"#utility.yul\":9081:9590   */\n    tag_40:\n        /* \"#utility.yul\":9150:9156   */\n      0x00\n        /* \"#utility.yul\":9199:9201   */\n      0x20\n        /* \"#utility.yul\":9187:9196   */\n      dup3\n        /* \"#utility.yul\":9178:9185   */\n      dup5\n        /* \"#utility.yul\":9174:9197   */\n      sub\n        /* \"#utility.yul\":9170:9202   */\n      slt\n        /* \"#utility.yul\":9167:9286   */\n      iszero\n      tag_289\n      jumpi\n        /* \"#utility.yul\":9205:9284   */\n      tag_290\n      tag_123\n      jump\t// in\n    tag_290:\n        /* \"#utility.yul\":9167:9286   */\n    tag_289:\n        /* \"#utility.yul\":9353:9354   */\n      0x00\n        /* \"#utility.yul\":9342:9351   */\n      dup3\n        /* \"#utility.yul\":9338:9355   */\n      add\n        /* \"#utility.yul\":9325:9356   */\n      calldataload\n        /* \"#utility.yul\":9383:9401   */\n      0xffffffffffffffff\n        /* \"#utility.yul\":9375:9381   */\n      dup2\n        /* \"#utility.yul\":9372:9402   */\n      gt\n        /* \"#utility.yul\":9369:9486   */\n      iszero\n      tag_291\n      jumpi\n        /* \"#utility.yul\":9405:9484   */\n      tag_292\n      tag_124\n      jump\t// in\n    tag_292:\n        /* \"#utility.yul\":9369:9486   */\n    tag_291:\n        /* \"#utility.yul\":9510:9573   */\n      tag_293\n        /* \"#utility.yul\":9565:9572   */\n      dup5\n        /* \"#utility.yul\":9556:9562   */\n      dup3\n        /* \"#utility.yul\":9545:9554   */\n      dup6\n        /* \"#utility.yul\":9541:9563   */\n      add\n        /* \"#utility.yul\":9510:9573   */\n      tag_156\n      jump\t// in\n    tag_293:\n        /* \"#utility.yul\":9500:9573   */\n      swap2\n      pop\n        /* \"#utility.yul\":9296:9583   */\n      pop\n        /* \"#utility.yul\":9081:9590   */\n      swap3\n      swap2\n      pop\n      pop\n      jump\t// out\n        /* \"#utility.yul\":9596:9818   */\n    tag_45:\n        /* \"#utility.yul\":9689:9693   */\n      0x00\n        /* \"#utility.yul\":9727:9729   */\n      0x20\n        /* \"#utility.yul\":9716:9725   */\n      dup3\n        /* \"#utility.yul\":9712:9730   */\n      add\n        /* \"#utility.yul\":9704:9730   */\n      swap1\n      pop\n        /* \"#utility.yul\":9740:9811   */\n      tag_295\n        /* \"#utility.yul\":9808:9809   */\n      0x00\n        /* \"#utility.yul\":9797:9806   */\n      dup4\n        /* \"#utility.yul\":9793:9810   */\n      add\n        /* \"#utility.yul\":9784:9790   */\n      dup5\n        /* \"#utility.yul\":9740:9811   */\n      tag_133\n      jump\t// in\n    tag_295:\n        /* \"#utility.yul\":9596:9818   */\n      swap3\n      swap2\n      pop\n      pop\n      jump\t// out\n        /* \"#utility.yul\":9824:10153   */\n    tag_48:\n        /* \"#utility.yul\":9883:9889   */\n      0x00\n        /* \"#utility.yul\":9932:9934   */\n      0x20\n        /* \"#utility.yul\":9920:9929   */\n      dup3\n        /* \"#utility.yul\":9911:9918   */\n      dup5\n        /* \"#utility.yul\":9907:9930   */\n      sub\n        /* \"#utility.yul\":9903:9935   */\n      slt\n        /* \"#utility.yul\":9900:10019   */\n      iszero\n      tag_297\n      jumpi\n        /* \"#utility.yul\":9938:10017   */\n      tag_298\n      tag_123\n      jump\t// in\n    tag_298:\n        /* \"#utility.yul\":9900:10019   */\n    tag_297:\n        /* \"#utility.yul\":10058:10059   */\n      0x00\n        /* \"#utility.yul\":10083:10136   */\n      tag_299\n        /* \"#utility.yul\":10128:10135   */\n      dup5\n        /* \"#utility.yul\":10119:10125   */\n      dup3\n        /* \"#utility.yul\":10108:10117   */\n      dup6\n        /* \"#utility.yul\":10104:10126   */\n      add\n        /* \"#utility.yul\":10083:10136   */\n      tag_128\n      jump\t// in\n    tag_299:\n        /* \"#utility.yul\":10073:10136   */\n      swap2\n      pop\n        /* \"#utility.yul\":10029:10146   */\n      pop\n        /* \"#utility.yul\":9824:10153   */\n      swap3\n      swap2\n      pop\n      pop\n      jump\t// out\n        /* \"#utility.yul\":10159:10294   */\n    tag_157:\n        /* \"#utility.yul\":10247:10253   */\n      0x00\n        /* \"#utility.yul\":10281:10286   */\n      dup2\n        /* \"#utility.yul\":10275:10287   */\n      mload\n        /* \"#utility.yul\":10265:10287   */\n      swap1\n      pop\n        /* \"#utility.yul\":10159:10294   */\n      swap2\n      swap1\n      pop\n      jump\t// out\n        /* \"#utility.yul\":10300:10505   */\n    tag_158:\n        /* \"#utility.yul\":10420:10431   */\n      0x00\n        /* \"#utility.yul\":10454:10460   */\n      dup3\n        /* \"#utility.yul\":10449:10452   */\n      dup3\n        /* \"#utility.yul\":10442:10461   */\n      mstore\n        /* \"#utility.yul\":10494:10498   */\n      0x20\n        /* \"#utility.yul\":10489:10492   */\n      dup3\n        /* \"#utility.yul\":10485:10499   */\n      add\n        /* \"#utility.yul\":10470:10499   */\n      swap1\n      pop\n        /* \"#utility.yul\":10300:10505   */\n      swap3\n      swap2\n      pop\n      pop\n      jump\t// out\n        /* \"#utility.yul\":10511:10664   */\n    tag_159:\n        /* \"#utility.yul\":10599:10603   */\n      0x00\n        /* \"#utility.yul\":10622:10625   */\n      dup2\n        /* \"#utility.yul\":10614:10625   */\n      swap1\n      pop\n        /* \"#utility.yul\":10652:10656   */\n      0x20\n        /* \"#utility.yul\":10647:10650   */\n      dup3\n        /* \"#utility.yul\":10643:10657   */\n      add\n        /* \"#utility.yul\":10635:10657   */\n      swap1\n      pop\n        /* \"#utility.yul\":10511:10664   */\n      swap2\n      swap1\n      pop\n      jump\t// out\n        /* \"#utility.yul\":10740:11859   */\n    tag_160:\n        /* \"#utility.yul\":10841:10844   */\n      0x00\n        /* \"#utility.yul\":10877:10881   */\n      0xa0\n        /* \"#utility.yul\":10872:10875   */\n      dup4\n        /* \"#utility.yul\":10868:10882   */\n      add\n        /* \"#utility.yul\":10962:10966   */\n      0x00\n        /* \"#utility.yul\":10955:10960   */\n      dup4\n        /* \"#utility.yul\":10951:10967   */\n      add\n        /* \"#utility.yul\":10945:10968   */\n      mload\n        /* \"#utility.yul\":10981:11044   */\n      tag_304\n        /* \"#utility.yul\":11038:11042   */\n      0x00\n        /* \"#utility.yul\":11033:11036   */\n      dup7\n        /* \"#utility.yul\":11029:11043   */\n      add\n        /* \"#utility.yul\":11015:11027   */\n      dup3\n        /* \"#utility.yul\":10981:11044   */\n      tag_139\n      jump\t// in\n    tag_304:\n        /* \"#utility.yul\":10892:11054   */\n      pop\n        /* \"#utility.yul\":11138:11142   */\n      0x20\n        /* \"#utility.yul\":11131:11136   */\n      dup4\n        /* \"#utility.yul\":11127:11143   */\n      add\n        /* \"#utility.yul\":11121:11144   */\n      mload\n        /* \"#utility.yul\":11157:11220   */\n      tag_305\n        /* \"#utility.yul\":11214:11218   */\n      0x20\n        /* \"#utility.yul\":11209:11212   */\n      dup7\n        /* \"#utility.yul\":11205:11219   */\n      add\n        /* \"#utility.yul\":11191:11203   */\n      dup3\n        /* \"#utility.yul\":11157:11220   */\n      tag_140\n      jump\t// in\n    tag_305:\n        /* \"#utility.yul\":11064:11230   */\n      pop\n        /* \"#utility.yul\":11315:11319   */\n      0x40\n        /* \"#utility.yul\":11308:11313   */\n      dup4\n        /* \"#utility.yul\":11304:11320   */\n      add\n        /* \"#utility.yul\":11298:11321   */\n      mload\n        /* \"#utility.yul\":11368:11371   */\n      dup5\n        /* \"#utility.yul\":11362:11366   */\n      dup3\n        /* \"#utility.yul\":11358:11372   */\n      sub\n        /* \"#utility.yul\":11351:11355   */\n      0x40\n        /* \"#utility.yul\":11346:11349   */\n      dup7\n        /* \"#utility.yul\":11342:11356   */\n      add\n        /* \"#utility.yul\":11335:11373   */\n      mstore\n        /* \"#utility.yul\":11394:11467   */\n      tag_306\n        /* \"#utility.yul\":11462:11466   */\n      dup3\n        /* \"#utility.yul\":11448:11460   */\n      dup3\n        /* \"#utility.yul\":11394:11467   */\n      tag_142\n      jump\t// in\n    tag_306:\n        /* \"#utility.yul\":11386:11467   */\n      swap2\n      pop\n        /* \"#utility.yul\":11240:11478   */\n      pop\n        /* \"#utility.yul\":11565:11569   */\n      0x60\n        /* \"#utility.yul\":11558:11563   */\n      dup4\n        /* \"#utility.yul\":11554:11570   */\n      add\n        /* \"#utility.yul\":11548:11571   */\n      mload\n        /* \"#utility.yul\":11584:11647   */\n      tag_307\n        /* \"#utility.yul\":11641:11645   */\n      0x60\n        /* \"#utility.yul\":11636:11639   */\n      dup7\n        /* \"#utility.yul\":11632:11646   */\n      add\n        /* \"#utility.yul\":11618:11630   */\n      dup3\n        /* \"#utility.yul\":11584:11647   */\n      tag_139\n      jump\t// in\n    tag_307:\n        /* \"#utility.yul\":11488:11657   */\n      pop\n        /* \"#utility.yul\":11740:11744   */\n      0x80\n        /* \"#utility.yul\":11733:11738   */\n      dup4\n        /* \"#utility.yul\":11729:11745   */\n      add\n        /* \"#utility.yul\":11723:11746   */\n      mload\n        /* \"#utility.yul\":11759:11822   */\n      tag_308\n        /* \"#utility.yul\":11816:11820   */\n      0x80\n        /* \"#utility.yul\":11811:11814   */\n      dup7\n        /* \"#utility.yul\":11807:11821   */\n      add\n        /* \"#utility.yul\":11793:11805   */\n      dup3\n        /* \"#utility.yul\":11759:11822   */\n      tag_139\n      jump\t// in\n    tag_308:\n        /* \"#utility.yul\":11667:11832   */\n      pop\n        /* \"#utility.yul\":11849:11853   */\n      dup1\n        /* \"#utility.yul\":11842:11853   */\n      swap2\n      pop\n        /* \"#utility.yul\":10846:11859   */\n      pop\n        /* \"#utility.yul\":10740:11859   */\n      swap3\n      swap2\n      pop\n      pop\n      jump\t// out\n        /* \"#utility.yul\":11865:12105   */\n    tag_161:\n        /* \"#utility.yul\":11976:11986   */\n      0x00\n        /* \"#utility.yul\":12011:12099   */\n      tag_310\n        /* \"#utility.yul\":12095:12098   */\n      dup4\n        /* \"#utility.yul\":12087:12093   */\n      dup4\n        /* \"#utility.yul\":12011:12099   */\n      tag_160\n      jump\t// in\n    tag_310:\n        /* \"#utility.yul\":11997:12099   */\n      swap1\n      pop\n        /* \"#utility.yul\":11865:12105   */\n      swap3\n      swap2\n      pop\n      pop\n      jump\t// out\n        /* \"#utility.yul\":12111:12245   */\n    tag_162:\n        /* \"#utility.yul\":12202:12206   */\n      0x00\n        /* \"#utility.yul\":12234:12238   */\n      0x20\n        /* \"#utility.yul\":12229:12232   */\n      dup3\n        /* \"#utility.yul\":12225:12239   */\n      add\n        /* \"#utility.yul\":12217:12239   */\n      swap1\n      pop\n        /* \"#utility.yul\":12111:12245   */\n      swap2\n      swap1\n      pop\n      jump\t// out\n        /* \"#utility.yul\":12325:13404   */\n    tag_163:\n        /* \"#utility.yul\":12486:12489   */\n      0x00\n        /* \"#utility.yul\":12515:12590   */\n      tag_313\n        /* \"#utility.yul\":12584:12589   */\n      dup3\n        /* \"#utility.yul\":12515:12590   */\n      tag_157\n      jump\t// in\n    tag_313:\n        /* \"#utility.yul\":12606:12713   */\n      tag_314\n        /* \"#utility.yul\":12706:12712   */\n      dup2\n        /* \"#utility.yul\":12701:12704   */\n      dup6\n        /* \"#utility.yul\":12606:12713   */\n      tag_158\n      jump\t// in\n    tag_314:\n        /* \"#utility.yul\":12599:12713   */\n      swap4\n      pop\n        /* \"#utility.yul\":12739:12742   */\n      dup4\n        /* \"#utility.yul\":12784:12788   */\n      0x20\n        /* \"#utility.yul\":12776:12782   */\n      dup3\n        /* \"#utility.yul\":12772:12789   */\n      mul\n        /* \"#utility.yul\":12767:12770   */\n      dup6\n        /* \"#utility.yul\":12763:12790   */\n      add\n        /* \"#utility.yul\":12814:12891   */\n      tag_315\n        /* \"#utility.yul\":12885:12890   */\n      dup6\n        /* \"#utility.yul\":12814:12891   */\n      tag_159\n      jump\t// in\n    tag_315:\n        /* \"#utility.yul\":12914:12921   */\n      dup1\n        /* \"#utility.yul\":12945:12946   */\n      0x00\n        /* \"#utility.yul\":12930:13359   */\n    tag_316:\n        /* \"#utility.yul\":12955:12961   */\n      dup6\n        /* \"#utility.yul\":12952:12953   */\n      dup2\n        /* \"#utility.yul\":12949:12962   */\n      lt\n        /* \"#utility.yul\":12930:13359   */\n      iszero\n      tag_318\n      jumpi\n        /* \"#utility.yul\":13026:13035   */\n      dup5\n        /* \"#utility.yul\":13020:13024   */\n      dup5\n        /* \"#utility.yul\":13016:13036   */\n      sub\n        /* \"#utility.yul\":13011:13014   */\n      dup10\n        /* \"#utility.yul\":13004:13037   */\n      mstore\n        /* \"#utility.yul\":13077:13083   */\n      dup2\n        /* \"#utility.yul\":13071:13084   */\n      mload\n        /* \"#utility.yul\":13105:13211   */\n      tag_319\n        /* \"#utility.yul\":13206:13210   */\n      dup6\n        /* \"#utility.yul\":13191:13204   */\n      dup3\n        /* \"#utility.yul\":13105:13211   */\n      tag_161\n      jump\t// in\n    tag_319:\n        /* \"#utility.yul\":13097:13211   */\n      swap5\n      pop\n        /* \"#utility.yul\":13234:13315   */\n      tag_320\n        /* \"#utility.yul\":13308:13314   */\n      dup4\n        /* \"#utility.yul\":13234:13315   */\n      tag_162\n      jump\t// in\n    tag_320:\n        /* \"#utility.yul\":13224:13315   */\n      swap3\n      pop\n        /* \"#utility.yul\":13344:13348   */\n      0x20\n        /* \"#utility.yul\":13339:13342   */\n      dup11\n        /* \"#utility.yul\":13335:13349   */\n      add\n        /* \"#utility.yul\":13328:13349   */\n      swap10\n      pop\n        /* \"#utility.yul\":12990:13359   */\n      pop\n        /* \"#utility.yul\":12977:12978   */\n      0x01\n        /* \"#utility.yul\":12974:12975   */\n      dup2\n        /* \"#utility.yul\":12970:12979   */\n      add\n        /* \"#utility.yul\":12965:12979   */\n      swap1\n      pop\n        /* \"#utility.yul\":12930:13359   */\n      jump(tag_316)\n    tag_318:\n        /* \"#utility.yul\":12934:12948   */\n      pop\n        /* \"#utility.yul\":13375:13379   */\n      dup3\n        /* \"#utility.yul\":13368:13379   */\n      swap8\n      pop\n        /* \"#utility.yul\":13395:13398   */\n      dup8\n        /* \"#utility.yul\":13388:13398   */\n      swap6\n      pop\n        /* \"#utility.yul\":12491:13404   */\n      pop\n      pop\n      pop\n      pop\n      pop\n        /* \"#utility.yul\":12325:13404   */\n      swap3\n      swap2\n      pop\n      pop\n      jump\t// out\n        /* \"#utility.yul\":13410:13867   */\n    tag_51:\n        /* \"#utility.yul\":13595:13599   */\n      0x00\n        /* \"#utility.yul\":13633:13635   */\n      0x20\n        /* \"#utility.yul\":13622:13631   */\n      dup3\n        /* \"#utility.yul\":13618:13636   */\n      add\n        /* \"#utility.yul\":13610:13636   */\n      swap1\n      pop\n        /* \"#utility.yul\":13682:13691   */\n      dup2\n        /* \"#utility.yul\":13676:13680   */\n      dup2\n        /* \"#utility.yul\":13672:13692   */\n      sub\n        /* \"#utility.yul\":13668:13669   */\n      0x00\n        /* \"#utility.yul\":13657:13666   */\n      dup4\n        /* \"#utility.yul\":13653:13670   */\n      add\n        /* \"#utility.yul\":13646:13693   */\n      mstore\n        /* \"#utility.yul\":13710:13860   */\n      tag_322\n        /* \"#utility.yul\":13855:13859   */\n      dup2\n        /* \"#utility.yul\":13846:13852   */\n      dup5\n        /* \"#utility.yul\":13710:13860   */\n      tag_163\n      jump\t// in\n    tag_322:\n        /* \"#utility.yul\":13702:13860   */\n      swap1\n      pop\n        /* \"#utility.yul\":13410:13867   */\n      swap3\n      swap2\n      pop\n      pop\n      jump\t// out\n        /* \"#utility.yul\":13873:14053   */\n    tag_164:\n        /* \"#utility.yul\":13921:13998   */\n      0x4e487b7100000000000000000000000000000000000000000000000000000000\n        /* \"#utility.yul\":13918:13919   */\n      0x00\n        /* \"#utility.yul\":13911:13999   */\n      mstore\n        /* \"#utility.yul\":14018:14022   */\n      0x22\n        /* \"#utility.yul\":14015:14016   */\n      0x04\n        /* \"#utility.yul\":14008:14023   */\n      mstore\n        /* \"#utility.yul\":14042:14046   */\n      0x24\n        /* \"#utility.yul\":14039:14040   */\n      0x00\n        /* \"#utility.yul\":14032:14047   */\n      revert\n        /* \"#utility.yul\":14059:14379   */\n    tag_55:\n        /* \"#utility.yul\":14103:14109   */\n      0x00\n        /* \"#utility.yul\":14140:14141   */\n      0x02\n        /* \"#utility.yul\":14134:14138   */\n      dup3\n        /* \"#utility.yul\":14130:14142   */\n      div\n        /* \"#utility.yul\":14120:14142   */\n      swap1\n      pop\n        /* \"#utility.yul\":14187:14188   */\n      0x01\n        /* \"#utility.yul\":14181:14185   */\n      dup3\n        /* \"#utility.yul\":14177:14189   */\n      and\n        /* \"#utility.yul\":14208:14226   */\n      dup1\n        /* \"#utility.yul\":14198:14279   */\n      tag_325\n      jumpi\n        /* \"#utility.yul\":14264:14268   */\n      0x7f\n        /* \"#utility.yul\":14256:14262   */\n      dup3\n        /* \"#utility.yul\":14252:14269   */\n      and\n        /* \"#utility.yul\":14242:14269   */\n      swap2\n      pop\n        /* \"#utility.yul\":14198:14279   */\n    tag_325:\n        /* \"#utility.yul\":14326:14328   */\n      0x20\n        /* \"#utility.yul\":14318:14324   */\n      dup3\n        /* \"#utility.yul\":14315:14329   */\n      lt\n        /* \"#utility.yul\":14295:14313   */\n      dup2\n        /* \"#utility.yul\":14292:14330   */\n      sub\n        /* \"#utility.yul\":14289:14373   */\n      tag_326\n      jumpi\n        /* \"#utility.yul\":14345:14363   */\n      tag_327\n      tag_164\n      jump\t// in\n    tag_327:\n        /* \"#utility.yul\":14289:14373   */\n    tag_326:\n        /* \"#utility.yul\":14110:14379   */\n      pop\n        /* \"#utility.yul\":14059:14379   */\n      swap2\n      swap1\n      pop\n      jump\t// out\n        /* \"#utility.yul\":14385:14565   */\n    tag_65:\n        /* \"#utility.yul\":14433:14510   */\n      0x4e487b7100000000000000000000000000000000000000000000000000000000\n        /* \"#utility.yul\":14430:14431   */\n      0x00\n        /* \"#utility.yul\":14423:14511   */\n      mstore\n        /* \"#utility.yul\":14530:14534   */\n      0x32\n        /* \"#utility.yul\":14527:14528   */\n      0x04\n        /* \"#utility.yul\":14520:14535   */\n      mstore\n        /* \"#utility.yul\":14554:14558   */\n      0x24\n        /* \"#utility.yul\":14551:14552   */\n      0x00\n        /* \"#utility.yul\":14544:14559   */\n      revert\n        /* \"#utility.yul\":14571:14740   */\n    tag_165:\n        /* \"#utility.yul\":14711:14732   */\n      0x494e56414c494420545745455420494e44455800000000000000000000000000\n        /* \"#utility.yul\":14707:14708   */\n      0x00\n        /* \"#utility.yul\":14699:14705   */\n      dup3\n        /* \"#utility.yul\":14695:14709   */\n      add\n        /* \"#utility.yul\":14688:14733   */\n      mstore\n        /* \"#utility.yul\":14571:14740   */\n      pop\n      jump\t// out\n        /* \"#utility.yul\":14746:15112   */\n    tag_166:\n        /* \"#utility.yul\":14888:14891   */\n      0x00\n        /* \"#utility.yul\":14909:14976   */\n      tag_331\n        /* \"#utility.yul\":14973:14975   */\n      0x13\n        /* \"#utility.yul\":14968:14971   */\n      dup4\n        /* \"#utility.yul\":14909:14976   */\n      tag_135\n      jump\t// in\n    tag_331:\n        /* \"#utility.yul\":14902:14976   */\n      swap2\n      pop\n        /* \"#utility.yul\":14985:15078   */\n      tag_332\n        /* \"#utility.yul\":15074:15077   */\n      dup3\n        /* \"#utility.yul\":14985:15078   */\n      tag_165\n      jump\t// in\n    tag_332:\n        /* \"#utility.yul\":15103:15105   */\n      0x20\n        /* \"#utility.yul\":15098:15101   */\n      dup3\n        /* \"#utility.yul\":15094:15106   */\n      add\n        /* \"#utility.yul\":15087:15106   */\n      swap1\n      pop\n        /* \"#utility.yul\":14746:15112   */\n      swap2\n      swap1\n      pop\n      jump\t// out\n        /* \"#utility.yul\":15118:15537   */\n    tag_78:\n        /* \"#utility.yul\":15284:15288   */\n      0x00\n        /* \"#utility.yul\":15322:15324   */\n      0x20\n        /* \"#utility.yul\":15311:15320   */\n      dup3\n        /* \"#utility.yul\":15307:15325   */\n      add\n        /* \"#utility.yul\":15299:15325   */\n      swap1\n      pop\n        /* \"#utility.yul\":15371:15380   */\n      dup2\n        /* \"#utility.yul\":15365:15369   */\n      dup2\n        /* \"#utility.yul\":15361:15381   */\n      sub\n        /* \"#utility.yul\":15357:15358   */\n      0x00\n        /* \"#utility.yul\":15346:15355   */\n      dup4\n        /* \"#utility.yul\":15342:15359   */\n      add\n        /* \"#utility.yul\":15335:15382   */\n      mstore\n        /* \"#utility.yul\":15399:15530   */\n      tag_334\n        /* \"#utility.yul\":15525:15529   */\n      dup2\n        /* \"#utility.yul\":15399:15530   */\n      tag_166\n      jump\t// in\n    tag_334:\n        /* \"#utility.yul\":15391:15530   */\n      swap1\n      pop\n        /* \"#utility.yul\":15118:15537   */\n      swap2\n      swap1\n      pop\n      jump\t// out\n        /* \"#utility.yul\":15543:15711   */\n    tag_167:\n        /* \"#utility.yul\":15683:15703   */\n      0x545745455420484153204e4f204c494b45530000000000000000000000000000\n        /* \"#utility.yul\":15679:15680   */\n      0x00\n        /* \"#utility.yul\":15671:15677   */\n      dup3\n        /* \"#utility.yul\":15667:15681   */\n      add\n        /* \"#utility.yul\":15660:15704   */\n      mstore\n        /* \"#utility.yul\":15543:15711   */\n      pop\n      jump\t// out\n        /* \"#utility.yul\":15717:16083   */\n    tag_168:\n        /* \"#utility.yul\":15859:15862   */\n      0x00\n        /* \"#utility.yul\":15880:15947   */\n      tag_337\n        /* \"#utility.yul\":15944:15946   */\n      0x12\n        /* \"#utility.yul\":15939:15942   */\n      dup4\n        /* \"#utility.yul\":15880:15947   */\n      tag_135\n      jump\t// in\n    tag_337:\n        /* \"#utility.yul\":15873:15947   */\n      swap2\n      pop\n        /* \"#utility.yul\":15956:16049   */\n      tag_338\n        /* \"#utility.yul\":16045:16048   */\n      dup3\n        /* \"#utility.yul\":15956:16049   */\n      tag_167\n      jump\t// in\n    tag_338:\n        /* \"#utility.yul\":16074:16076   */\n      0x20\n        /* \"#utility.yul\":16069:16072   */\n      dup3\n        /* \"#utility.yul\":16065:16077   */\n      add\n        /* \"#utility.yul\":16058:16077   */\n      swap1\n      pop\n        /* \"#utility.yul\":15717:16083   */\n      swap2\n      swap1\n      pop\n      jump\t// out\n        /* \"#utility.yul\":16089:16508   */\n    tag_84:\n        /* \"#utility.yul\":16255:16259   */\n      0x00\n        /* \"#utility.yul\":16293:16295   */\n      0x20\n        /* \"#utility.yul\":16282:16291   */\n      dup3\n        /* \"#utility.yul\":16278:16296   */\n      add\n        /* \"#utility.yul\":16270:16296   */\n      swap1\n      pop\n        /* \"#utility.yul\":16342:16351   */\n      dup2\n        /* \"#utility.yul\":16336:16340   */\n      dup2\n        /* \"#utility.yul\":16332:16352   */\n      sub\n        /* \"#utility.yul\":16328:16329   */\n      0x00\n        /* \"#utility.yul\":16317:16326   */\n      dup4\n        /* \"#utility.yul\":16313:16330   */\n      add\n        /* \"#utility.yul\":16306:16353   */\n      mstore\n        /* \"#utility.yul\":16370:16501   */\n      tag_340\n        /* \"#utility.yul\":16496:16500   */\n      dup2\n        /* \"#utility.yul\":16370:16501   */\n      tag_168\n      jump\t// in\n    tag_340:\n        /* \"#utility.yul\":16362:16501   */\n      swap1\n      pop\n        /* \"#utility.yul\":16089:16508   */\n      swap2\n      swap1\n      pop\n      jump\t// out\n        /* \"#utility.yul\":16514:16694   */\n    tag_169:\n        /* \"#utility.yul\":16562:16639   */\n      0x4e487b7100000000000000000000000000000000000000000000000000000000\n        /* \"#utility.yul\":16559:16560   */\n      0x00\n        /* \"#utility.yul\":16552:16640   */\n      mstore\n        /* \"#utility.yul\":16659:16663   */\n      0x11\n        /* \"#utility.yul\":16656:16657   */\n      0x04\n        /* \"#utility.yul\":16649:16664   */\n      mstore\n        /* \"#utility.yul\":16683:16687   */\n      0x24\n        /* \"#utility.yul\":16680:16681   */\n      0x00\n        /* \"#utility.yul\":16673:16688   */\n      revert\n        /* \"#utility.yul\":16700:16871   */\n    tag_89:\n        /* \"#utility.yul\":16739:16742   */\n      0x00\n        /* \"#utility.yul\":16762:16786   */\n      tag_343\n        /* \"#utility.yul\":16780:16785   */\n      dup3\n        /* \"#utility.yul\":16762:16786   */\n      tag_129\n      jump\t// in\n    tag_343:\n        /* \"#utility.yul\":16753:16786   */\n      swap2\n      pop\n        /* \"#utility.yul\":16808:16812   */\n      0x00\n        /* \"#utility.yul\":16801:16806   */\n      dup3\n        /* \"#utility.yul\":16798:16813   */\n      sub\n        /* \"#utility.yul\":16795:16836   */\n      tag_344\n      jumpi\n        /* \"#utility.yul\":16816:16834   */\n      tag_345\n      tag_169\n      jump\t// in\n    tag_345:\n        /* \"#utility.yul\":16795:16836   */\n    tag_344:\n        /* \"#utility.yul\":16863:16864   */\n      0x01\n        /* \"#utility.yul\":16856:16861   */\n      dup3\n        /* \"#utility.yul\":16852:16865   */\n      sub\n        /* \"#utility.yul\":16845:16865   */\n      swap1\n      pop\n        /* \"#utility.yul\":16700:16871   */\n      swap2\n      swap1\n      pop\n      jump\t// out\n        /* \"#utility.yul\":16877:17048   */\n    tag_170:\n        /* \"#utility.yul\":17017:17040   */\n      0x594f5520415245204e4f5420544845204f574e45520000000000000000000000\n        /* \"#utility.yul\":17013:17014   */\n      0x00\n        /* \"#utility.yul\":17005:17011   */\n      dup3\n        /* \"#utility.yul\":17001:17015   */\n      add\n        /* \"#utility.yul\":16994:17041   */\n      mstore\n        /* \"#utility.yul\":16877:17048   */\n      pop\n      jump\t// out\n        /* \"#utility.yul\":17054:17420   */\n    tag_171:\n        /* \"#utility.yul\":17196:17199   */\n      0x00\n        /* \"#utility.yul\":17217:17284   */\n      tag_348\n        /* \"#utility.yul\":17281:17283   */\n      0x15\n        /* \"#utility.yul\":17276:17279   */\n      dup4\n        /* \"#utility.yul\":17217:17284   */\n      tag_135\n      jump\t// in\n    tag_348:\n        /* \"#utility.yul\":17210:17284   */\n      swap2\n      pop\n        /* \"#utility.yul\":17293:17386   */\n      tag_349\n        /* \"#utility.yul\":17382:17385   */\n      dup3\n        /* \"#utility.yul\":17293:17386   */\n      tag_170\n      jump\t// in\n    tag_349:\n        /* \"#utility.yul\":17411:17413   */\n      0x20\n        /* \"#utility.yul\":17406:17409   */\n      dup3\n        /* \"#utility.yul\":17402:17414   */\n      add\n        /* \"#utility.yul\":17395:17414   */\n      swap1\n      pop\n        /* \"#utility.yul\":17054:17420   */\n      swap2\n      swap1\n      pop\n      jump\t// out\n        /* \"#utility.yul\":17426:17845   */\n    tag_93:\n        /* \"#utility.yul\":17592:17596   */\n      0x00\n        /* \"#utility.yul\":17630:17632   */\n      0x20\n        /* \"#utility.yul\":17619:17628   */\n      dup3\n        /* \"#utility.yul\":17615:17633   */\n      add\n        /* \"#utility.yul\":17607:17633   */\n      swap1\n      pop\n        /* \"#utility.yul\":17679:17688   */\n      dup2\n        /* \"#utility.yul\":17673:17677   */\n      dup2\n        /* \"#utility.yul\":17669:17689   */\n      sub\n        /* \"#utility.yul\":17665:17666   */\n      0x00\n        /* \"#utility.yul\":17654:17663   */\n      dup4\n        /* \"#utility.yul\":17650:17667   */\n      add\n        /* \"#utility.yul\":17643:17690   */\n      mstore\n        /* \"#utility.yul\":17707:17838   */\n      tag_351\n        /* \"#utility.yul\":17833:17837   */\n      dup2\n        /* \"#utility.yul\":17707:17838   */\n      tag_171\n      jump\t// in\n    tag_351:\n        /* \"#utility.yul\":17699:17838   */\n      swap1\n      pop\n        /* \"#utility.yul\":17426:17845   */\n      swap2\n      swap1\n      pop\n      jump\t// out\n        /* \"#utility.yul\":17851:18084   */\n    tag_105:\n        /* \"#utility.yul\":17890:17893   */\n      0x00\n        /* \"#utility.yul\":17913:17937   */\n      tag_353\n        /* \"#utility.yul\":17931:17936   */\n      dup3\n        /* \"#utility.yul\":17913:17937   */\n      tag_129\n      jump\t// in\n    tag_353:\n        /* \"#utility.yul\":17904:17937   */\n      swap2\n      pop\n        /* \"#utility.yul\":17959:18025   */\n      0xffffffffffffffffffffffffffffffffffffffffffffffffffffffffffffffff\n        /* \"#utility.yul\":17952:17957   */\n      dup3\n        /* \"#utility.yul\":17949:18026   */\n      sub\n        /* \"#utility.yul\":17946:18049   */\n      tag_354\n      jumpi\n        /* \"#utility.yul\":18029:18047   */\n      tag_355\n      tag_169\n      jump\t// in\n    tag_355:\n        /* \"#utility.yul\":17946:18049   */\n    tag_354:\n        /* \"#utility.yul\":18076:18077   */\n      0x01\n        /* \"#utility.yul\":18069:18074   */\n      dup3\n        /* \"#utility.yul\":18065:18078   */\n      add\n        /* \"#utility.yul\":18058:18078   */\n      swap1\n      pop\n        /* \"#utility.yul\":17851:18084   */\n      swap2\n      swap1\n      pop\n      jump\t// out\n        /* \"#utility.yul\":18090:18271   */\n    tag_172:\n        /* \"#utility.yul\":18230:18263   */\n      0x545745455420544f4f204c4f4f4f4f4e472042524f4f4f4f4f4f4f2121212100\n        /* \"#utility.yul\":18226:18227   */\n      0x00\n        /* \"#utility.yul\":18218:18224   */\n      dup3\n        /* \"#utility.yul\":18214:18228   */\n      add\n        /* \"#utility.yul\":18207:18264   */\n      mstore\n        /* \"#utility.yul\":18090:18271   */\n      pop\n      jump\t// out\n        /* \"#utility.yul\":18277:18643   */\n    tag_173:\n        /* \"#utility.yul\":18419:18422   */\n      0x00\n        /* \"#utility.yul\":18440:18507   */\n      tag_358\n        /* \"#utility.yul\":18504:18506   */\n      0x1f\n        /* \"#utility.yul\":18499:18502   */\n      dup4\n        /* \"#utility.yul\":18440:18507   */\n      tag_135\n      jump\t// in\n    tag_358:\n        /* \"#utility.yul\":18433:18507   */\n      swap2\n      pop\n        /* \"#utility.yul\":18516:18609   */\n      tag_359\n        /* \"#utility.yul\":18605:18608   */\n      dup3\n        /* \"#utility.yul\":18516:18609   */\n      tag_172\n      jump\t// in\n    tag_359:\n        /* \"#utility.yul\":18634:18636   */\n      0x20\n        /* \"#utility.yul\":18629:18632   */\n      dup3\n        /* \"#utility.yul\":18625:18637   */\n      add\n        /* \"#utility.yul\":18618:18637   */\n      swap1\n      pop\n        /* \"#utility.yul\":18277:18643   */\n      swap2\n      swap1\n      pop\n      jump\t// out\n        /* \"#utility.yul\":18649:19068   */\n    tag_109:\n        /* \"#utility.yul\":18815:18819   */\n      0x00\n        /* \"#utility.yul\":18853:18855   */\n      0x20\n        /* \"#utility.yul\":18842:18851   */\n      dup3\n        /* \"#utility.yul\":18838:18856   */\n      add\n        /* \"#utility.yul\":18830:18856   */\n      swap1\n      pop\n        /* \"#utility.yul\":18902:18911   */\n      dup2\n        /* \"#utility.yul\":18896:18900   */\n      dup2\n        /* \"#utility.yul\":18892:18912   */\n      sub\n        /* \"#utility.yul\":18888:18889   */\n      0x00\n        /* \"#utility.yul\":18877:18886   */\n      dup4\n        /* \"#utility.yul\":18873:18890   */\n      add\n        /* \"#utility.yul\":18866:18913   */\n      mstore\n        /* \"#utility.yul\":18930:19061   */\n      tag_361\n        /* \"#utility.yul\":19056:19060   */\n      dup2\n        /* \"#utility.yul\":18930:19061   */\n      tag_173\n      jump\t// in\n    tag_361:\n        /* \"#utility.yul\":18922:19061   */\n      swap1\n      pop\n        /* \"#utility.yul\":18649:19068   */\n      swap2\n      swap1\n      pop\n      jump\t// out\n        /* \"#utility.yul\":19074:19215   */\n    tag_174:\n        /* \"#utility.yul\":19123:19127   */\n      0x00\n        /* \"#utility.yul\":19146:19149   */\n      dup2\n        /* \"#utility.yul\":19138:19149   */\n      swap1\n      pop\n        /* \"#utility.yul\":19169:19172   */\n      dup2\n        /* \"#utility.yul\":19166:19167   */\n      0x00\n        /* \"#utility.yul\":19159:19173   */\n      mstore\n        /* \"#utility.yul\":19203:19207   */\n      0x20\n        /* \"#utility.yul\":19200:19201   */\n      0x00\n        /* \"#utility.yul\":19190:19208   */\n      keccak256\n        /* \"#utility.yul\":19182:19208   */\n      swap1\n      pop\n        /* \"#utility.yul\":19074:19215   */\n      swap2\n      swap1\n      pop\n      jump\t// out\n        /* \"#utility.yul\":19221:19314   */\n    tag_175:\n        /* \"#utility.yul\":19258:19264   */\n      0x00\n        /* \"#utility.yul\":19305:19307   */\n      0x20\n        /* \"#utility.yul\":19300:19302   */\n      0x1f\n        /* \"#utility.yul\":19293:19298   */\n      dup4\n        /* \"#utility.yul\":19289:19303   */\n      add\n        /* \"#utility.yul\":19285:19308   */\n      div\n        /* \"#utility.yul\":19275:19308   */\n      swap1\n      pop\n        /* \"#utility.yul\":19221:19314   */\n      swap2\n      swap1\n      pop\n      jump\t// out\n        /* \"#utility.yul\":19320:19427   */\n    tag_176:\n        /* \"#utility.yul\":19364:19372   */\n      0x00\n        /* \"#utility.yul\":19414:19419   */\n      dup3\n        /* \"#utility.yul\":19408:19412   */\n      dup3\n        /* \"#utility.yul\":19404:19420   */\n      shl\n        /* \"#utility.yul\":19383:19420   */\n      swap1\n      pop\n        /* \"#utility.yul\":19320:19427   */\n      swap3\n      swap2\n      pop\n      pop\n      jump\t// out\n        /* \"#utility.yul\":19433:19826   */\n    tag_177:\n        /* \"#utility.yul\":19502:19508   */\n      0x00\n        /* \"#utility.yul\":19552:19553   */\n      0x08\n        /* \"#utility.yul\":19540:19550   */\n      dup4\n        /* \"#utility.yul\":19536:19554   */\n      mul\n        /* \"#utility.yul\":19575:19672   */\n      tag_366\n        /* \"#utility.yul\":19605:19671   */\n      0xffffffffffffffffffffffffffffffffffffffffffffffffffffffffffffffff\n        /* \"#utility.yul\":19594:19603   */\n      dup3\n        /* \"#utility.yul\":19575:19672   */\n      tag_176\n      jump\t// in\n    tag_366:\n        /* \"#utility.yul\":19693:19732   */\n      tag_367\n        /* \"#utility.yul\":19723:19731   */\n      dup7\n        /* \"#utility.yul\":19712:19721   */\n      dup4\n        /* \"#utility.yul\":19693:19732   */\n      tag_176\n      jump\t// in\n    tag_367:\n        /* \"#utility.yul\":19681:19732   */\n      swap6\n      pop\n        /* \"#utility.yul\":19765:19769   */\n      dup1\n        /* \"#utility.yul\":19761:19770   */\n      not\n        /* \"#utility.yul\":19754:19759   */\n      dup5\n        /* \"#utility.yul\":19750:19771   */\n      and\n        /* \"#utility.yul\":19741:19771   */\n      swap4\n      pop\n        /* \"#utility.yul\":19814:19818   */\n      dup1\n        /* \"#utility.yul\":19804:19812   */\n      dup7\n        /* \"#utility.yul\":19800:19819   */\n      and\n        /* \"#utility.yul\":19793:19798   */\n      dup5\n        /* \"#utility.yul\":19790:19820   */\n      or\n        /* \"#utility.yul\":19780:19820   */\n      swap3\n      pop\n        /* \"#utility.yul\":19509:19826   */\n      pop\n      pop\n        /* \"#utility.yul\":19433:19826   */\n      swap4\n      swap3\n      pop\n      pop\n      pop\n      jump\t// out\n        /* \"#utility.yul\":19832:19892   */\n    tag_178:\n        /* \"#utility.yul\":19860:19863   */\n      0x00\n        /* \"#utility.yul\":19881:19886   */\n      dup2\n        /* \"#utility.yul\":19874:19886   */\n      swap1\n      pop\n        /* \"#utility.yul\":19832:19892   */\n      swap2\n      swap1\n      pop\n      jump\t// out\n        /* \"#utility.yul\":19898:20040   */\n    tag_179:\n        /* \"#utility.yul\":19948:19957   */\n      0x00\n        /* \"#utility.yul\":19981:20034   */\n      tag_370\n        /* \"#utility.yul\":19999:20033   */\n      tag_371\n        /* \"#utility.yul\":20008:20032   */\n      tag_372\n        /* \"#utility.yul\":20026:20031   */\n      dup5\n        /* \"#utility.yul\":20008:20032   */\n      tag_129\n      jump\t// in\n    tag_372:\n        /* \"#utility.yul\":19999:20033   */\n      tag_178\n      jump\t// in\n    tag_371:\n        /* \"#utility.yul\":19981:20034   */\n      tag_129\n      jump\t// in\n    tag_370:\n        /* \"#utility.yul\":19968:20034   */\n      swap1\n      pop\n        /* \"#utility.yul\":19898:20040   */\n      swap2\n      swap1\n      pop\n      jump\t// out\n        /* \"#utility.yul\":20046:20121   */\n    tag_180:\n        /* \"#utility.yul\":20089:20092   */\n      0x00\n        /* \"#utility.yul\":20110:20115   */\n      dup2\n        /* \"#utility.yul\":20103:20115   */\n      swap1\n      pop\n        /* \"#utility.yul\":20046:20121   */\n      swap2\n      swap1\n      pop\n      jump\t// out\n        /* \"#utility.yul\":20127:20396   */\n    tag_181:\n        /* \"#utility.yul\":20237:20276   */\n      tag_375\n        /* \"#utility.yul\":20268:20275   */\n      dup4\n        /* \"#utility.yul\":20237:20276   */\n      tag_179\n      jump\t// in\n    tag_375:\n        /* \"#utility.yul\":20298:20389   */\n      tag_376\n        /* \"#utility.yul\":20347:20388   */\n      tag_377\n        /* \"#utility.yul\":20371:20387   */\n      dup3\n        /* \"#utility.yul\":20347:20388   */\n      tag_180\n      jump\t// in\n    tag_377:\n        /* \"#utility.yul\":20339:20345   */\n      dup5\n        /* \"#utility.yul\":20332:20336   */\n      dup5\n        /* \"#utility.yul\":20326:20337   */\n      sload\n        /* \"#utility.yul\":20298:20389   */\n      tag_177\n      jump\t// in\n    tag_376:\n        /* \"#utility.yul\":20292:20296   */\n      dup3\n        /* \"#utility.yul\":20285:20390   */\n      sstore\n        /* \"#utility.yul\":20203:20396   */\n      pop\n        /* \"#utility.yul\":20127:20396   */\n      pop\n      pop\n      pop\n      jump\t// out\n        /* \"#utility.yul\":20402:20475   */\n    tag_182:\n        /* \"#utility.yul\":20447:20450   */\n      0x00\n        /* \"#utility.yul\":20402:20475   */\n      swap1\n      jump\t// out\n        /* \"#utility.yul\":20481:20670   */\n    tag_183:\n        /* \"#utility.yul\":20558:20590   */\n      tag_380\n      tag_182\n      jump\t// in\n    tag_380:\n        /* \"#utility.yul\":20599:20664   */\n      tag_381\n        /* \"#utility.yul\":20657:20663   */\n      dup2\n        /* \"#utility.yul\":20649:20655   */\n      dup5\n        /* \"#utility.yul\":20643:20647   */\n      dup5\n        /* \"#utility.yul\":20599:20664   */\n      tag_181\n      jump\t// in\n    tag_381:\n        /* \"#utility.yul\":20534:20670   */\n      pop\n        /* \"#utility.yul\":20481:20670   */\n      pop\n      pop\n      jump\t// out\n        /* \"#utility.yul\":20676:20862   */\n    tag_184:\n        /* \"#utility.yul\":20736:20856   */\n    tag_383:\n        /* \"#utility.yul\":20753:20756   */\n      dup2\n        /* \"#utility.yul\":20746:20751   */\n      dup2\n        /* \"#utility.yul\":20743:20757   */\n      lt\n        /* \"#utility.yul\":20736:20856   */\n      iszero\n      tag_385\n      jumpi\n        /* \"#utility.yul\":20807:20846   */\n      tag_386\n        /* \"#utility.yul\":20844:20845   */\n      0x00\n        /* \"#utility.yul\":20837:20842   */\n      dup3\n        /* \"#utility.yul\":20807:20846   */\n      tag_183\n      jump\t// in\n    tag_386:\n        /* \"#utility.yul\":20780:20781   */\n      0x01\n        /* \"#utility.yul\":20773:20778   */\n      dup2\n        /* \"#utility.yul\":20769:20782   */\n      add\n        /* \"#utility.yul\":20760:20782   */\n      swap1\n      pop\n        /* \"#utility.yul\":20736:20856   */\n      jump(tag_383)\n    tag_385:\n        /* \"#utility.yul\":20676:20862   */\n      pop\n      pop\n      jump\t// out\n        /* \"#utility.yul\":20868:21411   */\n    tag_185:\n        /* \"#utility.yul\":20969:20971   */\n      0x1f\n        /* \"#utility.yul\":20964:20967   */\n      dup3\n        /* \"#utility.yul\":20961:20972   */\n      gt\n        /* \"#utility.yul\":20958:21404   */\n      iszero\n      tag_388\n      jumpi\n        /* \"#utility.yul\":21003:21041   */\n      tag_389\n        /* \"#utility.yul\":21035:21040   */\n      dup2\n        /* \"#utility.yul\":21003:21041   */\n      tag_174\n      jump\t// in\n    tag_389:\n        /* \"#utility.yul\":21087:21116   */\n      tag_390\n        /* \"#utility.yul\":21105:21115   */\n      dup5\n        /* \"#utility.yul\":21087:21116   */\n      tag_175\n      jump\t// in\n    tag_390:\n        /* \"#utility.yul\":21077:21085   */\n      dup2\n        /* \"#utility.yul\":21073:21117   */\n      add\n        /* \"#utility.yul\":21270:21272   */\n      0x20\n        /* \"#utility.yul\":21258:21268   */\n      dup6\n        /* \"#utility.yul\":21255:21273   */\n      lt\n        /* \"#utility.yul\":21252:21301   */\n      iszero\n      tag_391\n      jumpi\n        /* \"#utility.yul\":21291:21299   */\n      dup2\n        /* \"#utility.yul\":21276:21299   */\n      swap1\n      pop\n        /* \"#utility.yul\":21252:21301   */\n    tag_391:\n        /* \"#utility.yul\":21314:21394   */\n      tag_392\n        /* \"#utility.yul\":21370:21392   */\n      tag_393\n        /* \"#utility.yul\":21388:21391   */\n      dup6\n        /* \"#utility.yul\":21370:21392   */\n      tag_175\n      jump\t// in\n    tag_393:\n        /* \"#utility.yul\":21360:21368   */\n      dup4\n        /* \"#utility.yul\":21356:21393   */\n      add\n        /* \"#utility.yul\":21343:21354   */\n      dup3\n        /* \"#utility.yul\":21314:21394   */\n      tag_184\n      jump\t// in\n    tag_392:\n        /* \"#utility.yul\":20973:21404   */\n      pop\n      pop\n        /* \"#utility.yul\":20958:21404   */\n    tag_388:\n        /* \"#utility.yul\":20868:21411   */\n      pop\n      pop\n      pop\n      jump\t// out\n        /* \"#utility.yul\":21417:21534   */\n    tag_186:\n        /* \"#utility.yul\":21471:21479   */\n      0x00\n        /* \"#utility.yul\":21521:21526   */\n      dup3\n        /* \"#utility.yul\":21515:21519   */\n      dup3\n        /* \"#utility.yul\":21511:21527   */\n      shr\n        /* \"#utility.yul\":21490:21527   */\n      swap1\n      pop\n        /* \"#utility.yul\":21417:21534   */\n      swap3\n      swap2\n      pop\n      pop\n      jump\t// out\n        /* \"#utility.yul\":21540:21709   */\n    tag_187:\n        /* \"#utility.yul\":21584:21590   */\n      0x00\n        /* \"#utility.yul\":21617:21668   */\n      tag_396\n        /* \"#utility.yul\":21665:21666   */\n      0x00\n        /* \"#utility.yul\":21661:21667   */\n      not\n        /* \"#utility.yul\":21653:21658   */\n      dup5\n        /* \"#utility.yul\":21650:21651   */\n      0x08\n        /* \"#utility.yul\":21646:21659   */\n      mul\n        /* \"#utility.yul\":21617:21668   */\n      tag_186\n      jump\t// in\n    tag_396:\n        /* \"#utility.yul\":21613:21669   */\n      not\n        /* \"#utility.yul\":21698:21702   */\n      dup1\n        /* \"#utility.yul\":21692:21696   */\n      dup4\n        /* \"#utility.yul\":21688:21703   */\n      and\n        /* \"#utility.yul\":21678:21703   */\n      swap2\n      pop\n        /* \"#utility.yul\":21591:21709   */\n      pop\n        /* \"#utility.yul\":21540:21709   */\n      swap3\n      swap2\n      pop\n      pop\n      jump\t// out\n        /* \"#utility.yul\":21714:22009   */\n    tag_188:\n        /* \"#utility.yul\":21790:21794   */\n      0x00\n        /* \"#utility.yul\":21936:21965   */\n      tag_398\n        /* \"#utility.yul\":21961:21964   */\n      dup4\n        /* \"#utility.yul\":21955:21959   */\n      dup4\n        /* \"#utility.yul\":21936:21965   */\n      tag_187\n      jump\t// in\n    tag_398:\n        /* \"#utility.yul\":21928:21965   */\n      swap2\n      pop\n        /* \"#utility.yul\":21998:22001   */\n      dup3\n        /* \"#utility.yul\":21995:21996   */\n      0x02\n        /* \"#utility.yul\":21991:22002   */\n      mul\n        /* \"#utility.yul\":21985:21989   */\n      dup3\n        /* \"#utility.yul\":21982:22003   */\n      or\n        /* \"#utility.yul\":21974:22003   */\n      swap1\n      pop\n        /* \"#utility.yul\":21714:22009   */\n      swap3\n      swap2\n      pop\n      pop\n      jump\t// out\n        /* \"#utility.yul\":22014:23409   */\n    tag_112:\n        /* \"#utility.yul\":22131:22168   */\n      tag_400\n        /* \"#utility.yul\":22164:22167   */\n      dup3\n        /* \"#utility.yul\":22131:22168   */\n      tag_134\n      jump\t// in\n    tag_400:\n        /* \"#utility.yul\":22233:22251   */\n      0xffffffffffffffff\n        /* \"#utility.yul\":22225:22231   */\n      dup2\n        /* \"#utility.yul\":22222:22252   */\n      gt\n        /* \"#utility.yul\":22219:22275   */\n      iszero\n      tag_401\n      jumpi\n        /* \"#utility.yul\":22255:22273   */\n      tag_402\n      tag_150\n      jump\t// in\n    tag_402:\n        /* \"#utility.yul\":22219:22275   */\n    tag_401:\n        /* \"#utility.yul\":22299:22337   */\n      tag_403\n        /* \"#utility.yul\":22331:22335   */\n      dup3\n        /* \"#utility.yul\":22325:22336   */\n      sload\n        /* \"#utility.yul\":22299:22337   */\n      tag_55\n      jump\t// in\n    tag_403:\n        /* \"#utility.yul\":22384:22451   */\n      tag_404\n        /* \"#utility.yul\":22444:22450   */\n      dup3\n        /* \"#utility.yul\":22436:22442   */\n      dup3\n        /* \"#utility.yul\":22430:22434   */\n      dup6\n        /* \"#utility.yul\":22384:22451   */\n      tag_185\n      jump\t// in\n    tag_404:\n        /* \"#utility.yul\":22478:22479   */\n      0x00\n        /* \"#utility.yul\":22502:22506   */\n      0x20\n        /* \"#utility.yul\":22489:22506   */\n      swap1\n      pop\n        /* \"#utility.yul\":22534:22536   */\n      0x1f\n        /* \"#utility.yul\":22526:22532   */\n      dup4\n        /* \"#utility.yul\":22523:22537   */\n      gt\n        /* \"#utility.yul\":22551:22552   */\n      0x01\n        /* \"#utility.yul\":22546:23164   */\n      dup2\n      eq\n      tag_406\n      jumpi\n        /* \"#utility.yul\":23208:23209   */\n      0x00\n        /* \"#utility.yul\":23225:23231   */\n      dup5\n        /* \"#utility.yul\":23222:23299   */\n      iszero\n      tag_407\n      jumpi\n        /* \"#utility.yul\":23274:23283   */\n      dup3\n        /* \"#utility.yul\":23269:23272   */\n      dup8\n        /* \"#utility.yul\":23265:23284   */\n      add\n        /* \"#utility.yul\":23259:23285   */\n      mload\n        /* \"#utility.yul\":23250:23285   */\n      swap1\n      pop\n        /* \"#utility.yul\":23222:23299   */\n    tag_407:\n        /* \"#utility.yul\":23325:23392   */\n      tag_408\n        /* \"#utility.yul\":23385:23391   */\n      dup6\n        /* \"#utility.yul\":23378:23383   */\n      dup3\n        /* \"#utility.yul\":23325:23392   */\n      tag_188\n      jump\t// in\n    tag_408:\n        /* \"#utility.yul\":23319:23323   */\n      dup7\n        /* \"#utility.yul\":23312:23393   */\n      sstore\n        /* \"#utility.yul\":23181:23403   */\n      pop\n        /* \"#utility.yul\":22516:23403   */\n      jump(tag_405)\n        /* \"#utility.yul\":22546:23164   */\n    tag_406:\n        /* \"#utility.yul\":22598:22602   */\n      0x1f\n        /* \"#utility.yul\":22594:22603   */\n      not\n        /* \"#utility.yul\":22586:22592   */\n      dup5\n        /* \"#utility.yul\":22582:22604   */\n      and\n        /* \"#utility.yul\":22632:22669   */\n      tag_409\n        /* \"#utility.yul\":22664:22668   */\n      dup7\n        /* \"#utility.yul\":22632:22669   */\n      tag_174\n      jump\t// in\n    tag_409:\n        /* \"#utility.yul\":22691:22692   */\n      0x00\n        /* \"#utility.yul\":22705:22913   */\n    tag_410:\n        /* \"#utility.yul\":22719:22726   */\n      dup3\n        /* \"#utility.yul\":22716:22717   */\n      dup2\n        /* \"#utility.yul\":22713:22727   */\n      lt\n        /* \"#utility.yul\":22705:22913   */\n      iszero\n      tag_412\n      jumpi\n        /* \"#utility.yul\":22798:22807   */\n      dup5\n        /* \"#utility.yul\":22793:22796   */\n      dup10\n        /* \"#utility.yul\":22789:22808   */\n      add\n        /* \"#utility.yul\":22783:22809   */\n      mload\n        /* \"#utility.yul\":22775:22781   */\n      dup3\n        /* \"#utility.yul\":22768:22810   */\n      sstore\n        /* \"#utility.yul\":22849:22850   */\n      0x01\n        /* \"#utility.yul\":22841:22847   */\n      dup3\n        /* \"#utility.yul\":22837:22851   */\n      add\n        /* \"#utility.yul\":22827:22851   */\n      swap2\n      pop\n        /* \"#utility.yul\":22896:22898   */\n      0x20\n        /* \"#utility.yul\":22885:22894   */\n      dup6\n        /* \"#utility.yul\":22881:22899   */\n      add\n        /* \"#utility.yul\":22868:22899   */\n      swap5\n      pop\n        /* \"#utility.yul\":22742:22746   */\n      0x20\n        /* \"#utility.yul\":22739:22740   */\n      dup2\n        /* \"#utility.yul\":22735:22747   */\n      add\n        /* \"#utility.yul\":22730:22747   */\n      swap1\n      pop\n        /* \"#utility.yul\":22705:22913   */\n      jump(tag_410)\n    tag_412:\n        /* \"#utility.yul\":22941:22947   */\n      dup7\n        /* \"#utility.yul\":22932:22939   */\n      dup4\n        /* \"#utility.yul\":22929:22948   */\n      lt\n        /* \"#utility.yul\":22926:23105   */\n      iszero\n      tag_413\n      jumpi\n        /* \"#utility.yul\":22999:23008   */\n      dup5\n        /* \"#utility.yul\":22994:22997   */\n      dup10\n        /* \"#utility.yul\":22990:23009   */\n      add\n        /* \"#utility.yul\":22984:23010   */\n      mload\n        /* \"#utility.yul\":23042:23090   */\n      tag_414\n        /* \"#utility.yul\":23084:23088   */\n      0x1f\n        /* \"#utility.yul\":23076:23082   */\n      dup10\n        /* \"#utility.yul\":23072:23089   */\n      and\n        /* \"#utility.yul\":23061:23070   */\n      dup3\n        /* \"#utility.yul\":23042:23090   */\n      tag_187\n      jump\t// in\n    tag_414:\n        /* \"#utility.yul\":23034:23040   */\n      dup4\n        /* \"#utility.yul\":23027:23091   */\n      sstore\n        /* \"#utility.yul\":22949:23105   */\n      pop\n        /* \"#utility.yul\":22926:23105   */\n    tag_413:\n        /* \"#utility.yul\":23151:23152   */\n      0x01\n        /* \"#utility.yul\":23147:23148   */\n      0x02\n        /* \"#utility.yul\":23139:23145   */\n      dup9\n        /* \"#utility.yul\":23135:23149   */\n      mul\n        /* \"#utility.yul\":23131:23153   */\n      add\n        /* \"#utility.yul\":23125:23129   */\n      dup9\n        /* \"#utility.yul\":23118:23154   */\n      sstore\n        /* \"#utility.yul\":22553:23164   */\n      pop\n      pop\n      pop\n        /* \"#utility.yul\":22516:23403   */\n    tag_405:\n      pop\n        /* \"#utility.yul\":22106:23409   */\n      pop\n      pop\n      pop\n        /* \"#utility.yul\":22014:23409   */\n      pop\n      pop\n      jump\t// out\n\n    auxdata: 0xa2646970667358221220b309b711ba2678f01548d412a9abc1004f1e93608f4550f44b5ffb767038738364736f6c634300081a0033\n}\n",
				"bytecode": {
					"linkReferences": {},
					"object": "608060405260055f806101000a81548161ffff021916908361ffff160217905550348015602a575f80fd5b503360025f6101000a81548173ffffffffffffffffffffffffffffffffffffffff021916908373ffffffffffffffffffffffffffffffffffffffff160217905550611731806100785f395ff3fe608060405234801561000f575f80fd5b5060043610610091575f3560e01c8063633782161161006457806363378216146101315780636eb107971461014d5780637c9cd2bc1461016b5780638da5cb5b146101875780639e92b093146101a557610091565b806305a1b4a914610095578063254e4019146100c95780633d9b569f146100f957806358bfa4ab14610115575b5f80fd5b6100af60048036038101906100aa9190610c1e565b6101d5565b6040516100c0959493929190610cea565b60405180910390f35b6100e360048036038101906100de9190610c1e565b6102c6565b6040516100f09190610e1b565b60405180910390f35b610113600480360381019061010e9190610c1e565b61043e565b005b61012f600480360381019061012a9190610e72565b6105f4565b005b61014b60048036038101906101469190610c1e565b6106a1565b005b6101556107b7565b6040516101629190610eac565b60405180910390f35b61018560048036038101906101809190610ff1565b6107c8565b005b61018f61097f565b60405161019c9190611038565b60405180910390f35b6101bf60048036038101906101ba9190611051565b6109a4565b6040516101cc91906111aa565b60405180910390f35b6001602052815f5260405f2081815481106101ee575f80fd5b905f5260205f2090600502015f9150915050805f015490806001015f9054906101000a900473ffffffffffffffffffffffffffffffffffffffff1690806002018054610239906111f7565b80601f0160208091040260200160405190810160405280929190818152602001828054610265906111f7565b80156102b05780601f10610287576101008083540402835291602001916102b0565b820191905f5260205f20905b81548152906001019060200180831161029357829003601f168201915b5050505050908060030154908060040154905085565b6102ce610b3f565b60015f8473ffffffffffffffffffffffffffffffffffffffff1673ffffffffffffffffffffffffffffffffffffffff1681526020019081526020015f20828154811061031d5761031c611227565b5b905f5260205f2090600502016040518060a00160405290815f8201548152602001600182015f9054906101000a900473ffffffffffffffffffffffffffffffffffffffff1673ffffffffffffffffffffffffffffffffffffffff1673ffffffffffffffffffffffffffffffffffffffff1681526020016002820180546103a2906111f7565b80601f01602080910402602001604051908101604052809291908181526020018280546103ce906111f7565b80156104195780601f106103f057610100808354040283529160200191610419565b820191905f5260205f20905b8154815290600101906020018083116103fc57829003601f168201915b5050505050815260200160038201548152602001600482015481525050905092915050565b8060015f8473ffffffffffffffffffffffffffffffffffffffff1673ffffffffffffffffffffffffffffffffffffffff1681526020019081526020015f20828154811061048e5761048d611227565b5b905f5260205f2090600502015f0154146104dd576040517f08c379a00000000000000000000000000000000000000000000000000000000081526004016104d49061129e565b60405180910390fd5b5f60015f8473ffffffffffffffffffffffffffffffffffffffff1673ffffffffffffffffffffffffffffffffffffffff1681526020019081526020015f20828154811061052d5761052c611227565b5b905f5260205f209060050201600401541161057d576040517f08c379a000000000000000000000000000000000000000000000000000000000815260040161057490611306565b60405180910390fd5b60015f3373ffffffffffffffffffffffffffffffffffffffff1673ffffffffffffffffffffffffffffffffffffffff1681526020019081526020015f2081815481106105cc576105cb611227565b5b905f5260205f2090600502016004015f8154809291906105eb90611351565b91905055505050565b60025f9054906101000a900473ffffffffffffffffffffffffffffffffffffffff1673ffffffffffffffffffffffffffffffffffffffff163373ffffffffffffffffffffffffffffffffffffffff1614610683576040517f08c379a000000000000000000000000000000000000000000000000000000000815260040161067a906113c2565b60405180910390fd5b805f806101000a81548161ffff021916908361ffff16021790555050565b8060015f8473ffffffffffffffffffffffffffffffffffffffff1673ffffffffffffffffffffffffffffffffffffffff1681526020019081526020015f2082815481106106f1576106f0611227565b5b905f5260205f2090600502015f015414610740576040517f08c379a00000000000000000000000000000000000000000000000000000000081526004016107379061129e565b60405180910390fd5b60015f3373ffffffffffffffffffffffffffffffffffffffff1673ffffffffffffffffffffffffffffffffffffffff1681526020019081526020015f20818154811061078f5761078e611227565b5b905f5260205f2090600502016004015f8154809291906107ae906113e0565b91905055505050565b5f8054906101000a900461ffff1681565b5f8054906101000a900461ffff1661ffff168151111561081d576040517f08c379a000000000000000000000000000000000000000000000000000000000815260040161081490611471565b60405180910390fd5b5f6040518060a0016040528060015f3373ffffffffffffffffffffffffffffffffffffffff1673ffffffffffffffffffffffffffffffffffffffff1681526020019081526020015f208054905081526020013373ffffffffffffffffffffffffffffffffffffffff1681526020018381526020014281526020015f815250905060015f3373ffffffffffffffffffffffffffffffffffffffff1673ffffffffffffffffffffffffffffffffffffffff1681526020019081526020015f2081908060018154018082558091505060019003905f5260205f2090600502015f909190919091505f820151815f01556020820151816001015f6101000a81548173ffffffffffffffffffffffffffffffffffffffff021916908373ffffffffffffffffffffffffffffffffffffffff1602179055506040820151816002019081610964919061162c565b50606082015181600301556080820151816004015550505050565b60025f9054906101000a900473ffffffffffffffffffffffffffffffffffffffff1681565b606060015f8373ffffffffffffffffffffffffffffffffffffffff1673ffffffffffffffffffffffffffffffffffffffff1681526020019081526020015f20805480602002602001604051908101604052809291908181526020015f905b82821015610b34578382905f5260205f2090600502016040518060a00160405290815f8201548152602001600182015f9054906101000a900473ffffffffffffffffffffffffffffffffffffffff1673ffffffffffffffffffffffffffffffffffffffff1673ffffffffffffffffffffffffffffffffffffffff168152602001600282018054610a91906111f7565b80601f0160208091040260200160405190810160405280929190818152602001828054610abd906111f7565b8015610b085780601f10610adf57610100808354040283529160200191610b08565b820191905f5260205f20905b815481529060010190602001808311610aeb57829003601f168201915b505050505081526020016003820154815260200160048201548152505081526020019060010190610a02565b505050509050919050565b6040518060a001604052805f81526020015f73ffffffffffffffffffffffffffffffffffffffff168152602001606081526020015f81526020015f81525090565b5f604051905090565b5f80fd5b5f80fd5b5f73ffffffffffffffffffffffffffffffffffffffff82169050919050565b5f610bba82610b91565b9050919050565b610bca81610bb0565b8114610bd4575f80fd5b50565b5f81359050610be581610bc1565b92915050565b5f819050919050565b610bfd81610beb565b8114610c07575f80fd5b50565b5f81359050610c1881610bf4565b92915050565b5f8060408385031215610c3457610c33610b89565b5b5f610c4185828601610bd7565b9250506020610c5285828601610c0a565b9150509250929050565b610c6581610beb565b82525050565b610c7481610bb0565b82525050565b5f81519050919050565b5f82825260208201905092915050565b8281835e5f83830152505050565b5f601f19601f8301169050919050565b5f610cbc82610c7a565b610cc68185610c84565b9350610cd6818560208601610c94565b610cdf81610ca2565b840191505092915050565b5f60a082019050610cfd5f830188610c5c565b610d0a6020830187610c6b565b8181036040830152610d1c8186610cb2565b9050610d2b6060830185610c5c565b610d386080830184610c5c565b9695505050505050565b610d4b81610beb565b82525050565b610d5a81610bb0565b82525050565b5f82825260208201905092915050565b5f610d7a82610c7a565b610d848185610d60565b9350610d94818560208601610c94565b610d9d81610ca2565b840191505092915050565b5f60a083015f830151610dbd5f860182610d42565b506020830151610dd06020860182610d51565b5060408301518482036040860152610de88282610d70565b9150506060830151610dfd6060860182610d42565b506080830151610e106080860182610d42565b508091505092915050565b5f6020820190508181035f830152610e338184610da8565b905092915050565b5f61ffff82169050919050565b610e5181610e3b565b8114610e5b575f80fd5b50565b5f81359050610e6c81610e48565b92915050565b5f60208284031215610e8757610e86610b89565b5b5f610e9484828501610e5e565b91505092915050565b610ea681610e3b565b82525050565b5f602082019050610ebf5f830184610e9d565b92915050565b5f80fd5b5f80fd5b7f4e487b71000000000000000000000000000000000000000000000000000000005f52604160045260245ffd5b610f0382610ca2565b810181811067ffffffffffffffff82111715610f2257610f21610ecd565b5b80604052505050565b5f610f34610b80565b9050610f408282610efa565b919050565b5f67ffffffffffffffff821115610f5f57610f5e610ecd565b5b610f6882610ca2565b9050602081019050919050565b828183375f83830152505050565b5f610f95610f9084610f45565b610f2b565b905082815260208101848484011115610fb157610fb0610ec9565b5b610fbc848285610f75565b509392505050565b5f82601f830112610fd857610fd7610ec5565b5b8135610fe8848260208601610f83565b91505092915050565b5f6020828403121561100657611005610b89565b5b5f82013567ffffffffffffffff81111561102357611022610b8d565b5b61102f84828501610fc4565b91505092915050565b5f60208201905061104b5f830184610c6b565b92915050565b5f6020828403121561106657611065610b89565b5b5f61107384828501610bd7565b91505092915050565b5f81519050919050565b5f82825260208201905092915050565b5f819050602082019050919050565b5f60a083015f8301516110ba5f860182610d42565b5060208301516110cd6020860182610d51565b50604083015184820360408601526110e58282610d70565b91505060608301516110fa6060860182610d42565b50608083015161110d6080860182610d42565b508091505092915050565b5f61112383836110a5565b905092915050565b5f602082019050919050565b5f6111418261107c565b61114b8185611086565b93508360208202850161115d85611096565b805f5b8581101561119857848403895281516111798582611118565b94506111848361112b565b925060208a01995050600181019050611160565b50829750879550505050505092915050565b5f6020820190508181035f8301526111c28184611137565b905092915050565b7f4e487b71000000000000000000000000000000000000000000000000000000005f52602260045260245ffd5b5f600282049050600182168061120e57607f821691505b602082108103611221576112206111ca565b5b50919050565b7f4e487b71000000000000000000000000000000000000000000000000000000005f52603260045260245ffd5b7f494e56414c494420545745455420494e444558000000000000000000000000005f82015250565b5f611288601383610c84565b915061129382611254565b602082019050919050565b5f6020820190508181035f8301526112b58161127c565b9050919050565b7f545745455420484153204e4f204c494b455300000000000000000000000000005f82015250565b5f6112f0601283610c84565b91506112fb826112bc565b602082019050919050565b5f6020820190508181035f83015261131d816112e4565b9050919050565b7f4e487b71000000000000000000000000000000000000000000000000000000005f52601160045260245ffd5b5f61135b82610beb565b91505f820361136d5761136c611324565b5b600182039050919050565b7f594f5520415245204e4f5420544845204f574e455200000000000000000000005f82015250565b5f6113ac601583610c84565b91506113b782611378565b602082019050919050565b5f6020820190508181035f8301526113d9816113a0565b9050919050565b5f6113ea82610beb565b91507fffffffffffffffffffffffffffffffffffffffffffffffffffffffffffffffff820361141c5761141b611324565b5b600182019050919050565b7f545745455420544f4f204c4f4f4f4f4e472042524f4f4f4f4f4f4f21212121005f82015250565b5f61145b601f83610c84565b915061146682611427565b602082019050919050565b5f6020820190508181035f8301526114888161144f565b9050919050565b5f819050815f5260205f209050919050565b5f6020601f8301049050919050565b5f82821b905092915050565b5f600883026114eb7fffffffffffffffffffffffffffffffffffffffffffffffffffffffffffffffff826114b0565b6114f586836114b0565b95508019841693508086168417925050509392505050565b5f819050919050565b5f61153061152b61152684610beb565b61150d565b610beb565b9050919050565b5f819050919050565b61154983611516565b61155d61155582611537565b8484546114bc565b825550505050565b5f90565b611571611565565b61157c818484611540565b505050565b5b8181101561159f576115945f82611569565b600181019050611582565b5050565b601f8211156115e4576115b58161148f565b6115be846114a1565b810160208510156115cd578190505b6115e16115d9856114a1565b830182611581565b50505b505050565b5f82821c905092915050565b5f6116045f19846008026115e9565b1980831691505092915050565b5f61161c83836115f5565b9150826002028217905092915050565b61163582610c7a565b67ffffffffffffffff81111561164e5761164d610ecd565b5b61165882546111f7565b6116638282856115a3565b5f60209050601f831160018114611694575f8415611682578287015190505b61168c8582611611565b8655506116f3565b601f1984166116a28661148f565b5f5b828110156116c9578489015182556001820191506020850194506020810190506116a4565b868310156116e657848901516116e2601f8916826115f5565b8355505b6001600288020188555050505b50505050505056fea2646970667358221220b309b711ba2678f01548d412a9abc1004f1e93608f4550f44b5ffb767038738364736f6c634300081a0033",
					"opcodes": "PUSH1 0x80 PUSH1 0x40 MSTORE PUSH1 0x5 PUSH0 DUP1 PUSH2 0x100 EXP DUP2 SLOAD DUP2 PUSH2 0xFFFF MUL NOT AND SWAP1 DUP4 PUSH2 0xFFFF AND MUL OR SWAP1 SSTORE POP CALLVALUE DUP1 ISZERO PUSH1 0x2A JUMPI PUSH0 DUP1 REVERT JUMPDEST POP CALLER PUSH1 0x2 PUSH0 PUSH2 0x100 EXP DUP2 SLOAD DUP2 PUSH20 0xFFFFFFFFFFFFFFFFFFFFFFFFFFFFFFFFFFFFFFFF MUL NOT AND SWAP1 DUP4 PUSH20 0xFFFFFFFFFFFFFFFFFFFFFFFFFFFFFFFFFFFFFFFF AND MUL OR SWAP1 SSTORE POP PUSH2 0x1731 DUP1 PUSH2 0x78 PUSH0 CODECOPY PUSH0 RETURN INVALID PUSH1 0x80 PUSH1 0x40 MSTORE CALLVALUE DUP1 ISZERO PUSH2 0xF JUMPI PUSH0 DUP1 REVERT JUMPDEST POP PUSH1 0x4 CALLDATASIZE LT PUSH2 0x91 JUMPI PUSH0 CALLDATALOAD PUSH1 0xE0 SHR DUP1 PUSH4 0x63378216 GT PUSH2 0x64 JUMPI DUP1 PUSH4 0x63378216 EQ PUSH2 0x131 JUMPI DUP1 PUSH4 0x6EB10797 EQ PUSH2 0x14D JUMPI DUP1 PUSH4 0x7C9CD2BC EQ PUSH2 0x16B JUMPI DUP1 PUSH4 0x8DA5CB5B EQ PUSH2 0x187 JUMPI DUP1 PUSH4 0x9E92B093 EQ PUSH2 0x1A5 JUMPI PUSH2 0x91 JUMP JUMPDEST DUP1 PUSH4 0x5A1B4A9 EQ PUSH2 0x95 JUMPI DUP1 PUSH4 0x254E4019 EQ PUSH2 0xC9 JUMPI DUP1 PUSH4 0x3D9B569F EQ PUSH2 0xF9 JUMPI DUP1 PUSH4 0x58BFA4AB EQ PUSH2 0x115 JUMPI JUMPDEST PUSH0 DUP1 REVERT JUMPDEST PUSH2 0xAF PUSH1 0x4 DUP1 CALLDATASIZE SUB DUP2 ADD SWAP1 PUSH2 0xAA SWAP2 SWAP1 PUSH2 0xC1E JUMP JUMPDEST PUSH2 0x1D5 JUMP JUMPDEST PUSH1 0x40 MLOAD PUSH2 0xC0 SWAP6 SWAP5 SWAP4 SWAP3 SWAP2 SWAP1 PUSH2 0xCEA JUMP JUMPDEST PUSH1 0x40 MLOAD DUP1 SWAP2 SUB SWAP1 RETURN JUMPDEST PUSH2 0xE3 PUSH1 0x4 DUP1 CALLDATASIZE SUB DUP2 ADD SWAP1 PUSH2 0xDE SWAP2 SWAP1 PUSH2 0xC1E JUMP JUMPDEST PUSH2 0x2C6 JUMP JUMPDEST PUSH1 0x40 MLOAD PUSH2 0xF0 SWAP2 SWAP1 PUSH2 0xE1B JUMP JUMPDEST PUSH1 0x40 MLOAD DUP1 SWAP2 SUB SWAP1 RETURN JUMPDEST PUSH2 0x113 PUSH1 0x4 DUP1 CALLDATASIZE SUB DUP2 ADD SWAP1 PUSH2 0x10E SWAP2 SWAP1 PUSH2 0xC1E JUMP JUMPDEST PUSH2 0x43E JUMP JUMPDEST STOP JUMPDEST PUSH2 0x12F PUSH1 0x4 DUP1 CALLDATASIZE SUB DUP2 ADD SWAP1 PUSH2 0x12A SWAP2 SWAP1 PUSH2 0xE72 JUMP JUMPDEST PUSH2 0x5F4 JUMP JUMPDEST STOP JUMPDEST PUSH2 0x14B PUSH1 0x4 DUP1 CALLDATASIZE SUB DUP2 ADD SWAP1 PUSH2 0x146 SWAP2 SWAP1 PUSH2 0xC1E JUMP JUMPDEST PUSH2 0x6A1 JUMP JUMPDEST STOP JUMPDEST PUSH2 0x155 PUSH2 0x7B7 JUMP JUMPDEST PUSH1 0x40 MLOAD PUSH2 0x162 SWAP2 SWAP1 PUSH2 0xEAC JUMP JUMPDEST PUSH1 0x40 MLOAD DUP1 SWAP2 SUB SWAP1 RETURN JUMPDEST PUSH2 0x185 PUSH1 0x4 DUP1 CALLDATASIZE SUB DUP2 ADD SWAP1 PUSH2 0x180 SWAP2 SWAP1 PUSH2 0xFF1 JUMP JUMPDEST PUSH2 0x7C8 JUMP JUMPDEST STOP JUMPDEST PUSH2 0x18F PUSH2 0x97F JUMP JUMPDEST PUSH1 0x40 MLOAD PUSH2 0x19C SWAP2 SWAP1 PUSH2 0x1038 JUMP JUMPDEST PUSH1 0x40 MLOAD DUP1 SWAP2 SUB SWAP1 RETURN JUMPDEST PUSH2 0x1BF PUSH1 0x4 DUP1 CALLDATASIZE SUB DUP2 ADD SWAP1 PUSH2 0x1BA SWAP2 SWAP1 PUSH2 0x1051 JUMP JUMPDEST PUSH2 0x9A4 JUMP JUMPDEST PUSH1 0x40 MLOAD PUSH2 0x1CC SWAP2 SWAP1 PUSH2 0x11AA JUMP JUMPDEST PUSH1 0x40 MLOAD DUP1 SWAP2 SUB SWAP1 RETURN JUMPDEST PUSH1 0x1 PUSH1 0x20 MSTORE DUP2 PUSH0 MSTORE PUSH1 0x40 PUSH0 KECCAK256 DUP2 DUP2 SLOAD DUP2 LT PUSH2 0x1EE JUMPI PUSH0 DUP1 REVERT JUMPDEST SWAP1 PUSH0 MSTORE PUSH1 0x20 PUSH0 KECCAK256 SWAP1 PUSH1 0x5 MUL ADD PUSH0 SWAP2 POP SWAP2 POP POP DUP1 PUSH0 ADD SLOAD SWAP1 DUP1 PUSH1 0x1 ADD PUSH0 SWAP1 SLOAD SWAP1 PUSH2 0x100 EXP SWAP1 DIV PUSH20 0xFFFFFFFFFFFFFFFFFFFFFFFFFFFFFFFFFFFFFFFF AND SWAP1 DUP1 PUSH1 0x2 ADD DUP1 SLOAD PUSH2 0x239 SWAP1 PUSH2 0x11F7 JUMP JUMPDEST DUP1 PUSH1 0x1F ADD PUSH1 0x20 DUP1 SWAP2 DIV MUL PUSH1 0x20 ADD PUSH1 0x40 MLOAD SWAP1 DUP2 ADD PUSH1 0x40 MSTORE DUP1 SWAP3 SWAP2 SWAP1 DUP2 DUP2 MSTORE PUSH1 0x20 ADD DUP3 DUP1 SLOAD PUSH2 0x265 SWAP1 PUSH2 0x11F7 JUMP JUMPDEST DUP1 ISZERO PUSH2 0x2B0 JUMPI DUP1 PUSH1 0x1F LT PUSH2 0x287 JUMPI PUSH2 0x100 DUP1 DUP4 SLOAD DIV MUL DUP4 MSTORE SWAP2 PUSH1 0x20 ADD SWAP2 PUSH2 0x2B0 JUMP JUMPDEST DUP3 ADD SWAP2 SWAP1 PUSH0 MSTORE PUSH1 0x20 PUSH0 KECCAK256 SWAP1 JUMPDEST DUP2 SLOAD DUP2 MSTORE SWAP1 PUSH1 0x1 ADD SWAP1 PUSH1 0x20 ADD DUP1 DUP4 GT PUSH2 0x293 JUMPI DUP3 SWAP1 SUB PUSH1 0x1F AND DUP3 ADD SWAP2 JUMPDEST POP POP POP POP POP SWAP1 DUP1 PUSH1 0x3 ADD SLOAD SWAP1 DUP1 PUSH1 0x4 ADD SLOAD SWAP1 POP DUP6 JUMP JUMPDEST PUSH2 0x2CE PUSH2 0xB3F JUMP JUMPDEST PUSH1 0x1 PUSH0 DUP5 PUSH20 0xFFFFFFFFFFFFFFFFFFFFFFFFFFFFFFFFFFFFFFFF AND PUSH20 0xFFFFFFFFFFFFFFFFFFFFFFFFFFFFFFFFFFFFFFFF AND DUP2 MSTORE PUSH1 0x20 ADD SWAP1 DUP2 MSTORE PUSH1 0x20 ADD PUSH0 KECCAK256 DUP3 DUP2 SLOAD DUP2 LT PUSH2 0x31D JUMPI PUSH2 0x31C PUSH2 0x1227 JUMP JUMPDEST JUMPDEST SWAP1 PUSH0 MSTORE PUSH1 0x20 PUSH0 KECCAK256 SWAP1 PUSH1 0x5 MUL ADD PUSH1 0x40 MLOAD DUP1 PUSH1 0xA0 ADD PUSH1 0x40 MSTORE SWAP1 DUP2 PUSH0 DUP3 ADD SLOAD DUP2 MSTORE PUSH1 0x20 ADD PUSH1 0x1 DUP3 ADD PUSH0 SWAP1 SLOAD SWAP1 PUSH2 0x100 EXP SWAP1 DIV PUSH20 0xFFFFFFFFFFFFFFFFFFFFFFFFFFFFFFFFFFFFFFFF AND PUSH20 0xFFFFFFFFFFFFFFFFFFFFFFFFFFFFFFFFFFFFFFFF AND PUSH20 0xFFFFFFFFFFFFFFFFFFFFFFFFFFFFFFFFFFFFFFFF AND DUP2 MSTORE PUSH1 0x20 ADD PUSH1 0x2 DUP3 ADD DUP1 SLOAD PUSH2 0x3A2 SWAP1 PUSH2 0x11F7 JUMP JUMPDEST DUP1 PUSH1 0x1F ADD PUSH1 0x20 DUP1 SWAP2 DIV MUL PUSH1 0x20 ADD PUSH1 0x40 MLOAD SWAP1 DUP2 ADD PUSH1 0x40 MSTORE DUP1 SWAP3 SWAP2 SWAP1 DUP2 DUP2 MSTORE PUSH1 0x20 ADD DUP3 DUP1 SLOAD PUSH2 0x3CE SWAP1 PUSH2 0x11F7 JUMP JUMPDEST DUP1 ISZERO PUSH2 0x419 JUMPI DUP1 PUSH1 0x1F LT PUSH2 0x3F0 JUMPI PUSH2 0x100 DUP1 DUP4 SLOAD DIV MUL DUP4 MSTORE SWAP2 PUSH1 0x20 ADD SWAP2 PUSH2 0x419 JUMP JUMPDEST DUP3 ADD SWAP2 SWAP1 PUSH0 MSTORE PUSH1 0x20 PUSH0 KECCAK256 SWAP1 JUMPDEST DUP2 SLOAD DUP2 MSTORE SWAP1 PUSH1 0x1 ADD SWAP1 PUSH1 0x20 ADD DUP1 DUP4 GT PUSH2 0x3FC JUMPI DUP3 SWAP1 SUB PUSH1 0x1F AND DUP3 ADD SWAP2 JUMPDEST POP POP POP POP POP DUP2 MSTORE PUSH1 0x20 ADD PUSH1 0x3 DUP3 ADD SLOAD DUP2 MSTORE PUSH1 0x20 ADD PUSH1 0x4 DUP3 ADD SLOAD DUP2 MSTORE POP POP SWAP1 POP SWAP3 SWAP2 POP POP JUMP JUMPDEST DUP1 PUSH1 0x1 PUSH0 DUP5 PUSH20 0xFFFFFFFFFFFFFFFFFFFFFFFFFFFFFFFFFFFFFFFF AND PUSH20 0xFFFFFFFFFFFFFFFFFFFFFFFFFFFFFFFFFFFFFFFF AND DUP2 MSTORE PUSH1 0x20 ADD SWAP1 DUP2 MSTORE PUSH1 0x20 ADD PUSH0 KECCAK256 DUP3 DUP2 SLOAD DUP2 LT PUSH2 0x48E JUMPI PUSH2 0x48D PUSH2 0x1227 JUMP JUMPDEST JUMPDEST SWAP1 PUSH0 MSTORE PUSH1 0x20 PUSH0 KECCAK256 SWAP1 PUSH1 0x5 MUL ADD PUSH0 ADD SLOAD EQ PUSH2 0x4DD JUMPI PUSH1 0x40 MLOAD PUSH32 0x8C379A000000000000000000000000000000000000000000000000000000000 DUP2 MSTORE PUSH1 0x4 ADD PUSH2 0x4D4 SWAP1 PUSH2 0x129E JUMP JUMPDEST PUSH1 0x40 MLOAD DUP1 SWAP2 SUB SWAP1 REVERT JUMPDEST PUSH0 PUSH1 0x1 PUSH0 DUP5 PUSH20 0xFFFFFFFFFFFFFFFFFFFFFFFFFFFFFFFFFFFFFFFF AND PUSH20 0xFFFFFFFFFFFFFFFFFFFFFFFFFFFFFFFFFFFFFFFF AND DUP2 MSTORE PUSH1 0x20 ADD SWAP1 DUP2 MSTORE PUSH1 0x20 ADD PUSH0 KECCAK256 DUP3 DUP2 SLOAD DUP2 LT PUSH2 0x52D JUMPI PUSH2 0x52C PUSH2 0x1227 JUMP JUMPDEST JUMPDEST SWAP1 PUSH0 MSTORE PUSH1 0x20 PUSH0 KECCAK256 SWAP1 PUSH1 0x5 MUL ADD PUSH1 0x4 ADD SLOAD GT PUSH2 0x57D JUMPI PUSH1 0x40 MLOAD PUSH32 0x8C379A000000000000000000000000000000000000000000000000000000000 DUP2 MSTORE PUSH1 0x4 ADD PUSH2 0x574 SWAP1 PUSH2 0x1306 JUMP JUMPDEST PUSH1 0x40 MLOAD DUP1 SWAP2 SUB SWAP1 REVERT JUMPDEST PUSH1 0x1 PUSH0 CALLER PUSH20 0xFFFFFFFFFFFFFFFFFFFFFFFFFFFFFFFFFFFFFFFF AND PUSH20 0xFFFFFFFFFFFFFFFFFFFFFFFFFFFFFFFFFFFFFFFF AND DUP2 MSTORE PUSH1 0x20 ADD SWAP1 DUP2 MSTORE PUSH1 0x20 ADD PUSH0 KECCAK256 DUP2 DUP2 SLOAD DUP2 LT PUSH2 0x5CC JUMPI PUSH2 0x5CB PUSH2 0x1227 JUMP JUMPDEST JUMPDEST SWAP1 PUSH0 MSTORE PUSH1 0x20 PUSH0 KECCAK256 SWAP1 PUSH1 0x5 MUL ADD PUSH1 0x4 ADD PUSH0 DUP2 SLOAD DUP1 SWAP3 SWAP2 SWAP1 PUSH2 0x5EB SWAP1 PUSH2 0x1351 JUMP JUMPDEST SWAP2 SWAP1 POP SSTORE POP POP POP JUMP JUMPDEST PUSH1 0x2 PUSH0 SWAP1 SLOAD SWAP1 PUSH2 0x100 EXP SWAP1 DIV PUSH20 0xFFFFFFFFFFFFFFFFFFFFFFFFFFFFFFFFFFFFFFFF AND PUSH20 0xFFFFFFFFFFFFFFFFFFFFFFFFFFFFFFFFFFFFFFFF AND CALLER PUSH20 0xFFFFFFFFFFFFFFFFFFFFFFFFFFFFFFFFFFFFFFFF AND EQ PUSH2 0x683 JUMPI PUSH1 0x40 MLOAD PUSH32 0x8C379A000000000000000000000000000000000000000000000000000000000 DUP2 MSTORE PUSH1 0x4 ADD PUSH2 0x67A SWAP1 PUSH2 0x13C2 JUMP JUMPDEST PUSH1 0x40 MLOAD DUP1 SWAP2 SUB SWAP1 REVERT JUMPDEST DUP1 PUSH0 DUP1 PUSH2 0x100 EXP DUP2 SLOAD DUP2 PUSH2 0xFFFF MUL NOT AND SWAP1 DUP4 PUSH2 0xFFFF AND MUL OR SWAP1 SSTORE POP POP JUMP JUMPDEST DUP1 PUSH1 0x1 PUSH0 DUP5 PUSH20 0xFFFFFFFFFFFFFFFFFFFFFFFFFFFFFFFFFFFFFFFF AND PUSH20 0xFFFFFFFFFFFFFFFFFFFFFFFFFFFFFFFFFFFFFFFF AND DUP2 MSTORE PUSH1 0x20 ADD SWAP1 DUP2 MSTORE PUSH1 0x20 ADD PUSH0 KECCAK256 DUP3 DUP2 SLOAD DUP2 LT PUSH2 0x6F1 JUMPI PUSH2 0x6F0 PUSH2 0x1227 JUMP JUMPDEST JUMPDEST SWAP1 PUSH0 MSTORE PUSH1 0x20 PUSH0 KECCAK256 SWAP1 PUSH1 0x5 MUL ADD PUSH0 ADD SLOAD EQ PUSH2 0x740 JUMPI PUSH1 0x40 MLOAD PUSH32 0x8C379A000000000000000000000000000000000000000000000000000000000 DUP2 MSTORE PUSH1 0x4 ADD PUSH2 0x737 SWAP1 PUSH2 0x129E JUMP JUMPDEST PUSH1 0x40 MLOAD DUP1 SWAP2 SUB SWAP1 REVERT JUMPDEST PUSH1 0x1 PUSH0 CALLER PUSH20 0xFFFFFFFFFFFFFFFFFFFFFFFFFFFFFFFFFFFFFFFF AND PUSH20 0xFFFFFFFFFFFFFFFFFFFFFFFFFFFFFFFFFFFFFFFF AND DUP2 MSTORE PUSH1 0x20 ADD SWAP1 DUP2 MSTORE PUSH1 0x20 ADD PUSH0 KECCAK256 DUP2 DUP2 SLOAD DUP2 LT PUSH2 0x78F JUMPI PUSH2 0x78E PUSH2 0x1227 JUMP JUMPDEST JUMPDEST SWAP1 PUSH0 MSTORE PUSH1 0x20 PUSH0 KECCAK256 SWAP1 PUSH1 0x5 MUL ADD PUSH1 0x4 ADD PUSH0 DUP2 SLOAD DUP1 SWAP3 SWAP2 SWAP1 PUSH2 0x7AE SWAP1 PUSH2 0x13E0 JUMP JUMPDEST SWAP2 SWAP1 POP SSTORE POP POP POP JUMP JUMPDEST PUSH0 DUP1 SLOAD SWAP1 PUSH2 0x100 EXP SWAP1 DIV PUSH2 0xFFFF AND DUP2 JUMP JUMPDEST PUSH0 DUP1 SLOAD SWAP1 PUSH2 0x100 EXP SWAP1 DIV PUSH2 0xFFFF AND PUSH2 0xFFFF AND DUP2 MLOAD GT ISZERO PUSH2 0x81D JUMPI PUSH1 0x40 MLOAD PUSH32 0x8C379A000000000000000000000000000000000000000000000000000000000 DUP2 MSTORE PUSH1 0x4 ADD PUSH2 0x814 SWAP1 PUSH2 0x1471 JUMP JUMPDEST PUSH1 0x40 MLOAD DUP1 SWAP2 SUB SWAP1 REVERT JUMPDEST PUSH0 PUSH1 0x40 MLOAD DUP1 PUSH1 0xA0 ADD PUSH1 0x40 MSTORE DUP1 PUSH1 0x1 PUSH0 CALLER PUSH20 0xFFFFFFFFFFFFFFFFFFFFFFFFFFFFFFFFFFFFFFFF AND PUSH20 0xFFFFFFFFFFFFFFFFFFFFFFFFFFFFFFFFFFFFFFFF AND DUP2 MSTORE PUSH1 0x20 ADD SWAP1 DUP2 MSTORE PUSH1 0x20 ADD PUSH0 KECCAK256 DUP1 SLOAD SWAP1 POP DUP2 MSTORE PUSH1 0x20 ADD CALLER PUSH20 0xFFFFFFFFFFFFFFFFFFFFFFFFFFFFFFFFFFFFFFFF AND DUP2 MSTORE PUSH1 0x20 ADD DUP4 DUP2 MSTORE PUSH1 0x20 ADD TIMESTAMP DUP2 MSTORE PUSH1 0x20 ADD PUSH0 DUP2 MSTORE POP SWAP1 POP PUSH1 0x1 PUSH0 CALLER PUSH20 0xFFFFFFFFFFFFFFFFFFFFFFFFFFFFFFFFFFFFFFFF AND PUSH20 0xFFFFFFFFFFFFFFFFFFFFFFFFFFFFFFFFFFFFFFFF AND DUP2 MSTORE PUSH1 0x20 ADD SWAP1 DUP2 MSTORE PUSH1 0x20 ADD PUSH0 KECCAK256 DUP2 SWAP1 DUP1 PUSH1 0x1 DUP2 SLOAD ADD DUP1 DUP3 SSTORE DUP1 SWAP2 POP POP PUSH1 0x1 SWAP1 SUB SWAP1 PUSH0 MSTORE PUSH1 0x20 PUSH0 KECCAK256 SWAP1 PUSH1 0x5 MUL ADD PUSH0 SWAP1 SWAP2 SWAP1 SWAP2 SWAP1 SWAP2 POP PUSH0 DUP3 ADD MLOAD DUP2 PUSH0 ADD SSTORE PUSH1 0x20 DUP3 ADD MLOAD DUP2 PUSH1 0x1 ADD PUSH0 PUSH2 0x100 EXP DUP2 SLOAD DUP2 PUSH20 0xFFFFFFFFFFFFFFFFFFFFFFFFFFFFFFFFFFFFFFFF MUL NOT AND SWAP1 DUP4 PUSH20 0xFFFFFFFFFFFFFFFFFFFFFFFFFFFFFFFFFFFFFFFF AND MUL OR SWAP1 SSTORE POP PUSH1 0x40 DUP3 ADD MLOAD DUP2 PUSH1 0x2 ADD SWAP1 DUP2 PUSH2 0x964 SWAP2 SWAP1 PUSH2 0x162C JUMP JUMPDEST POP PUSH1 0x60 DUP3 ADD MLOAD DUP2 PUSH1 0x3 ADD SSTORE PUSH1 0x80 DUP3 ADD MLOAD DUP2 PUSH1 0x4 ADD SSTORE POP POP POP POP JUMP JUMPDEST PUSH1 0x2 PUSH0 SWAP1 SLOAD SWAP1 PUSH2 0x100 EXP SWAP1 DIV PUSH20 0xFFFFFFFFFFFFFFFFFFFFFFFFFFFFFFFFFFFFFFFF AND DUP2 JUMP JUMPDEST PUSH1 0x60 PUSH1 0x1 PUSH0 DUP4 PUSH20 0xFFFFFFFFFFFFFFFFFFFFFFFFFFFFFFFFFFFFFFFF AND PUSH20 0xFFFFFFFFFFFFFFFFFFFFFFFFFFFFFFFFFFFFFFFF AND DUP2 MSTORE PUSH1 0x20 ADD SWAP1 DUP2 MSTORE PUSH1 0x20 ADD PUSH0 KECCAK256 DUP1 SLOAD DUP1 PUSH1 0x20 MUL PUSH1 0x20 ADD PUSH1 0x40 MLOAD SWAP1 DUP2 ADD PUSH1 0x40 MSTORE DUP1 SWAP3 SWAP2 SWAP1 DUP2 DUP2 MSTORE PUSH1 0x20 ADD PUSH0 SWAP1 JUMPDEST DUP3 DUP3 LT ISZERO PUSH2 0xB34 JUMPI DUP4 DUP3 SWAP1 PUSH0 MSTORE PUSH1 0x20 PUSH0 KECCAK256 SWAP1 PUSH1 0x5 MUL ADD PUSH1 0x40 MLOAD DUP1 PUSH1 0xA0 ADD PUSH1 0x40 MSTORE SWAP1 DUP2 PUSH0 DUP3 ADD SLOAD DUP2 MSTORE PUSH1 0x20 ADD PUSH1 0x1 DUP3 ADD PUSH0 SWAP1 SLOAD SWAP1 PUSH2 0x100 EXP SWAP1 DIV PUSH20 0xFFFFFFFFFFFFFFFFFFFFFFFFFFFFFFFFFFFFFFFF AND PUSH20 0xFFFFFFFFFFFFFFFFFFFFFFFFFFFFFFFFFFFFFFFF AND PUSH20 0xFFFFFFFFFFFFFFFFFFFFFFFFFFFFFFFFFFFFFFFF AND DUP2 MSTORE PUSH1 0x20 ADD PUSH1 0x2 DUP3 ADD DUP1 SLOAD PUSH2 0xA91 SWAP1 PUSH2 0x11F7 JUMP JUMPDEST DUP1 PUSH1 0x1F ADD PUSH1 0x20 DUP1 SWAP2 DIV MUL PUSH1 0x20 ADD PUSH1 0x40 MLOAD SWAP1 DUP2 ADD PUSH1 0x40 MSTORE DUP1 SWAP3 SWAP2 SWAP1 DUP2 DUP2 MSTORE PUSH1 0x20 ADD DUP3 DUP1 SLOAD PUSH2 0xABD SWAP1 PUSH2 0x11F7 JUMP JUMPDEST DUP1 ISZERO PUSH2 0xB08 JUMPI DUP1 PUSH1 0x1F LT PUSH2 0xADF JUMPI PUSH2 0x100 DUP1 DUP4 SLOAD DIV MUL DUP4 MSTORE SWAP2 PUSH1 0x20 ADD SWAP2 PUSH2 0xB08 JUMP JUMPDEST DUP3 ADD SWAP2 SWAP1 PUSH0 MSTORE PUSH1 0x20 PUSH0 KECCAK256 SWAP1 JUMPDEST DUP2 SLOAD DUP2 MSTORE SWAP1 PUSH1 0x1 ADD SWAP1 PUSH1 0x20 ADD DUP1 DUP4 GT PUSH2 0xAEB JUMPI DUP3 SWAP1 SUB PUSH1 0x1F AND DUP3 ADD SWAP2 JUMPDEST POP POP POP POP POP DUP2 MSTORE PUSH1 0x20 ADD PUSH1 0x3 DUP3 ADD SLOAD DUP2 MSTORE PUSH1 0x20 ADD PUSH1 0x4 DUP3 ADD SLOAD DUP2 MSTORE POP POP DUP2 MSTORE PUSH1 0x20 ADD SWAP1 PUSH1 0x1 ADD SWAP1 PUSH2 0xA02 JUMP JUMPDEST POP POP POP POP SWAP1 POP SWAP2 SWAP1 POP JUMP JUMPDEST PUSH1 0x40 MLOAD DUP1 PUSH1 0xA0 ADD PUSH1 0x40 MSTORE DUP1 PUSH0 DUP2 MSTORE PUSH1 0x20 ADD PUSH0 PUSH20 0xFFFFFFFFFFFFFFFFFFFFFFFFFFFFFFFFFFFFFFFF AND DUP2 MSTORE PUSH1 0x20 ADD PUSH1 0x60 DUP2 MSTORE PUSH1 0x20 ADD PUSH0 DUP2 MSTORE PUSH1 0x20 ADD PUSH0 DUP2 MSTORE POP SWAP1 JUMP JUMPDEST PUSH0 PUSH1 0x40 MLOAD SWAP1 POP SWAP1 JUMP JUMPDEST PUSH0 DUP1 REVERT JUMPDEST PUSH0 DUP1 REVERT JUMPDEST PUSH0 PUSH20 0xFFFFFFFFFFFFFFFFFFFFFFFFFFFFFFFFFFFFFFFF DUP3 AND SWAP1 POP SWAP2 SWAP1 POP JUMP JUMPDEST PUSH0 PUSH2 0xBBA DUP3 PUSH2 0xB91 JUMP JUMPDEST SWAP1 POP SWAP2 SWAP1 POP JUMP JUMPDEST PUSH2 0xBCA DUP2 PUSH2 0xBB0 JUMP JUMPDEST DUP2 EQ PUSH2 0xBD4 JUMPI PUSH0 DUP1 REVERT JUMPDEST POP JUMP JUMPDEST PUSH0 DUP2 CALLDATALOAD SWAP1 POP PUSH2 0xBE5 DUP2 PUSH2 0xBC1 JUMP JUMPDEST SWAP3 SWAP2 POP POP JUMP JUMPDEST PUSH0 DUP2 SWAP1 POP SWAP2 SWAP1 POP JUMP JUMPDEST PUSH2 0xBFD DUP2 PUSH2 0xBEB JUMP JUMPDEST DUP2 EQ PUSH2 0xC07 JUMPI PUSH0 DUP1 REVERT JUMPDEST POP JUMP JUMPDEST PUSH0 DUP2 CALLDATALOAD SWAP1 POP PUSH2 0xC18 DUP2 PUSH2 0xBF4 JUMP JUMPDEST SWAP3 SWAP2 POP POP JUMP JUMPDEST PUSH0 DUP1 PUSH1 0x40 DUP4 DUP6 SUB SLT ISZERO PUSH2 0xC34 JUMPI PUSH2 0xC33 PUSH2 0xB89 JUMP JUMPDEST JUMPDEST PUSH0 PUSH2 0xC41 DUP6 DUP3 DUP7 ADD PUSH2 0xBD7 JUMP JUMPDEST SWAP3 POP POP PUSH1 0x20 PUSH2 0xC52 DUP6 DUP3 DUP7 ADD PUSH2 0xC0A JUMP JUMPDEST SWAP2 POP POP SWAP3 POP SWAP3 SWAP1 POP JUMP JUMPDEST PUSH2 0xC65 DUP2 PUSH2 0xBEB JUMP JUMPDEST DUP3 MSTORE POP POP JUMP JUMPDEST PUSH2 0xC74 DUP2 PUSH2 0xBB0 JUMP JUMPDEST DUP3 MSTORE POP POP JUMP JUMPDEST PUSH0 DUP2 MLOAD SWAP1 POP SWAP2 SWAP1 POP JUMP JUMPDEST PUSH0 DUP3 DUP3 MSTORE PUSH1 0x20 DUP3 ADD SWAP1 POP SWAP3 SWAP2 POP POP JUMP JUMPDEST DUP3 DUP2 DUP4 MCOPY PUSH0 DUP4 DUP4 ADD MSTORE POP POP POP JUMP JUMPDEST PUSH0 PUSH1 0x1F NOT PUSH1 0x1F DUP4 ADD AND SWAP1 POP SWAP2 SWAP1 POP JUMP JUMPDEST PUSH0 PUSH2 0xCBC DUP3 PUSH2 0xC7A JUMP JUMPDEST PUSH2 0xCC6 DUP2 DUP6 PUSH2 0xC84 JUMP JUMPDEST SWAP4 POP PUSH2 0xCD6 DUP2 DUP6 PUSH1 0x20 DUP7 ADD PUSH2 0xC94 JUMP JUMPDEST PUSH2 0xCDF DUP2 PUSH2 0xCA2 JUMP JUMPDEST DUP5 ADD SWAP2 POP POP SWAP3 SWAP2 POP POP JUMP JUMPDEST PUSH0 PUSH1 0xA0 DUP3 ADD SWAP1 POP PUSH2 0xCFD PUSH0 DUP4 ADD DUP9 PUSH2 0xC5C JUMP JUMPDEST PUSH2 0xD0A PUSH1 0x20 DUP4 ADD DUP8 PUSH2 0xC6B JUMP JUMPDEST DUP2 DUP2 SUB PUSH1 0x40 DUP4 ADD MSTORE PUSH2 0xD1C DUP2 DUP7 PUSH2 0xCB2 JUMP JUMPDEST SWAP1 POP PUSH2 0xD2B PUSH1 0x60 DUP4 ADD DUP6 PUSH2 0xC5C JUMP JUMPDEST PUSH2 0xD38 PUSH1 0x80 DUP4 ADD DUP5 PUSH2 0xC5C JUMP JUMPDEST SWAP7 SWAP6 POP POP POP POP POP POP JUMP JUMPDEST PUSH2 0xD4B DUP2 PUSH2 0xBEB JUMP JUMPDEST DUP3 MSTORE POP POP JUMP JUMPDEST PUSH2 0xD5A DUP2 PUSH2 0xBB0 JUMP JUMPDEST DUP3 MSTORE POP POP JUMP JUMPDEST PUSH0 DUP3 DUP3 MSTORE PUSH1 0x20 DUP3 ADD SWAP1 POP SWAP3 SWAP2 POP POP JUMP JUMPDEST PUSH0 PUSH2 0xD7A DUP3 PUSH2 0xC7A JUMP JUMPDEST PUSH2 0xD84 DUP2 DUP6 PUSH2 0xD60 JUMP JUMPDEST SWAP4 POP PUSH2 0xD94 DUP2 DUP6 PUSH1 0x20 DUP7 ADD PUSH2 0xC94 JUMP JUMPDEST PUSH2 0xD9D DUP2 PUSH2 0xCA2 JUMP JUMPDEST DUP5 ADD SWAP2 POP POP SWAP3 SWAP2 POP POP JUMP JUMPDEST PUSH0 PUSH1 0xA0 DUP4 ADD PUSH0 DUP4 ADD MLOAD PUSH2 0xDBD PUSH0 DUP7 ADD DUP3 PUSH2 0xD42 JUMP JUMPDEST POP PUSH1 0x20 DUP4 ADD MLOAD PUSH2 0xDD0 PUSH1 0x20 DUP7 ADD DUP3 PUSH2 0xD51 JUMP JUMPDEST POP PUSH1 0x40 DUP4 ADD MLOAD DUP5 DUP3 SUB PUSH1 0x40 DUP7 ADD MSTORE PUSH2 0xDE8 DUP3 DUP3 PUSH2 0xD70 JUMP JUMPDEST SWAP2 POP POP PUSH1 0x60 DUP4 ADD MLOAD PUSH2 0xDFD PUSH1 0x60 DUP7 ADD DUP3 PUSH2 0xD42 JUMP JUMPDEST POP PUSH1 0x80 DUP4 ADD MLOAD PUSH2 0xE10 PUSH1 0x80 DUP7 ADD DUP3 PUSH2 0xD42 JUMP JUMPDEST POP DUP1 SWAP2 POP POP SWAP3 SWAP2 POP POP JUMP JUMPDEST PUSH0 PUSH1 0x20 DUP3 ADD SWAP1 POP DUP2 DUP2 SUB PUSH0 DUP4 ADD MSTORE PUSH2 0xE33 DUP2 DUP5 PUSH2 0xDA8 JUMP JUMPDEST SWAP1 POP SWAP3 SWAP2 POP POP JUMP JUMPDEST PUSH0 PUSH2 0xFFFF DUP3 AND SWAP1 POP SWAP2 SWAP1 POP JUMP JUMPDEST PUSH2 0xE51 DUP2 PUSH2 0xE3B JUMP JUMPDEST DUP2 EQ PUSH2 0xE5B JUMPI PUSH0 DUP1 REVERT JUMPDEST POP JUMP JUMPDEST PUSH0 DUP2 CALLDATALOAD SWAP1 POP PUSH2 0xE6C DUP2 PUSH2 0xE48 JUMP JUMPDEST SWAP3 SWAP2 POP POP JUMP JUMPDEST PUSH0 PUSH1 0x20 DUP3 DUP5 SUB SLT ISZERO PUSH2 0xE87 JUMPI PUSH2 0xE86 PUSH2 0xB89 JUMP JUMPDEST JUMPDEST PUSH0 PUSH2 0xE94 DUP5 DUP3 DUP6 ADD PUSH2 0xE5E JUMP JUMPDEST SWAP2 POP POP SWAP3 SWAP2 POP POP JUMP JUMPDEST PUSH2 0xEA6 DUP2 PUSH2 0xE3B JUMP JUMPDEST DUP3 MSTORE POP POP JUMP JUMPDEST PUSH0 PUSH1 0x20 DUP3 ADD SWAP1 POP PUSH2 0xEBF PUSH0 DUP4 ADD DUP5 PUSH2 0xE9D JUMP JUMPDEST SWAP3 SWAP2 POP POP JUMP JUMPDEST PUSH0 DUP1 REVERT JUMPDEST PUSH0 DUP1 REVERT JUMPDEST PUSH32 0x4E487B7100000000000000000000000000000000000000000000000000000000 PUSH0 MSTORE PUSH1 0x41 PUSH1 0x4 MSTORE PUSH1 0x24 PUSH0 REVERT JUMPDEST PUSH2 0xF03 DUP3 PUSH2 0xCA2 JUMP JUMPDEST DUP2 ADD DUP2 DUP2 LT PUSH8 0xFFFFFFFFFFFFFFFF DUP3 GT OR ISZERO PUSH2 0xF22 JUMPI PUSH2 0xF21 PUSH2 0xECD JUMP JUMPDEST JUMPDEST DUP1 PUSH1 0x40 MSTORE POP POP POP JUMP JUMPDEST PUSH0 PUSH2 0xF34 PUSH2 0xB80 JUMP JUMPDEST SWAP1 POP PUSH2 0xF40 DUP3 DUP3 PUSH2 0xEFA JUMP JUMPDEST SWAP2 SWAP1 POP JUMP JUMPDEST PUSH0 PUSH8 0xFFFFFFFFFFFFFFFF DUP3 GT ISZERO PUSH2 0xF5F JUMPI PUSH2 0xF5E PUSH2 0xECD JUMP JUMPDEST JUMPDEST PUSH2 0xF68 DUP3 PUSH2 0xCA2 JUMP JUMPDEST SWAP1 POP PUSH1 0x20 DUP2 ADD SWAP1 POP SWAP2 SWAP1 POP JUMP JUMPDEST DUP3 DUP2 DUP4 CALLDATACOPY PUSH0 DUP4 DUP4 ADD MSTORE POP POP POP JUMP JUMPDEST PUSH0 PUSH2 0xF95 PUSH2 0xF90 DUP5 PUSH2 0xF45 JUMP JUMPDEST PUSH2 0xF2B JUMP JUMPDEST SWAP1 POP DUP3 DUP2 MSTORE PUSH1 0x20 DUP2 ADD DUP5 DUP5 DUP5 ADD GT ISZERO PUSH2 0xFB1 JUMPI PUSH2 0xFB0 PUSH2 0xEC9 JUMP JUMPDEST JUMPDEST PUSH2 0xFBC DUP5 DUP3 DUP6 PUSH2 0xF75 JUMP JUMPDEST POP SWAP4 SWAP3 POP POP POP JUMP JUMPDEST PUSH0 DUP3 PUSH1 0x1F DUP4 ADD SLT PUSH2 0xFD8 JUMPI PUSH2 0xFD7 PUSH2 0xEC5 JUMP JUMPDEST JUMPDEST DUP2 CALLDATALOAD PUSH2 0xFE8 DUP5 DUP3 PUSH1 0x20 DUP7 ADD PUSH2 0xF83 JUMP JUMPDEST SWAP2 POP POP SWAP3 SWAP2 POP POP JUMP JUMPDEST PUSH0 PUSH1 0x20 DUP3 DUP5 SUB SLT ISZERO PUSH2 0x1006 JUMPI PUSH2 0x1005 PUSH2 0xB89 JUMP JUMPDEST JUMPDEST PUSH0 DUP3 ADD CALLDATALOAD PUSH8 0xFFFFFFFFFFFFFFFF DUP2 GT ISZERO PUSH2 0x1023 JUMPI PUSH2 0x1022 PUSH2 0xB8D JUMP JUMPDEST JUMPDEST PUSH2 0x102F DUP5 DUP3 DUP6 ADD PUSH2 0xFC4 JUMP JUMPDEST SWAP2 POP POP SWAP3 SWAP2 POP POP JUMP JUMPDEST PUSH0 PUSH1 0x20 DUP3 ADD SWAP1 POP PUSH2 0x104B PUSH0 DUP4 ADD DUP5 PUSH2 0xC6B JUMP JUMPDEST SWAP3 SWAP2 POP POP JUMP JUMPDEST PUSH0 PUSH1 0x20 DUP3 DUP5 SUB SLT ISZERO PUSH2 0x1066 JUMPI PUSH2 0x1065 PUSH2 0xB89 JUMP JUMPDEST JUMPDEST PUSH0 PUSH2 0x1073 DUP5 DUP3 DUP6 ADD PUSH2 0xBD7 JUMP JUMPDEST SWAP2 POP POP SWAP3 SWAP2 POP POP JUMP JUMPDEST PUSH0 DUP2 MLOAD SWAP1 POP SWAP2 SWAP1 POP JUMP JUMPDEST PUSH0 DUP3 DUP3 MSTORE PUSH1 0x20 DUP3 ADD SWAP1 POP SWAP3 SWAP2 POP POP JUMP JUMPDEST PUSH0 DUP2 SWAP1 POP PUSH1 0x20 DUP3 ADD SWAP1 POP SWAP2 SWAP1 POP JUMP JUMPDEST PUSH0 PUSH1 0xA0 DUP4 ADD PUSH0 DUP4 ADD MLOAD PUSH2 0x10BA PUSH0 DUP7 ADD DUP3 PUSH2 0xD42 JUMP JUMPDEST POP PUSH1 0x20 DUP4 ADD MLOAD PUSH2 0x10CD PUSH1 0x20 DUP7 ADD DUP3 PUSH2 0xD51 JUMP JUMPDEST POP PUSH1 0x40 DUP4 ADD MLOAD DUP5 DUP3 SUB PUSH1 0x40 DUP7 ADD MSTORE PUSH2 0x10E5 DUP3 DUP3 PUSH2 0xD70 JUMP JUMPDEST SWAP2 POP POP PUSH1 0x60 DUP4 ADD MLOAD PUSH2 0x10FA PUSH1 0x60 DUP7 ADD DUP3 PUSH2 0xD42 JUMP JUMPDEST POP PUSH1 0x80 DUP4 ADD MLOAD PUSH2 0x110D PUSH1 0x80 DUP7 ADD DUP3 PUSH2 0xD42 JUMP JUMPDEST POP DUP1 SWAP2 POP POP SWAP3 SWAP2 POP POP JUMP JUMPDEST PUSH0 PUSH2 0x1123 DUP4 DUP4 PUSH2 0x10A5 JUMP JUMPDEST SWAP1 POP SWAP3 SWAP2 POP POP JUMP JUMPDEST PUSH0 PUSH1 0x20 DUP3 ADD SWAP1 POP SWAP2 SWAP1 POP JUMP JUMPDEST PUSH0 PUSH2 0x1141 DUP3 PUSH2 0x107C JUMP JUMPDEST PUSH2 0x114B DUP2 DUP6 PUSH2 0x1086 JUMP JUMPDEST SWAP4 POP DUP4 PUSH1 0x20 DUP3 MUL DUP6 ADD PUSH2 0x115D DUP6 PUSH2 0x1096 JUMP JUMPDEST DUP1 PUSH0 JUMPDEST DUP6 DUP2 LT ISZERO PUSH2 0x1198 JUMPI DUP5 DUP5 SUB DUP10 MSTORE DUP2 MLOAD PUSH2 0x1179 DUP6 DUP3 PUSH2 0x1118 JUMP JUMPDEST SWAP5 POP PUSH2 0x1184 DUP4 PUSH2 0x112B JUMP JUMPDEST SWAP3 POP PUSH1 0x20 DUP11 ADD SWAP10 POP POP PUSH1 0x1 DUP2 ADD SWAP1 POP PUSH2 0x1160 JUMP JUMPDEST POP DUP3 SWAP8 POP DUP8 SWAP6 POP POP POP POP POP POP SWAP3 SWAP2 POP POP JUMP JUMPDEST PUSH0 PUSH1 0x20 DUP3 ADD SWAP1 POP DUP2 DUP2 SUB PUSH0 DUP4 ADD MSTORE PUSH2 0x11C2 DUP2 DUP5 PUSH2 0x1137 JUMP JUMPDEST SWAP1 POP SWAP3 SWAP2 POP POP JUMP JUMPDEST PUSH32 0x4E487B7100000000000000000000000000000000000000000000000000000000 PUSH0 MSTORE PUSH1 0x22 PUSH1 0x4 MSTORE PUSH1 0x24 PUSH0 REVERT JUMPDEST PUSH0 PUSH1 0x2 DUP3 DIV SWAP1 POP PUSH1 0x1 DUP3 AND DUP1 PUSH2 0x120E JUMPI PUSH1 0x7F DUP3 AND SWAP2 POP JUMPDEST PUSH1 0x20 DUP3 LT DUP2 SUB PUSH2 0x1221 JUMPI PUSH2 0x1220 PUSH2 0x11CA JUMP JUMPDEST JUMPDEST POP SWAP2 SWAP1 POP JUMP JUMPDEST PUSH32 0x4E487B7100000000000000000000000000000000000000000000000000000000 PUSH0 MSTORE PUSH1 0x32 PUSH1 0x4 MSTORE PUSH1 0x24 PUSH0 REVERT JUMPDEST PUSH32 0x494E56414C494420545745455420494E44455800000000000000000000000000 PUSH0 DUP3 ADD MSTORE POP JUMP JUMPDEST PUSH0 PUSH2 0x1288 PUSH1 0x13 DUP4 PUSH2 0xC84 JUMP JUMPDEST SWAP2 POP PUSH2 0x1293 DUP3 PUSH2 0x1254 JUMP JUMPDEST PUSH1 0x20 DUP3 ADD SWAP1 POP SWAP2 SWAP1 POP JUMP JUMPDEST PUSH0 PUSH1 0x20 DUP3 ADD SWAP1 POP DUP2 DUP2 SUB PUSH0 DUP4 ADD MSTORE PUSH2 0x12B5 DUP2 PUSH2 0x127C JUMP JUMPDEST SWAP1 POP SWAP2 SWAP1 POP JUMP JUMPDEST PUSH32 0x545745455420484153204E4F204C494B45530000000000000000000000000000 PUSH0 DUP3 ADD MSTORE POP JUMP JUMPDEST PUSH0 PUSH2 0x12F0 PUSH1 0x12 DUP4 PUSH2 0xC84 JUMP JUMPDEST SWAP2 POP PUSH2 0x12FB DUP3 PUSH2 0x12BC JUMP JUMPDEST PUSH1 0x20 DUP3 ADD SWAP1 POP SWAP2 SWAP1 POP JUMP JUMPDEST PUSH0 PUSH1 0x20 DUP3 ADD SWAP1 POP DUP2 DUP2 SUB PUSH0 DUP4 ADD MSTORE PUSH2 0x131D DUP2 PUSH2 0x12E4 JUMP JUMPDEST SWAP1 POP SWAP2 SWAP1 POP JUMP JUMPDEST PUSH32 0x4E487B7100000000000000000000000000000000000000000000000000000000 PUSH0 MSTORE PUSH1 0x11 PUSH1 0x4 MSTORE PUSH1 0x24 PUSH0 REVERT JUMPDEST PUSH0 PUSH2 0x135B DUP3 PUSH2 0xBEB JUMP JUMPDEST SWAP2 POP PUSH0 DUP3 SUB PUSH2 0x136D JUMPI PUSH2 0x136C PUSH2 0x1324 JUMP JUMPDEST JUMPDEST PUSH1 0x1 DUP3 SUB SWAP1 POP SWAP2 SWAP1 POP JUMP JUMPDEST PUSH32 0x594F5520415245204E4F5420544845204F574E45520000000000000000000000 PUSH0 DUP3 ADD MSTORE POP JUMP JUMPDEST PUSH0 PUSH2 0x13AC PUSH1 0x15 DUP4 PUSH2 0xC84 JUMP JUMPDEST SWAP2 POP PUSH2 0x13B7 DUP3 PUSH2 0x1378 JUMP JUMPDEST PUSH1 0x20 DUP3 ADD SWAP1 POP SWAP2 SWAP1 POP JUMP JUMPDEST PUSH0 PUSH1 0x20 DUP3 ADD SWAP1 POP DUP2 DUP2 SUB PUSH0 DUP4 ADD MSTORE PUSH2 0x13D9 DUP2 PUSH2 0x13A0 JUMP JUMPDEST SWAP1 POP SWAP2 SWAP1 POP JUMP JUMPDEST PUSH0 PUSH2 0x13EA DUP3 PUSH2 0xBEB JUMP JUMPDEST SWAP2 POP PUSH32 0xFFFFFFFFFFFFFFFFFFFFFFFFFFFFFFFFFFFFFFFFFFFFFFFFFFFFFFFFFFFFFFFF DUP3 SUB PUSH2 0x141C JUMPI PUSH2 0x141B PUSH2 0x1324 JUMP JUMPDEST JUMPDEST PUSH1 0x1 DUP3 ADD SWAP1 POP SWAP2 SWAP1 POP JUMP JUMPDEST PUSH32 0x545745455420544F4F204C4F4F4F4F4E472042524F4F4F4F4F4F4F2121212100 PUSH0 DUP3 ADD MSTORE POP JUMP JUMPDEST PUSH0 PUSH2 0x145B PUSH1 0x1F DUP4 PUSH2 0xC84 JUMP JUMPDEST SWAP2 POP PUSH2 0x1466 DUP3 PUSH2 0x1427 JUMP JUMPDEST PUSH1 0x20 DUP3 ADD SWAP1 POP SWAP2 SWAP1 POP JUMP JUMPDEST PUSH0 PUSH1 0x20 DUP3 ADD SWAP1 POP DUP2 DUP2 SUB PUSH0 DUP4 ADD MSTORE PUSH2 0x1488 DUP2 PUSH2 0x144F JUMP JUMPDEST SWAP1 POP SWAP2 SWAP1 POP JUMP JUMPDEST PUSH0 DUP2 SWAP1 POP DUP2 PUSH0 MSTORE PUSH1 0x20 PUSH0 KECCAK256 SWAP1 POP SWAP2 SWAP1 POP JUMP JUMPDEST PUSH0 PUSH1 0x20 PUSH1 0x1F DUP4 ADD DIV SWAP1 POP SWAP2 SWAP1 POP JUMP JUMPDEST PUSH0 DUP3 DUP3 SHL SWAP1 POP SWAP3 SWAP2 POP POP JUMP JUMPDEST PUSH0 PUSH1 0x8 DUP4 MUL PUSH2 0x14EB PUSH32 0xFFFFFFFFFFFFFFFFFFFFFFFFFFFFFFFFFFFFFFFFFFFFFFFFFFFFFFFFFFFFFFFF DUP3 PUSH2 0x14B0 JUMP JUMPDEST PUSH2 0x14F5 DUP7 DUP4 PUSH2 0x14B0 JUMP JUMPDEST SWAP6 POP DUP1 NOT DUP5 AND SWAP4 POP DUP1 DUP7 AND DUP5 OR SWAP3 POP POP POP SWAP4 SWAP3 POP POP POP JUMP JUMPDEST PUSH0 DUP2 SWAP1 POP SWAP2 SWAP1 POP JUMP JUMPDEST PUSH0 PUSH2 0x1530 PUSH2 0x152B PUSH2 0x1526 DUP5 PUSH2 0xBEB JUMP JUMPDEST PUSH2 0x150D JUMP JUMPDEST PUSH2 0xBEB JUMP JUMPDEST SWAP1 POP SWAP2 SWAP1 POP JUMP JUMPDEST PUSH0 DUP2 SWAP1 POP SWAP2 SWAP1 POP JUMP JUMPDEST PUSH2 0x1549 DUP4 PUSH2 0x1516 JUMP JUMPDEST PUSH2 0x155D PUSH2 0x1555 DUP3 PUSH2 0x1537 JUMP JUMPDEST DUP5 DUP5 SLOAD PUSH2 0x14BC JUMP JUMPDEST DUP3 SSTORE POP POP POP POP JUMP JUMPDEST PUSH0 SWAP1 JUMP JUMPDEST PUSH2 0x1571 PUSH2 0x1565 JUMP JUMPDEST PUSH2 0x157C DUP2 DUP5 DUP5 PUSH2 0x1540 JUMP JUMPDEST POP POP POP JUMP JUMPDEST JUMPDEST DUP2 DUP2 LT ISZERO PUSH2 0x159F JUMPI PUSH2 0x1594 PUSH0 DUP3 PUSH2 0x1569 JUMP JUMPDEST PUSH1 0x1 DUP2 ADD SWAP1 POP PUSH2 0x1582 JUMP JUMPDEST POP POP JUMP JUMPDEST PUSH1 0x1F DUP3 GT ISZERO PUSH2 0x15E4 JUMPI PUSH2 0x15B5 DUP2 PUSH2 0x148F JUMP JUMPDEST PUSH2 0x15BE DUP5 PUSH2 0x14A1 JUMP JUMPDEST DUP2 ADD PUSH1 0x20 DUP6 LT ISZERO PUSH2 0x15CD JUMPI DUP2 SWAP1 POP JUMPDEST PUSH2 0x15E1 PUSH2 0x15D9 DUP6 PUSH2 0x14A1 JUMP JUMPDEST DUP4 ADD DUP3 PUSH2 0x1581 JUMP JUMPDEST POP POP JUMPDEST POP POP POP JUMP JUMPDEST PUSH0 DUP3 DUP3 SHR SWAP1 POP SWAP3 SWAP2 POP POP JUMP JUMPDEST PUSH0 PUSH2 0x1604 PUSH0 NOT DUP5 PUSH1 0x8 MUL PUSH2 0x15E9 JUMP JUMPDEST NOT DUP1 DUP4 AND SWAP2 POP POP SWAP3 SWAP2 POP POP JUMP JUMPDEST PUSH0 PUSH2 0x161C DUP4 DUP4 PUSH2 0x15F5 JUMP JUMPDEST SWAP2 POP DUP3 PUSH1 0x2 MUL DUP3 OR SWAP1 POP SWAP3 SWAP2 POP POP JUMP JUMPDEST PUSH2 0x1635 DUP3 PUSH2 0xC7A JUMP JUMPDEST PUSH8 0xFFFFFFFFFFFFFFFF DUP2 GT ISZERO PUSH2 0x164E JUMPI PUSH2 0x164D PUSH2 0xECD JUMP JUMPDEST JUMPDEST PUSH2 0x1658 DUP3 SLOAD PUSH2 0x11F7 JUMP JUMPDEST PUSH2 0x1663 DUP3 DUP3 DUP6 PUSH2 0x15A3 JUMP JUMPDEST PUSH0 PUSH1 0x20 SWAP1 POP PUSH1 0x1F DUP4 GT PUSH1 0x1 DUP2 EQ PUSH2 0x1694 JUMPI PUSH0 DUP5 ISZERO PUSH2 0x1682 JUMPI DUP3 DUP8 ADD MLOAD SWAP1 POP JUMPDEST PUSH2 0x168C DUP6 DUP3 PUSH2 0x1611 JUMP JUMPDEST DUP7 SSTORE POP PUSH2 0x16F3 JUMP JUMPDEST PUSH1 0x1F NOT DUP5 AND PUSH2 0x16A2 DUP7 PUSH2 0x148F JUMP JUMPDEST PUSH0 JUMPDEST DUP3 DUP2 LT ISZERO PUSH2 0x16C9 JUMPI DUP5 DUP10 ADD MLOAD DUP3 SSTORE PUSH1 0x1 DUP3 ADD SWAP2 POP PUSH1 0x20 DUP6 ADD SWAP5 POP PUSH1 0x20 DUP2 ADD SWAP1 POP PUSH2 0x16A4 JUMP JUMPDEST DUP7 DUP4 LT ISZERO PUSH2 0x16E6 JUMPI DUP5 DUP10 ADD MLOAD PUSH2 0x16E2 PUSH1 0x1F DUP10 AND DUP3 PUSH2 0x15F5 JUMP JUMPDEST DUP4 SSTORE POP JUMPDEST PUSH1 0x1 PUSH1 0x2 DUP9 MUL ADD DUP9 SSTORE POP POP POP JUMPDEST POP POP POP POP POP POP JUMP INVALID LOG2 PUSH5 0x6970667358 0x22 SLT KECCAK256 0xB3 MULMOD 0xB7 GT 0xBA 0x26 PUSH25 0xF01548D412A9ABC1004F1E93608F4550F44B5FFB7670387383 PUSH5 0x736F6C6343 STOP ADDMOD BYTE STOP CALLER "
				},
				"gasEstimates": {
					"creation": {
						"codeDepositCost": "1187400",
						"executionCost": "49763",
						"totalCost": "1237163"
					},
					"external": {
						"MAX_TWEET_LENGTH()": "2485",
						"changeTweetLength(uint16)": "26909",
						"createTweet(string)": "infinite",
						"getTweets(address)": "infinite",
						"likeTweet(address,uint256)": "infinite",
						"owner()": "2574",
						"singleTweet(address,uint256)": "infinite",
						"tweets(address,uint256)": "infinite",
						"unlikeTweet(address,uint256)": "infinite"
					}
				},
				"methodIdentifiers": {
					"MAX_TWEET_LENGTH()": "6eb10797",
					"changeTweetLength(uint16)": "58bfa4ab",
					"createTweet(string)": "7c9cd2bc",
					"getTweets(address)": "9e92b093",
					"likeTweet(address,uint256)": "63378216",
					"owner()": "8da5cb5b",
					"singleTweet(address,uint256)": "254e4019",
					"tweets(address,uint256)": "05a1b4a9",
					"unlikeTweet(address,uint256)": "3d9b569f"
				}
			},
			"storageLayout": {
				"storage": [
					{
						"astId": 4,
						"contract": "Solidity/Solidity/Contracts/Projects/twitter_modifiers.sol:twitterModifiers",
						"label": "MAX_TWEET_LENGTH",
						"offset": 0,
						"slot": "0",
						"type": "t_uint16"
					},
					{
						"astId": 21,
						"contract": "Solidity/Solidity/Contracts/Projects/twitter_modifiers.sol:twitterModifiers",
						"label": "tweets",
						"offset": 0,
						"slot": "1",
						"type": "t_mapping(t_address,t_array(t_struct(Tweet)15_storage)dyn_storage)"
					},
					{
						"astId": 23,
						"contract": "Solidity/Solidity/Contracts/Projects/twitter_modifiers.sol:twitterModifiers",
						"label": "owner",
						"offset": 0,
						"slot": "2",
						"type": "t_address"
					}
				],
				"types": {
					"t_address": {
						"encoding": "inplace",
						"label": "address",
						"numberOfBytes": "20"
					},
					"t_array(t_struct(Tweet)15_storage)dyn_storage": {
						"base": "t_struct(Tweet)15_storage",
						"encoding": "dynamic_array",
						"label": "struct twitterModifiers.Tweet[]",
						"numberOfBytes": "32"
					},
					"t_mapping(t_address,t_array(t_struct(Tweet)15_storage)dyn_storage)": {
						"encoding": "mapping",
						"key": "t_address",
						"label": "mapping(address => struct twitterModifiers.Tweet[])",
						"numberOfBytes": "32",
						"value": "t_array(t_struct(Tweet)15_storage)dyn_storage"
					},
					"t_string_storage": {
						"encoding": "bytes",
						"label": "string",
						"numberOfBytes": "32"
					},
					"t_struct(Tweet)15_storage": {
						"encoding": "inplace",
						"label": "struct twitterModifiers.Tweet",
						"members": [
							{
								"astId": 6,
								"contract": "Solidity/Solidity/Contracts/Projects/twitter_modifiers.sol:twitterModifiers",
								"label": "id",
								"offset": 0,
								"slot": "0",
								"type": "t_uint256"
							},
							{
								"astId": 8,
								"contract": "Solidity/Solidity/Contracts/Projects/twitter_modifiers.sol:twitterModifiers",
								"label": "author",
								"offset": 0,
								"slot": "1",
								"type": "t_address"
							},
							{
								"astId": 10,
								"contract": "Solidity/Solidity/Contracts/Projects/twitter_modifiers.sol:twitterModifiers",
								"label": "content",
								"offset": 0,
								"slot": "2",
								"type": "t_string_storage"
							},
							{
								"astId": 12,
								"contract": "Solidity/Solidity/Contracts/Projects/twitter_modifiers.sol:twitterModifiers",
								"label": "timestamp",
								"offset": 0,
								"slot": "3",
								"type": "t_uint256"
							},
							{
								"astId": 14,
								"contract": "Solidity/Solidity/Contracts/Projects/twitter_modifiers.sol:twitterModifiers",
								"label": "likes",
								"offset": 0,
								"slot": "4",
								"type": "t_uint256"
							}
						],
						"numberOfBytes": "160"
					},
					"t_uint16": {
						"encoding": "inplace",
						"label": "uint16",
						"numberOfBytes": "2"
					},
					"t_uint256": {
						"encoding": "inplace",
						"label": "uint256",
						"numberOfBytes": "32"
					}
				}
			},
			"userdoc": {
				"kind": "user",
				"methods": {},
				"version": 1
			}
		}
	}
}