{
	"Solidity/Solidity/Contracts/Projects/twitter_structs.sol": {
		"twitterStructs": {
			"abi": [
				{
					"inputs": [
						{
							"internalType": "string",
							"name": "tweetContent",
							"type": "string"
						}
					],
					"name": "createTweet",
					"outputs": [],
					"stateMutability": "nonpayable",
					"type": "function"
				},
				{
					"inputs": [
						{
							"internalType": "address",
							"name": "_owner",
							"type": "address"
						}
					],
					"name": "getTweets",
					"outputs": [
						{
							"components": [
								{
									"internalType": "address",
									"name": "owner",
									"type": "address"
								},
								{
									"internalType": "string",
									"name": "content",
									"type": "string"
								},
								{
									"internalType": "uint256",
									"name": "timestamp",
									"type": "uint256"
								},
								{
									"internalType": "uint256",
									"name": "likes",
									"type": "uint256"
								}
							],
							"internalType": "struct twitterStructs.Tweet[]",
							"name": "",
							"type": "tuple[]"
						}
					],
					"stateMutability": "view",
					"type": "function"
				},
				{
					"inputs": [
						{
							"internalType": "address",
							"name": "_owner",
							"type": "address"
						},
						{
							"internalType": "uint256",
							"name": "_i",
							"type": "uint256"
						}
					],
					"name": "singleTweet",
					"outputs": [
						{
							"components": [
								{
									"internalType": "address",
									"name": "owner",
									"type": "address"
								},
								{
									"internalType": "string",
									"name": "content",
									"type": "string"
								},
								{
									"internalType": "uint256",
									"name": "timestamp",
									"type": "uint256"
								},
								{
									"internalType": "uint256",
									"name": "likes",
									"type": "uint256"
								}
							],
							"internalType": "struct twitterStructs.Tweet",
							"name": "",
							"type": "tuple"
						}
					],
					"stateMutability": "view",
					"type": "function"
				},
				{
					"inputs": [
						{
							"internalType": "address",
							"name": "",
							"type": "address"
						},
						{
							"internalType": "uint256",
							"name": "",
							"type": "uint256"
						}
					],
					"name": "tweets",
					"outputs": [
						{
							"internalType": "address",
							"name": "owner",
							"type": "address"
						},
						{
							"internalType": "string",
							"name": "content",
							"type": "string"
						},
						{
							"internalType": "uint256",
							"name": "timestamp",
							"type": "uint256"
						},
						{
							"internalType": "uint256",
							"name": "likes",
							"type": "uint256"
						}
					],
					"stateMutability": "view",
					"type": "function"
				}
			],
			"devdoc": {
				"kind": "dev",
				"methods": {},
				"version": 1
			},
			"evm": {
				"assembly": "    /* \"Solidity/Solidity/Contracts/Projects/twitter_structs.sol\":60:1275  contract twitterStructs{... */\n  mstore(0x40, 0x80)\n  callvalue\n  dup1\n  iszero\n  tag_1\n  jumpi\n  0x00\n  dup1\n  revert\ntag_1:\n  pop\n  dataSize(sub_0)\n  dup1\n  dataOffset(sub_0)\n  0x00\n  codecopy\n  0x00\n  return\nstop\n\nsub_0: assembly {\n        /* \"Solidity/Solidity/Contracts/Projects/twitter_structs.sol\":60:1275  contract twitterStructs{... */\n      mstore(0x40, 0x80)\n      callvalue\n      dup1\n      iszero\n      tag_1\n      jumpi\n      0x00\n      dup1\n      revert\n    tag_1:\n      pop\n      jumpi(tag_2, lt(calldatasize, 0x04))\n      shr(0xe0, calldataload(0x00))\n      dup1\n      0x05a1b4a9\n      eq\n      tag_3\n      jumpi\n      dup1\n      0x254e4019\n      eq\n      tag_4\n      jumpi\n      dup1\n      0x7c9cd2bc\n      eq\n      tag_5\n      jumpi\n      dup1\n      0x9e92b093\n      eq\n      tag_6\n      jumpi\n    tag_2:\n      0x00\n      dup1\n      revert\n        /* \"Solidity/Solidity/Contracts/Projects/twitter_structs.sol\":372:414  mapping (address => Tweet[]) public tweets */\n    tag_3:\n      tag_7\n      0x04\n      dup1\n      calldatasize\n      sub\n      dup2\n      add\n      swap1\n      tag_8\n      swap2\n      swap1\n      tag_9\n      jump\t// in\n    tag_8:\n      tag_10\n      jump\t// in\n    tag_7:\n      mload(0x40)\n      tag_11\n      swap5\n      swap4\n      swap3\n      swap2\n      swap1\n      tag_12\n      jump\t// in\n    tag_11:\n      mload(0x40)\n      dup1\n      swap2\n      sub\n      swap1\n      return\n        /* \"Solidity/Solidity/Contracts/Projects/twitter_structs.sol\":1143:1269  function singleTweet(address _owner, uint _i) external view returns (Tweet memory){... */\n    tag_4:\n      tag_13\n      0x04\n      dup1\n      calldatasize\n      sub\n      dup2\n      add\n      swap1\n      tag_14\n      swap2\n      swap1\n      tag_9\n      jump\t// in\n    tag_14:\n      tag_15\n      jump\t// in\n    tag_13:\n      mload(0x40)\n      tag_16\n      swap2\n      swap1\n      tag_17\n      jump\t// in\n    tag_16:\n      mload(0x40)\n      dup1\n      swap2\n      sub\n      swap1\n      return\n        /* \"Solidity/Solidity/Contracts/Projects/twitter_structs.sol\":423:946  function createTweet(string memory tweetContent)public {... */\n    tag_5:\n      tag_18\n      0x04\n      dup1\n      calldatasize\n      sub\n      dup2\n      add\n      swap1\n      tag_19\n      swap2\n      swap1\n      tag_20\n      jump\t// in\n    tag_19:\n      tag_21\n      jump\t// in\n    tag_18:\n      stop\n        /* \"Solidity/Solidity/Contracts/Projects/twitter_structs.sol\":988:1101  function getTweets(address _owner) external view returns (Tweet[] memory){... */\n    tag_6:\n      tag_22\n      0x04\n      dup1\n      calldatasize\n      sub\n      dup2\n      add\n      swap1\n      tag_23\n      swap2\n      swap1\n      tag_24\n      jump\t// in\n    tag_23:\n      tag_25\n      jump\t// in\n    tag_22:\n      mload(0x40)\n      tag_26\n      swap2\n      swap1\n      tag_27\n      jump\t// in\n    tag_26:\n      mload(0x40)\n      dup1\n      swap2\n      sub\n      swap1\n      return\n        /* \"Solidity/Solidity/Contracts/Projects/twitter_structs.sol\":372:414  mapping (address => Tweet[]) public tweets */\n    tag_10:\n      mstore(0x20, 0x00)\n      dup2\n      0x00\n      mstore\n      keccak256(0x00, 0x40)\n      dup2\n      dup2\n      sload\n      dup2\n      lt\n      tag_28\n      jumpi\n      0x00\n      dup1\n      revert\n    tag_28:\n      swap1\n      0x00\n      mstore\n      keccak256(0x00, 0x20)\n      swap1\n      0x04\n      mul\n      add\n      0x00\n      swap2\n      pop\n      swap2\n      pop\n      pop\n      dup1\n      0x00\n      add\n      0x00\n      swap1\n      sload\n      swap1\n      0x0100\n      exp\n      swap1\n      div\n      0xffffffffffffffffffffffffffffffffffffffff\n      and\n      swap1\n      dup1\n      0x01\n      add\n      dup1\n      sload\n      tag_30\n      swap1\n      tag_31\n      jump\t// in\n    tag_30:\n      dup1\n      0x1f\n      add\n      0x20\n      dup1\n      swap2\n      div\n      mul\n      0x20\n      add\n      mload(0x40)\n      swap1\n      dup2\n      add\n      0x40\n      mstore\n      dup1\n      swap3\n      swap2\n      swap1\n      dup2\n      dup2\n      mstore\n      0x20\n      add\n      dup3\n      dup1\n      sload\n      tag_32\n      swap1\n      tag_31\n      jump\t// in\n    tag_32:\n      dup1\n      iszero\n      tag_33\n      jumpi\n      dup1\n      0x1f\n      lt\n      tag_34\n      jumpi\n      0x0100\n      dup1\n      dup4\n      sload\n      div\n      mul\n      dup4\n      mstore\n      swap2\n      0x20\n      add\n      swap2\n      jump(tag_33)\n    tag_34:\n      dup3\n      add\n      swap2\n      swap1\n      0x00\n      mstore\n      keccak256(0x00, 0x20)\n      swap1\n    tag_35:\n      dup2\n      sload\n      dup2\n      mstore\n      swap1\n      0x01\n      add\n      swap1\n      0x20\n      add\n      dup1\n      dup4\n      gt\n      tag_35\n      jumpi\n      dup3\n      swap1\n      sub\n      0x1f\n      and\n      dup3\n      add\n      swap2\n    tag_33:\n      pop\n      pop\n      pop\n      pop\n      pop\n      swap1\n      dup1\n      0x02\n      add\n      sload\n      swap1\n      dup1\n      0x03\n      add\n      sload\n      swap1\n      pop\n      dup5\n      jump\t// out\n        /* \"Solidity/Solidity/Contracts/Projects/twitter_structs.sol\":1143:1269  function singleTweet(address _owner, uint _i) external view returns (Tweet memory){... */\n    tag_15:\n        /* \"Solidity/Solidity/Contracts/Projects/twitter_structs.sol\":1212:1224  Tweet memory */\n      tag_36\n      tag_37\n      jump\t// in\n    tag_36:\n        /* \"Solidity/Solidity/Contracts/Projects/twitter_structs.sol\":1243:1249  tweets */\n      0x00\n        /* \"Solidity/Solidity/Contracts/Projects/twitter_structs.sol\":1243:1257  tweets[_owner] */\n      dup1\n        /* \"Solidity/Solidity/Contracts/Projects/twitter_structs.sol\":1250:1256  _owner */\n      dup5\n        /* \"Solidity/Solidity/Contracts/Projects/twitter_structs.sol\":1243:1257  tweets[_owner] */\n      0xffffffffffffffffffffffffffffffffffffffff\n      and\n      0xffffffffffffffffffffffffffffffffffffffff\n      and\n      dup2\n      mstore\n      0x20\n      add\n      swap1\n      dup2\n      mstore\n      0x20\n      add\n      0x00\n      keccak256\n        /* \"Solidity/Solidity/Contracts/Projects/twitter_structs.sol\":1258:1260  _i */\n      dup3\n        /* \"Solidity/Solidity/Contracts/Projects/twitter_structs.sol\":1243:1261  tweets[_owner][_i] */\n      dup2\n      sload\n      dup2\n      lt\n      tag_39\n      jumpi\n      tag_40\n      tag_41\n      jump\t// in\n    tag_40:\n    tag_39:\n      swap1\n      0x00\n      mstore\n      keccak256(0x00, 0x20)\n      swap1\n      0x04\n      mul\n      add\n        /* \"Solidity/Solidity/Contracts/Projects/twitter_structs.sol\":1236:1261  return tweets[_owner][_i] */\n      mload(0x40)\n      dup1\n      0x80\n      add\n      0x40\n      mstore\n      swap1\n      dup2\n      0x00\n      dup3\n      add\n      0x00\n      swap1\n      sload\n      swap1\n      0x0100\n      exp\n      swap1\n      div\n      0xffffffffffffffffffffffffffffffffffffffff\n      and\n      0xffffffffffffffffffffffffffffffffffffffff\n      and\n      0xffffffffffffffffffffffffffffffffffffffff\n      and\n      dup2\n      mstore\n      0x20\n      add\n      0x01\n      dup3\n      add\n      dup1\n      sload\n      tag_43\n      swap1\n      tag_31\n      jump\t// in\n    tag_43:\n      dup1\n      0x1f\n      add\n      0x20\n      dup1\n      swap2\n      div\n      mul\n      0x20\n      add\n      mload(0x40)\n      swap1\n      dup2\n      add\n      0x40\n      mstore\n      dup1\n      swap3\n      swap2\n      swap1\n      dup2\n      dup2\n      mstore\n      0x20\n      add\n      dup3\n      dup1\n      sload\n      tag_44\n      swap1\n      tag_31\n      jump\t// in\n    tag_44:\n      dup1\n      iszero\n      tag_45\n      jumpi\n      dup1\n      0x1f\n      lt\n      tag_46\n      jumpi\n      0x0100\n      dup1\n      dup4\n      sload\n      div\n      mul\n      dup4\n      mstore\n      swap2\n      0x20\n      add\n      swap2\n      jump(tag_45)\n    tag_46:\n      dup3\n      add\n      swap2\n      swap1\n      0x00\n      mstore\n      keccak256(0x00, 0x20)\n      swap1\n    tag_47:\n      dup2\n      sload\n      dup2\n      mstore\n      swap1\n      0x01\n      add\n      swap1\n      0x20\n      add\n      dup1\n      dup4\n      gt\n      tag_47\n      jumpi\n      dup3\n      swap1\n      sub\n      0x1f\n      and\n      dup3\n      add\n      swap2\n    tag_45:\n      pop\n      pop\n      pop\n      pop\n      pop\n      dup2\n      mstore\n      0x20\n      add\n      0x02\n      dup3\n      add\n      sload\n      dup2\n      mstore\n      0x20\n      add\n      0x03\n      dup3\n      add\n      sload\n      dup2\n      mstore\n      pop\n      pop\n      swap1\n      pop\n        /* \"Solidity/Solidity/Contracts/Projects/twitter_structs.sol\":1143:1269  function singleTweet(address _owner, uint _i) external view returns (Tweet memory){... */\n      swap3\n      swap2\n      pop\n      pop\n      jump\t// out\n        /* \"Solidity/Solidity/Contracts/Projects/twitter_structs.sol\":423:946  function createTweet(string memory tweetContent)public {... */\n    tag_21:\n        /* \"Solidity/Solidity/Contracts/Projects/twitter_structs.sol\":127:128  5 */\n      0x05\n        /* \"Solidity/Solidity/Contracts/Projects/twitter_structs.sol\":579:625  bytes(tweetContent).length <= MAX_TWEET_LENGTH */\n      0xffff\n      and\n        /* \"Solidity/Solidity/Contracts/Projects/twitter_structs.sol\":585:597  tweetContent */\n      dup2\n        /* \"Solidity/Solidity/Contracts/Projects/twitter_structs.sol\":579:605  bytes(tweetContent).length */\n      mload\n        /* \"Solidity/Solidity/Contracts/Projects/twitter_structs.sol\":579:625  bytes(tweetContent).length <= MAX_TWEET_LENGTH */\n      gt\n      iszero\n        /* \"Solidity/Solidity/Contracts/Projects/twitter_structs.sol\":570:662  require((bytes(tweetContent).length <= MAX_TWEET_LENGTH), \"TWEET TOO LOOOONG BROOOOOOO!!!!\") */\n      tag_49\n      jumpi\n      mload(0x40)\n      0x08c379a000000000000000000000000000000000000000000000000000000000\n      dup2\n      mstore\n      0x04\n      add\n      tag_50\n      swap1\n      tag_51\n      jump\t// in\n    tag_50:\n      mload(0x40)\n      dup1\n      swap2\n      sub\n      swap1\n      revert\n    tag_49:\n        /* \"Solidity/Solidity/Contracts/Projects/twitter_structs.sol\":716:738  Tweet memory newTweets */\n      0x00\n        /* \"Solidity/Solidity/Contracts/Projects/twitter_structs.sol\":741:891  Tweet({... */\n      mload(0x40)\n      dup1\n      0x80\n      add\n      0x40\n      mstore\n      dup1\n        /* \"Solidity/Solidity/Contracts/Projects/twitter_structs.sol\":769:779  msg.sender */\n      caller\n        /* \"Solidity/Solidity/Contracts/Projects/twitter_structs.sol\":741:891  Tweet({... */\n      0xffffffffffffffffffffffffffffffffffffffff\n      and\n      dup2\n      mstore\n      0x20\n      add\n        /* \"Solidity/Solidity/Contracts/Projects/twitter_structs.sol\":803:815  tweetContent */\n      dup4\n        /* \"Solidity/Solidity/Contracts/Projects/twitter_structs.sol\":741:891  Tweet({... */\n      dup2\n      mstore\n      0x20\n      add\n        /* \"Solidity/Solidity/Contracts/Projects/twitter_structs.sol\":841:856  block.timestamp */\n      timestamp\n        /* \"Solidity/Solidity/Contracts/Projects/twitter_structs.sol\":741:891  Tweet({... */\n      dup2\n      mstore\n      0x20\n      add\n        /* \"Solidity/Solidity/Contracts/Projects/twitter_structs.sol\":878:879  0 */\n      0x00\n        /* \"Solidity/Solidity/Contracts/Projects/twitter_structs.sol\":741:891  Tweet({... */\n      dup2\n      mstore\n      pop\n        /* \"Solidity/Solidity/Contracts/Projects/twitter_structs.sol\":716:891  Tweet memory newTweets = Tweet({... */\n      swap1\n      pop\n        /* \"Solidity/Solidity/Contracts/Projects/twitter_structs.sol\":904:910  tweets */\n      0x00\n        /* \"Solidity/Solidity/Contracts/Projects/twitter_structs.sol\":904:922  tweets[msg.sender] */\n      dup1\n        /* \"Solidity/Solidity/Contracts/Projects/twitter_structs.sol\":911:921  msg.sender */\n      caller\n        /* \"Solidity/Solidity/Contracts/Projects/twitter_structs.sol\":904:922  tweets[msg.sender] */\n      0xffffffffffffffffffffffffffffffffffffffff\n      and\n      0xffffffffffffffffffffffffffffffffffffffff\n      and\n      dup2\n      mstore\n      0x20\n      add\n      swap1\n      dup2\n      mstore\n      0x20\n      add\n      0x00\n      keccak256\n        /* \"Solidity/Solidity/Contracts/Projects/twitter_structs.sol\":928:937  newTweets */\n      dup2\n        /* \"Solidity/Solidity/Contracts/Projects/twitter_structs.sol\":904:938  tweets[msg.sender].push(newTweets) */\n      swap1\n      dup1\n      0x01\n      dup2\n      sload\n      add\n      dup1\n      dup3\n      sstore\n      dup1\n      swap2\n      pop\n      pop\n      0x01\n      swap1\n      sub\n      swap1\n      0x00\n      mstore\n      keccak256(0x00, 0x20)\n      swap1\n      0x04\n      mul\n      add\n      0x00\n      swap1\n      swap2\n      swap1\n      swap2\n      swap1\n      swap2\n      pop\n      0x00\n      dup3\n      add\n      mload\n      dup2\n      0x00\n      add\n      exp(0x0100, 0x00)\n      dup2\n      sload\n      dup2\n      0xffffffffffffffffffffffffffffffffffffffff\n      mul\n      not\n      and\n      swap1\n      dup4\n      0xffffffffffffffffffffffffffffffffffffffff\n      and\n      mul\n      or\n      swap1\n      sstore\n      pop\n      0x20\n      dup3\n      add\n      mload\n      dup2\n      0x01\n      add\n      swap1\n      dup2\n      tag_53\n      swap2\n      swap1\n      tag_54\n      jump\t// in\n    tag_53:\n      pop\n      0x40\n      dup3\n      add\n      mload\n      dup2\n      0x02\n      add\n      sstore\n      0x60\n      dup3\n      add\n      mload\n      dup2\n      0x03\n      add\n      sstore\n      pop\n      pop\n        /* \"Solidity/Solidity/Contracts/Projects/twitter_structs.sol\":478:946  {... */\n      pop\n        /* \"Solidity/Solidity/Contracts/Projects/twitter_structs.sol\":423:946  function createTweet(string memory tweetContent)public {... */\n      pop\n      jump\t// out\n        /* \"Solidity/Solidity/Contracts/Projects/twitter_structs.sol\":988:1101  function getTweets(address _owner) external view returns (Tweet[] memory){... */\n    tag_25:\n        /* \"Solidity/Solidity/Contracts/Projects/twitter_structs.sol\":1046:1060  Tweet[] memory */\n      0x60\n        /* \"Solidity/Solidity/Contracts/Projects/twitter_structs.sol\":1079:1085  tweets */\n      0x00\n        /* \"Solidity/Solidity/Contracts/Projects/twitter_structs.sol\":1079:1093  tweets[_owner] */\n      dup1\n        /* \"Solidity/Solidity/Contracts/Projects/twitter_structs.sol\":1086:1092  _owner */\n      dup4\n        /* \"Solidity/Solidity/Contracts/Projects/twitter_structs.sol\":1079:1093  tweets[_owner] */\n      0xffffffffffffffffffffffffffffffffffffffff\n      and\n      0xffffffffffffffffffffffffffffffffffffffff\n      and\n      dup2\n      mstore\n      0x20\n      add\n      swap1\n      dup2\n      mstore\n      0x20\n      add\n      0x00\n      keccak256\n        /* \"Solidity/Solidity/Contracts/Projects/twitter_structs.sol\":1072:1093  return tweets[_owner] */\n      dup1\n      sload\n      dup1\n      0x20\n      mul\n      0x20\n      add\n      mload(0x40)\n      swap1\n      dup2\n      add\n      0x40\n      mstore\n      dup1\n      swap3\n      swap2\n      swap1\n      dup2\n      dup2\n      mstore\n      0x20\n      add\n      0x00\n      swap1\n    tag_56:\n      dup3\n      dup3\n      lt\n      iszero\n      tag_57\n      jumpi\n      dup4\n      dup3\n      swap1\n      0x00\n      mstore\n      keccak256(0x00, 0x20)\n      swap1\n      0x04\n      mul\n      add\n      mload(0x40)\n      dup1\n      0x80\n      add\n      0x40\n      mstore\n      swap1\n      dup2\n      0x00\n      dup3\n      add\n      0x00\n      swap1\n      sload\n      swap1\n      0x0100\n      exp\n      swap1\n      div\n      0xffffffffffffffffffffffffffffffffffffffff\n      and\n      0xffffffffffffffffffffffffffffffffffffffff\n      and\n      0xffffffffffffffffffffffffffffffffffffffff\n      and\n      dup2\n      mstore\n      0x20\n      add\n      0x01\n      dup3\n      add\n      dup1\n      sload\n      tag_59\n      swap1\n      tag_31\n      jump\t// in\n    tag_59:\n      dup1\n      0x1f\n      add\n      0x20\n      dup1\n      swap2\n      div\n      mul\n      0x20\n      add\n      mload(0x40)\n      swap1\n      dup2\n      add\n      0x40\n      mstore\n      dup1\n      swap3\n      swap2\n      swap1\n      dup2\n      dup2\n      mstore\n      0x20\n      add\n      dup3\n      dup1\n      sload\n      tag_60\n      swap1\n      tag_31\n      jump\t// in\n    tag_60:\n      dup1\n      iszero\n      tag_61\n      jumpi\n      dup1\n      0x1f\n      lt\n      tag_62\n      jumpi\n      0x0100\n      dup1\n      dup4\n      sload\n      div\n      mul\n      dup4\n      mstore\n      swap2\n      0x20\n      add\n      swap2\n      jump(tag_61)\n    tag_62:\n      dup3\n      add\n      swap2\n      swap1\n      0x00\n      mstore\n      keccak256(0x00, 0x20)\n      swap1\n    tag_63:\n      dup2\n      sload\n      dup2\n      mstore\n      swap1\n      0x01\n      add\n      swap1\n      0x20\n      add\n      dup1\n      dup4\n      gt\n      tag_63\n      jumpi\n      dup3\n      swap1\n      sub\n      0x1f\n      and\n      dup3\n      add\n      swap2\n    tag_61:\n      pop\n      pop\n      pop\n      pop\n      pop\n      dup2\n      mstore\n      0x20\n      add\n      0x02\n      dup3\n      add\n      sload\n      dup2\n      mstore\n      0x20\n      add\n      0x03\n      dup3\n      add\n      sload\n      dup2\n      mstore\n      pop\n      pop\n      dup2\n      mstore\n      0x20\n      add\n      swap1\n      0x01\n      add\n      swap1\n      jump(tag_56)\n    tag_57:\n      pop\n      pop\n      pop\n      pop\n      swap1\n      pop\n        /* \"Solidity/Solidity/Contracts/Projects/twitter_structs.sol\":988:1101  function getTweets(address _owner) external view returns (Tweet[] memory){... */\n      swap2\n      swap1\n      pop\n      jump\t// out\n    tag_37:\n      mload(0x40)\n      dup1\n      0x80\n      add\n      0x40\n      mstore\n      dup1\n      and(0xffffffffffffffffffffffffffffffffffffffff, 0x00)\n      dup2\n      mstore\n      0x20\n      add\n      0x60\n      dup2\n      mstore\n      0x20\n      add\n      0x00\n      dup2\n      mstore\n      0x20\n      add\n      0x00\n      dup2\n      mstore\n      pop\n      swap1\n      jump\t// out\n        /* \"#utility.yul\":7:82   */\n    tag_64:\n        /* \"#utility.yul\":40:46   */\n      0x00\n        /* \"#utility.yul\":73:75   */\n      0x40\n        /* \"#utility.yul\":67:76   */\n      mload\n        /* \"#utility.yul\":57:76   */\n      swap1\n      pop\n        /* \"#utility.yul\":7:82   */\n      swap1\n      jump\t// out\n        /* \"#utility.yul\":88:205   */\n    tag_65:\n        /* \"#utility.yul\":197:198   */\n      0x00\n        /* \"#utility.yul\":194:195   */\n      dup1\n        /* \"#utility.yul\":187:199   */\n      revert\n        /* \"#utility.yul\":211:328   */\n    tag_66:\n        /* \"#utility.yul\":320:321   */\n      0x00\n        /* \"#utility.yul\":317:318   */\n      dup1\n        /* \"#utility.yul\":310:322   */\n      revert\n        /* \"#utility.yul\":334:460   */\n    tag_67:\n        /* \"#utility.yul\":371:378   */\n      0x00\n        /* \"#utility.yul\":411:453   */\n      0xffffffffffffffffffffffffffffffffffffffff\n        /* \"#utility.yul\":404:409   */\n      dup3\n        /* \"#utility.yul\":400:454   */\n      and\n        /* \"#utility.yul\":389:454   */\n      swap1\n      pop\n        /* \"#utility.yul\":334:460   */\n      swap2\n      swap1\n      pop\n      jump\t// out\n        /* \"#utility.yul\":466:562   */\n    tag_68:\n        /* \"#utility.yul\":503:510   */\n      0x00\n        /* \"#utility.yul\":532:556   */\n      tag_126\n        /* \"#utility.yul\":550:555   */\n      dup3\n        /* \"#utility.yul\":532:556   */\n      tag_67\n      jump\t// in\n    tag_126:\n        /* \"#utility.yul\":521:556   */\n      swap1\n      pop\n        /* \"#utility.yul\":466:562   */\n      swap2\n      swap1\n      pop\n      jump\t// out\n        /* \"#utility.yul\":568:690   */\n    tag_69:\n        /* \"#utility.yul\":641:665   */\n      tag_128\n        /* \"#utility.yul\":659:664   */\n      dup2\n        /* \"#utility.yul\":641:665   */\n      tag_68\n      jump\t// in\n    tag_128:\n        /* \"#utility.yul\":634:639   */\n      dup2\n        /* \"#utility.yul\":631:666   */\n      eq\n        /* \"#utility.yul\":621:684   */\n      tag_129\n      jumpi\n        /* \"#utility.yul\":680:681   */\n      0x00\n        /* \"#utility.yul\":677:678   */\n      dup1\n        /* \"#utility.yul\":670:682   */\n      revert\n        /* \"#utility.yul\":621:684   */\n    tag_129:\n        /* \"#utility.yul\":568:690   */\n      pop\n      jump\t// out\n        /* \"#utility.yul\":696:835   */\n    tag_70:\n        /* \"#utility.yul\":742:747   */\n      0x00\n        /* \"#utility.yul\":780:786   */\n      dup2\n        /* \"#utility.yul\":767:787   */\n      calldataload\n        /* \"#utility.yul\":758:787   */\n      swap1\n      pop\n        /* \"#utility.yul\":796:829   */\n      tag_131\n        /* \"#utility.yul\":823:828   */\n      dup2\n        /* \"#utility.yul\":796:829   */\n      tag_69\n      jump\t// in\n    tag_131:\n        /* \"#utility.yul\":696:835   */\n      swap3\n      swap2\n      pop\n      pop\n      jump\t// out\n        /* \"#utility.yul\":841:918   */\n    tag_71:\n        /* \"#utility.yul\":878:885   */\n      0x00\n        /* \"#utility.yul\":907:912   */\n      dup2\n        /* \"#utility.yul\":896:912   */\n      swap1\n      pop\n        /* \"#utility.yul\":841:918   */\n      swap2\n      swap1\n      pop\n      jump\t// out\n        /* \"#utility.yul\":924:1046   */\n    tag_72:\n        /* \"#utility.yul\":997:1021   */\n      tag_134\n        /* \"#utility.yul\":1015:1020   */\n      dup2\n        /* \"#utility.yul\":997:1021   */\n      tag_71\n      jump\t// in\n    tag_134:\n        /* \"#utility.yul\":990:995   */\n      dup2\n        /* \"#utility.yul\":987:1022   */\n      eq\n        /* \"#utility.yul\":977:1040   */\n      tag_135\n      jumpi\n        /* \"#utility.yul\":1036:1037   */\n      0x00\n        /* \"#utility.yul\":1033:1034   */\n      dup1\n        /* \"#utility.yul\":1026:1038   */\n      revert\n        /* \"#utility.yul\":977:1040   */\n    tag_135:\n        /* \"#utility.yul\":924:1046   */\n      pop\n      jump\t// out\n        /* \"#utility.yul\":1052:1191   */\n    tag_73:\n        /* \"#utility.yul\":1098:1103   */\n      0x00\n        /* \"#utility.yul\":1136:1142   */\n      dup2\n        /* \"#utility.yul\":1123:1143   */\n      calldataload\n        /* \"#utility.yul\":1114:1143   */\n      swap1\n      pop\n        /* \"#utility.yul\":1152:1185   */\n      tag_137\n        /* \"#utility.yul\":1179:1184   */\n      dup2\n        /* \"#utility.yul\":1152:1185   */\n      tag_72\n      jump\t// in\n    tag_137:\n        /* \"#utility.yul\":1052:1191   */\n      swap3\n      swap2\n      pop\n      pop\n      jump\t// out\n        /* \"#utility.yul\":1197:1671   */\n    tag_9:\n        /* \"#utility.yul\":1265:1271   */\n      0x00\n        /* \"#utility.yul\":1273:1279   */\n      dup1\n        /* \"#utility.yul\":1322:1324   */\n      0x40\n        /* \"#utility.yul\":1310:1319   */\n      dup4\n        /* \"#utility.yul\":1301:1308   */\n      dup6\n        /* \"#utility.yul\":1297:1320   */\n      sub\n        /* \"#utility.yul\":1293:1325   */\n      slt\n        /* \"#utility.yul\":1290:1409   */\n      iszero\n      tag_139\n      jumpi\n        /* \"#utility.yul\":1328:1407   */\n      tag_140\n      tag_65\n      jump\t// in\n    tag_140:\n        /* \"#utility.yul\":1290:1409   */\n    tag_139:\n        /* \"#utility.yul\":1448:1449   */\n      0x00\n        /* \"#utility.yul\":1473:1526   */\n      tag_141\n        /* \"#utility.yul\":1518:1525   */\n      dup6\n        /* \"#utility.yul\":1509:1515   */\n      dup3\n        /* \"#utility.yul\":1498:1507   */\n      dup7\n        /* \"#utility.yul\":1494:1516   */\n      add\n        /* \"#utility.yul\":1473:1526   */\n      tag_70\n      jump\t// in\n    tag_141:\n        /* \"#utility.yul\":1463:1526   */\n      swap3\n      pop\n        /* \"#utility.yul\":1419:1536   */\n      pop\n        /* \"#utility.yul\":1575:1577   */\n      0x20\n        /* \"#utility.yul\":1601:1654   */\n      tag_142\n        /* \"#utility.yul\":1646:1653   */\n      dup6\n        /* \"#utility.yul\":1637:1643   */\n      dup3\n        /* \"#utility.yul\":1626:1635   */\n      dup7\n        /* \"#utility.yul\":1622:1644   */\n      add\n        /* \"#utility.yul\":1601:1654   */\n      tag_73\n      jump\t// in\n    tag_142:\n        /* \"#utility.yul\":1591:1654   */\n      swap2\n      pop\n        /* \"#utility.yul\":1546:1664   */\n      pop\n        /* \"#utility.yul\":1197:1671   */\n      swap3\n      pop\n      swap3\n      swap1\n      pop\n      jump\t// out\n        /* \"#utility.yul\":1677:1795   */\n    tag_74:\n        /* \"#utility.yul\":1764:1788   */\n      tag_144\n        /* \"#utility.yul\":1782:1787   */\n      dup2\n        /* \"#utility.yul\":1764:1788   */\n      tag_68\n      jump\t// in\n    tag_144:\n        /* \"#utility.yul\":1759:1762   */\n      dup3\n        /* \"#utility.yul\":1752:1789   */\n      mstore\n        /* \"#utility.yul\":1677:1795   */\n      pop\n      pop\n      jump\t// out\n        /* \"#utility.yul\":1801:1900   */\n    tag_75:\n        /* \"#utility.yul\":1853:1859   */\n      0x00\n        /* \"#utility.yul\":1887:1892   */\n      dup2\n        /* \"#utility.yul\":1881:1893   */\n      mload\n        /* \"#utility.yul\":1871:1893   */\n      swap1\n      pop\n        /* \"#utility.yul\":1801:1900   */\n      swap2\n      swap1\n      pop\n      jump\t// out\n        /* \"#utility.yul\":1906:2075   */\n    tag_76:\n        /* \"#utility.yul\":1990:2001   */\n      0x00\n        /* \"#utility.yul\":2024:2030   */\n      dup3\n        /* \"#utility.yul\":2019:2022   */\n      dup3\n        /* \"#utility.yul\":2012:2031   */\n      mstore\n        /* \"#utility.yul\":2064:2068   */\n      0x20\n        /* \"#utility.yul\":2059:2062   */\n      dup3\n        /* \"#utility.yul\":2055:2069   */\n      add\n        /* \"#utility.yul\":2040:2069   */\n      swap1\n      pop\n        /* \"#utility.yul\":1906:2075   */\n      swap3\n      swap2\n      pop\n      pop\n      jump\t// out\n        /* \"#utility.yul\":2081:2220   */\n    tag_77:\n        /* \"#utility.yul\":2170:2176   */\n      dup3\n        /* \"#utility.yul\":2165:2168   */\n      dup2\n        /* \"#utility.yul\":2160:2163   */\n      dup4\n        /* \"#utility.yul\":2154:2177   */\n      mcopy\n        /* \"#utility.yul\":2211:2212   */\n      0x00\n        /* \"#utility.yul\":2202:2208   */\n      dup4\n        /* \"#utility.yul\":2197:2200   */\n      dup4\n        /* \"#utility.yul\":2193:2209   */\n      add\n        /* \"#utility.yul\":2186:2213   */\n      mstore\n        /* \"#utility.yul\":2081:2220   */\n      pop\n      pop\n      pop\n      jump\t// out\n        /* \"#utility.yul\":2226:2328   */\n    tag_78:\n        /* \"#utility.yul\":2267:2273   */\n      0x00\n        /* \"#utility.yul\":2318:2320   */\n      0x1f\n        /* \"#utility.yul\":2314:2321   */\n      not\n        /* \"#utility.yul\":2309:2311   */\n      0x1f\n        /* \"#utility.yul\":2302:2307   */\n      dup4\n        /* \"#utility.yul\":2298:2312   */\n      add\n        /* \"#utility.yul\":2294:2322   */\n      and\n        /* \"#utility.yul\":2284:2322   */\n      swap1\n      pop\n        /* \"#utility.yul\":2226:2328   */\n      swap2\n      swap1\n      pop\n      jump\t// out\n        /* \"#utility.yul\":2334:2711   */\n    tag_79:\n        /* \"#utility.yul\":2422:2425   */\n      0x00\n        /* \"#utility.yul\":2450:2489   */\n      tag_150\n        /* \"#utility.yul\":2483:2488   */\n      dup3\n        /* \"#utility.yul\":2450:2489   */\n      tag_75\n      jump\t// in\n    tag_150:\n        /* \"#utility.yul\":2505:2576   */\n      tag_151\n        /* \"#utility.yul\":2569:2575   */\n      dup2\n        /* \"#utility.yul\":2564:2567   */\n      dup6\n        /* \"#utility.yul\":2505:2576   */\n      tag_76\n      jump\t// in\n    tag_151:\n        /* \"#utility.yul\":2498:2576   */\n      swap4\n      pop\n        /* \"#utility.yul\":2585:2650   */\n      tag_152\n        /* \"#utility.yul\":2643:2649   */\n      dup2\n        /* \"#utility.yul\":2638:2641   */\n      dup6\n        /* \"#utility.yul\":2631:2635   */\n      0x20\n        /* \"#utility.yul\":2624:2629   */\n      dup7\n        /* \"#utility.yul\":2620:2636   */\n      add\n        /* \"#utility.yul\":2585:2650   */\n      tag_77\n      jump\t// in\n    tag_152:\n        /* \"#utility.yul\":2675:2704   */\n      tag_153\n        /* \"#utility.yul\":2697:2703   */\n      dup2\n        /* \"#utility.yul\":2675:2704   */\n      tag_78\n      jump\t// in\n    tag_153:\n        /* \"#utility.yul\":2670:2673   */\n      dup5\n        /* \"#utility.yul\":2666:2705   */\n      add\n        /* \"#utility.yul\":2659:2705   */\n      swap2\n      pop\n        /* \"#utility.yul\":2426:2711   */\n      pop\n        /* \"#utility.yul\":2334:2711   */\n      swap3\n      swap2\n      pop\n      pop\n      jump\t// out\n        /* \"#utility.yul\":2717:2835   */\n    tag_80:\n        /* \"#utility.yul\":2804:2828   */\n      tag_155\n        /* \"#utility.yul\":2822:2827   */\n      dup2\n        /* \"#utility.yul\":2804:2828   */\n      tag_71\n      jump\t// in\n    tag_155:\n        /* \"#utility.yul\":2799:2802   */\n      dup3\n        /* \"#utility.yul\":2792:2829   */\n      mstore\n        /* \"#utility.yul\":2717:2835   */\n      pop\n      pop\n      jump\t// out\n        /* \"#utility.yul\":2841:3485   */\n    tag_12:\n        /* \"#utility.yul\":3038:3042   */\n      0x00\n        /* \"#utility.yul\":3076:3079   */\n      0x80\n        /* \"#utility.yul\":3065:3074   */\n      dup3\n        /* \"#utility.yul\":3061:3080   */\n      add\n        /* \"#utility.yul\":3053:3080   */\n      swap1\n      pop\n        /* \"#utility.yul\":3090:3161   */\n      tag_157\n        /* \"#utility.yul\":3158:3159   */\n      0x00\n        /* \"#utility.yul\":3147:3156   */\n      dup4\n        /* \"#utility.yul\":3143:3160   */\n      add\n        /* \"#utility.yul\":3134:3140   */\n      dup8\n        /* \"#utility.yul\":3090:3161   */\n      tag_74\n      jump\t// in\n    tag_157:\n        /* \"#utility.yul\":3208:3217   */\n      dup2\n        /* \"#utility.yul\":3202:3206   */\n      dup2\n        /* \"#utility.yul\":3198:3218   */\n      sub\n        /* \"#utility.yul\":3193:3195   */\n      0x20\n        /* \"#utility.yul\":3182:3191   */\n      dup4\n        /* \"#utility.yul\":3178:3196   */\n      add\n        /* \"#utility.yul\":3171:3219   */\n      mstore\n        /* \"#utility.yul\":3236:3314   */\n      tag_158\n        /* \"#utility.yul\":3309:3313   */\n      dup2\n        /* \"#utility.yul\":3300:3306   */\n      dup7\n        /* \"#utility.yul\":3236:3314   */\n      tag_79\n      jump\t// in\n    tag_158:\n        /* \"#utility.yul\":3228:3314   */\n      swap1\n      pop\n        /* \"#utility.yul\":3324:3396   */\n      tag_159\n        /* \"#utility.yul\":3392:3394   */\n      0x40\n        /* \"#utility.yul\":3381:3390   */\n      dup4\n        /* \"#utility.yul\":3377:3395   */\n      add\n        /* \"#utility.yul\":3368:3374   */\n      dup6\n        /* \"#utility.yul\":3324:3396   */\n      tag_80\n      jump\t// in\n    tag_159:\n        /* \"#utility.yul\":3406:3478   */\n      tag_160\n        /* \"#utility.yul\":3474:3476   */\n      0x60\n        /* \"#utility.yul\":3463:3472   */\n      dup4\n        /* \"#utility.yul\":3459:3477   */\n      add\n        /* \"#utility.yul\":3450:3456   */\n      dup5\n        /* \"#utility.yul\":3406:3478   */\n      tag_80\n      jump\t// in\n    tag_160:\n        /* \"#utility.yul\":2841:3485   */\n      swap6\n      swap5\n      pop\n      pop\n      pop\n      pop\n      pop\n      jump\t// out\n        /* \"#utility.yul\":3491:3599   */\n    tag_81:\n        /* \"#utility.yul\":3568:3592   */\n      tag_162\n        /* \"#utility.yul\":3586:3591   */\n      dup2\n        /* \"#utility.yul\":3568:3592   */\n      tag_68\n      jump\t// in\n    tag_162:\n        /* \"#utility.yul\":3563:3566   */\n      dup3\n        /* \"#utility.yul\":3556:3593   */\n      mstore\n        /* \"#utility.yul\":3491:3599   */\n      pop\n      pop\n      jump\t// out\n        /* \"#utility.yul\":3605:3764   */\n    tag_82:\n        /* \"#utility.yul\":3679:3690   */\n      0x00\n        /* \"#utility.yul\":3713:3719   */\n      dup3\n        /* \"#utility.yul\":3708:3711   */\n      dup3\n        /* \"#utility.yul\":3701:3720   */\n      mstore\n        /* \"#utility.yul\":3753:3757   */\n      0x20\n        /* \"#utility.yul\":3748:3751   */\n      dup3\n        /* \"#utility.yul\":3744:3758   */\n      add\n        /* \"#utility.yul\":3729:3758   */\n      swap1\n      pop\n        /* \"#utility.yul\":3605:3764   */\n      swap3\n      swap2\n      pop\n      pop\n      jump\t// out\n        /* \"#utility.yul\":3770:4127   */\n    tag_83:\n        /* \"#utility.yul\":3848:3851   */\n      0x00\n        /* \"#utility.yul\":3876:3915   */\n      tag_165\n        /* \"#utility.yul\":3909:3914   */\n      dup3\n        /* \"#utility.yul\":3876:3915   */\n      tag_75\n      jump\t// in\n    tag_165:\n        /* \"#utility.yul\":3931:3992   */\n      tag_166\n        /* \"#utility.yul\":3985:3991   */\n      dup2\n        /* \"#utility.yul\":3980:3983   */\n      dup6\n        /* \"#utility.yul\":3931:3992   */\n      tag_82\n      jump\t// in\n    tag_166:\n        /* \"#utility.yul\":3924:3992   */\n      swap4\n      pop\n        /* \"#utility.yul\":4001:4066   */\n      tag_167\n        /* \"#utility.yul\":4059:4065   */\n      dup2\n        /* \"#utility.yul\":4054:4057   */\n      dup6\n        /* \"#utility.yul\":4047:4051   */\n      0x20\n        /* \"#utility.yul\":4040:4045   */\n      dup7\n        /* \"#utility.yul\":4036:4052   */\n      add\n        /* \"#utility.yul\":4001:4066   */\n      tag_77\n      jump\t// in\n    tag_167:\n        /* \"#utility.yul\":4091:4120   */\n      tag_168\n        /* \"#utility.yul\":4113:4119   */\n      dup2\n        /* \"#utility.yul\":4091:4120   */\n      tag_78\n      jump\t// in\n    tag_168:\n        /* \"#utility.yul\":4086:4089   */\n      dup5\n        /* \"#utility.yul\":4082:4121   */\n      add\n        /* \"#utility.yul\":4075:4121   */\n      swap2\n      pop\n        /* \"#utility.yul\":3852:4127   */\n      pop\n        /* \"#utility.yul\":3770:4127   */\n      swap3\n      swap2\n      pop\n      pop\n      jump\t// out\n        /* \"#utility.yul\":4133:4241   */\n    tag_84:\n        /* \"#utility.yul\":4210:4234   */\n      tag_170\n        /* \"#utility.yul\":4228:4233   */\n      dup2\n        /* \"#utility.yul\":4210:4234   */\n      tag_71\n      jump\t// in\n    tag_170:\n        /* \"#utility.yul\":4205:4208   */\n      dup3\n        /* \"#utility.yul\":4198:4235   */\n      mstore\n        /* \"#utility.yul\":4133:4241   */\n      pop\n      pop\n      jump\t// out\n        /* \"#utility.yul\":4313:5269   */\n    tag_85:\n        /* \"#utility.yul\":4424:4427   */\n      0x00\n        /* \"#utility.yul\":4460:4464   */\n      0x80\n        /* \"#utility.yul\":4455:4458   */\n      dup4\n        /* \"#utility.yul\":4451:4465   */\n      add\n        /* \"#utility.yul\":4548:4552   */\n      0x00\n        /* \"#utility.yul\":4541:4546   */\n      dup4\n        /* \"#utility.yul\":4537:4553   */\n      add\n        /* \"#utility.yul\":4531:4554   */\n      mload\n        /* \"#utility.yul\":4567:4630   */\n      tag_172\n        /* \"#utility.yul\":4624:4628   */\n      0x00\n        /* \"#utility.yul\":4619:4622   */\n      dup7\n        /* \"#utility.yul\":4615:4629   */\n      add\n        /* \"#utility.yul\":4601:4613   */\n      dup3\n        /* \"#utility.yul\":4567:4630   */\n      tag_81\n      jump\t// in\n    tag_172:\n        /* \"#utility.yul\":4475:4640   */\n      pop\n        /* \"#utility.yul\":4725:4729   */\n      0x20\n        /* \"#utility.yul\":4718:4723   */\n      dup4\n        /* \"#utility.yul\":4714:4730   */\n      add\n        /* \"#utility.yul\":4708:4731   */\n      mload\n        /* \"#utility.yul\":4778:4781   */\n      dup5\n        /* \"#utility.yul\":4772:4776   */\n      dup3\n        /* \"#utility.yul\":4768:4782   */\n      sub\n        /* \"#utility.yul\":4761:4765   */\n      0x20\n        /* \"#utility.yul\":4756:4759   */\n      dup7\n        /* \"#utility.yul\":4752:4766   */\n      add\n        /* \"#utility.yul\":4745:4783   */\n      mstore\n        /* \"#utility.yul\":4804:4877   */\n      tag_173\n        /* \"#utility.yul\":4872:4876   */\n      dup3\n        /* \"#utility.yul\":4858:4870   */\n      dup3\n        /* \"#utility.yul\":4804:4877   */\n      tag_83\n      jump\t// in\n    tag_173:\n        /* \"#utility.yul\":4796:4877   */\n      swap2\n      pop\n        /* \"#utility.yul\":4650:4888   */\n      pop\n        /* \"#utility.yul\":4975:4979   */\n      0x40\n        /* \"#utility.yul\":4968:4973   */\n      dup4\n        /* \"#utility.yul\":4964:4980   */\n      add\n        /* \"#utility.yul\":4958:4981   */\n      mload\n        /* \"#utility.yul\":4994:5057   */\n      tag_174\n        /* \"#utility.yul\":5051:5055   */\n      0x40\n        /* \"#utility.yul\":5046:5049   */\n      dup7\n        /* \"#utility.yul\":5042:5056   */\n      add\n        /* \"#utility.yul\":5028:5040   */\n      dup3\n        /* \"#utility.yul\":4994:5057   */\n      tag_84\n      jump\t// in\n    tag_174:\n        /* \"#utility.yul\":4898:5067   */\n      pop\n        /* \"#utility.yul\":5150:5154   */\n      0x60\n        /* \"#utility.yul\":5143:5148   */\n      dup4\n        /* \"#utility.yul\":5139:5155   */\n      add\n        /* \"#utility.yul\":5133:5156   */\n      mload\n        /* \"#utility.yul\":5169:5232   */\n      tag_175\n        /* \"#utility.yul\":5226:5230   */\n      0x60\n        /* \"#utility.yul\":5221:5224   */\n      dup7\n        /* \"#utility.yul\":5217:5231   */\n      add\n        /* \"#utility.yul\":5203:5215   */\n      dup3\n        /* \"#utility.yul\":5169:5232   */\n      tag_84\n      jump\t// in\n    tag_175:\n        /* \"#utility.yul\":5077:5242   */\n      pop\n        /* \"#utility.yul\":5259:5263   */\n      dup1\n        /* \"#utility.yul\":5252:5263   */\n      swap2\n      pop\n        /* \"#utility.yul\":4429:5269   */\n      pop\n        /* \"#utility.yul\":4313:5269   */\n      swap3\n      swap2\n      pop\n      pop\n      jump\t// out\n        /* \"#utility.yul\":5275:5632   */\n    tag_17:\n        /* \"#utility.yul\":5410:5414   */\n      0x00\n        /* \"#utility.yul\":5448:5450   */\n      0x20\n        /* \"#utility.yul\":5437:5446   */\n      dup3\n        /* \"#utility.yul\":5433:5451   */\n      add\n        /* \"#utility.yul\":5425:5451   */\n      swap1\n      pop\n        /* \"#utility.yul\":5497:5506   */\n      dup2\n        /* \"#utility.yul\":5491:5495   */\n      dup2\n        /* \"#utility.yul\":5487:5507   */\n      sub\n        /* \"#utility.yul\":5483:5484   */\n      0x00\n        /* \"#utility.yul\":5472:5481   */\n      dup4\n        /* \"#utility.yul\":5468:5485   */\n      add\n        /* \"#utility.yul\":5461:5508   */\n      mstore\n        /* \"#utility.yul\":5525:5625   */\n      tag_177\n        /* \"#utility.yul\":5620:5624   */\n      dup2\n        /* \"#utility.yul\":5611:5617   */\n      dup5\n        /* \"#utility.yul\":5525:5625   */\n      tag_85\n      jump\t// in\n    tag_177:\n        /* \"#utility.yul\":5517:5625   */\n      swap1\n      pop\n        /* \"#utility.yul\":5275:5632   */\n      swap3\n      swap2\n      pop\n      pop\n      jump\t// out\n        /* \"#utility.yul\":5638:5755   */\n    tag_86:\n        /* \"#utility.yul\":5747:5748   */\n      0x00\n        /* \"#utility.yul\":5744:5745   */\n      dup1\n        /* \"#utility.yul\":5737:5749   */\n      revert\n        /* \"#utility.yul\":5761:5878   */\n    tag_87:\n        /* \"#utility.yul\":5870:5871   */\n      0x00\n        /* \"#utility.yul\":5867:5868   */\n      dup1\n        /* \"#utility.yul\":5860:5872   */\n      revert\n        /* \"#utility.yul\":5884:6064   */\n    tag_88:\n        /* \"#utility.yul\":5932:6009   */\n      0x4e487b7100000000000000000000000000000000000000000000000000000000\n        /* \"#utility.yul\":5929:5930   */\n      0x00\n        /* \"#utility.yul\":5922:6010   */\n      mstore\n        /* \"#utility.yul\":6029:6033   */\n      0x41\n        /* \"#utility.yul\":6026:6027   */\n      0x04\n        /* \"#utility.yul\":6019:6034   */\n      mstore\n        /* \"#utility.yul\":6053:6057   */\n      0x24\n        /* \"#utility.yul\":6050:6051   */\n      0x00\n        /* \"#utility.yul\":6043:6058   */\n      revert\n        /* \"#utility.yul\":6070:6351   */\n    tag_89:\n        /* \"#utility.yul\":6153:6180   */\n      tag_182\n        /* \"#utility.yul\":6175:6179   */\n      dup3\n        /* \"#utility.yul\":6153:6180   */\n      tag_78\n      jump\t// in\n    tag_182:\n        /* \"#utility.yul\":6145:6151   */\n      dup2\n        /* \"#utility.yul\":6141:6181   */\n      add\n        /* \"#utility.yul\":6283:6289   */\n      dup2\n        /* \"#utility.yul\":6271:6281   */\n      dup2\n        /* \"#utility.yul\":6268:6290   */\n      lt\n        /* \"#utility.yul\":6247:6265   */\n      0xffffffffffffffff\n        /* \"#utility.yul\":6235:6245   */\n      dup3\n        /* \"#utility.yul\":6232:6266   */\n      gt\n        /* \"#utility.yul\":6229:6291   */\n      or\n        /* \"#utility.yul\":6226:6314   */\n      iszero\n      tag_183\n      jumpi\n        /* \"#utility.yul\":6294:6312   */\n      tag_184\n      tag_88\n      jump\t// in\n    tag_184:\n        /* \"#utility.yul\":6226:6314   */\n    tag_183:\n        /* \"#utility.yul\":6334:6344   */\n      dup1\n        /* \"#utility.yul\":6330:6332   */\n      0x40\n        /* \"#utility.yul\":6323:6345   */\n      mstore\n        /* \"#utility.yul\":6113:6351   */\n      pop\n        /* \"#utility.yul\":6070:6351   */\n      pop\n      pop\n      jump\t// out\n        /* \"#utility.yul\":6357:6486   */\n    tag_90:\n        /* \"#utility.yul\":6391:6397   */\n      0x00\n        /* \"#utility.yul\":6418:6438   */\n      tag_186\n      tag_64\n      jump\t// in\n    tag_186:\n        /* \"#utility.yul\":6408:6438   */\n      swap1\n      pop\n        /* \"#utility.yul\":6447:6480   */\n      tag_187\n        /* \"#utility.yul\":6475:6479   */\n      dup3\n        /* \"#utility.yul\":6467:6473   */\n      dup3\n        /* \"#utility.yul\":6447:6480   */\n      tag_89\n      jump\t// in\n    tag_187:\n        /* \"#utility.yul\":6357:6486   */\n      swap2\n      swap1\n      pop\n      jump\t// out\n        /* \"#utility.yul\":6492:6800   */\n    tag_91:\n        /* \"#utility.yul\":6554:6558   */\n      0x00\n        /* \"#utility.yul\":6644:6662   */\n      0xffffffffffffffff\n        /* \"#utility.yul\":6636:6642   */\n      dup3\n        /* \"#utility.yul\":6633:6663   */\n      gt\n        /* \"#utility.yul\":6630:6686   */\n      iszero\n      tag_189\n      jumpi\n        /* \"#utility.yul\":6666:6684   */\n      tag_190\n      tag_88\n      jump\t// in\n    tag_190:\n        /* \"#utility.yul\":6630:6686   */\n    tag_189:\n        /* \"#utility.yul\":6704:6733   */\n      tag_191\n        /* \"#utility.yul\":6726:6732   */\n      dup3\n        /* \"#utility.yul\":6704:6733   */\n      tag_78\n      jump\t// in\n    tag_191:\n        /* \"#utility.yul\":6696:6733   */\n      swap1\n      pop\n        /* \"#utility.yul\":6788:6792   */\n      0x20\n        /* \"#utility.yul\":6782:6786   */\n      dup2\n        /* \"#utility.yul\":6778:6793   */\n      add\n        /* \"#utility.yul\":6770:6793   */\n      swap1\n      pop\n        /* \"#utility.yul\":6492:6800   */\n      swap2\n      swap1\n      pop\n      jump\t// out\n        /* \"#utility.yul\":6806:6954   */\n    tag_92:\n        /* \"#utility.yul\":6904:6910   */\n      dup3\n        /* \"#utility.yul\":6899:6902   */\n      dup2\n        /* \"#utility.yul\":6894:6897   */\n      dup4\n        /* \"#utility.yul\":6881:6911   */\n      calldatacopy\n        /* \"#utility.yul\":6945:6946   */\n      0x00\n        /* \"#utility.yul\":6936:6942   */\n      dup4\n        /* \"#utility.yul\":6931:6934   */\n      dup4\n        /* \"#utility.yul\":6927:6943   */\n      add\n        /* \"#utility.yul\":6920:6947   */\n      mstore\n        /* \"#utility.yul\":6806:6954   */\n      pop\n      pop\n      pop\n      jump\t// out\n        /* \"#utility.yul\":6960:7385   */\n    tag_93:\n        /* \"#utility.yul\":7038:7043   */\n      0x00\n        /* \"#utility.yul\":7063:7129   */\n      tag_194\n        /* \"#utility.yul\":7079:7128   */\n      tag_195\n        /* \"#utility.yul\":7121:7127   */\n      dup5\n        /* \"#utility.yul\":7079:7128   */\n      tag_91\n      jump\t// in\n    tag_195:\n        /* \"#utility.yul\":7063:7129   */\n      tag_90\n      jump\t// in\n    tag_194:\n        /* \"#utility.yul\":7054:7129   */\n      swap1\n      pop\n        /* \"#utility.yul\":7152:7158   */\n      dup3\n        /* \"#utility.yul\":7145:7150   */\n      dup2\n        /* \"#utility.yul\":7138:7159   */\n      mstore\n        /* \"#utility.yul\":7190:7194   */\n      0x20\n        /* \"#utility.yul\":7183:7188   */\n      dup2\n        /* \"#utility.yul\":7179:7195   */\n      add\n        /* \"#utility.yul\":7228:7231   */\n      dup5\n        /* \"#utility.yul\":7219:7225   */\n      dup5\n        /* \"#utility.yul\":7214:7217   */\n      dup5\n        /* \"#utility.yul\":7210:7226   */\n      add\n        /* \"#utility.yul\":7207:7232   */\n      gt\n        /* \"#utility.yul\":7204:7316   */\n      iszero\n      tag_196\n      jumpi\n        /* \"#utility.yul\":7235:7314   */\n      tag_197\n      tag_87\n      jump\t// in\n    tag_197:\n        /* \"#utility.yul\":7204:7316   */\n    tag_196:\n        /* \"#utility.yul\":7325:7379   */\n      tag_198\n        /* \"#utility.yul\":7372:7378   */\n      dup5\n        /* \"#utility.yul\":7367:7370   */\n      dup3\n        /* \"#utility.yul\":7362:7365   */\n      dup6\n        /* \"#utility.yul\":7325:7379   */\n      tag_92\n      jump\t// in\n    tag_198:\n        /* \"#utility.yul\":7044:7385   */\n      pop\n        /* \"#utility.yul\":6960:7385   */\n      swap4\n      swap3\n      pop\n      pop\n      pop\n      jump\t// out\n        /* \"#utility.yul\":7405:7745   */\n    tag_94:\n        /* \"#utility.yul\":7461:7466   */\n      0x00\n        /* \"#utility.yul\":7510:7513   */\n      dup3\n        /* \"#utility.yul\":7503:7507   */\n      0x1f\n        /* \"#utility.yul\":7495:7501   */\n      dup4\n        /* \"#utility.yul\":7491:7508   */\n      add\n        /* \"#utility.yul\":7487:7514   */\n      slt\n        /* \"#utility.yul\":7477:7599   */\n      tag_200\n      jumpi\n        /* \"#utility.yul\":7518:7597   */\n      tag_201\n      tag_86\n      jump\t// in\n    tag_201:\n        /* \"#utility.yul\":7477:7599   */\n    tag_200:\n        /* \"#utility.yul\":7635:7641   */\n      dup2\n        /* \"#utility.yul\":7622:7642   */\n      calldataload\n        /* \"#utility.yul\":7660:7739   */\n      tag_202\n        /* \"#utility.yul\":7735:7738   */\n      dup5\n        /* \"#utility.yul\":7727:7733   */\n      dup3\n        /* \"#utility.yul\":7720:7724   */\n      0x20\n        /* \"#utility.yul\":7712:7718   */\n      dup7\n        /* \"#utility.yul\":7708:7725   */\n      add\n        /* \"#utility.yul\":7660:7739   */\n      tag_93\n      jump\t// in\n    tag_202:\n        /* \"#utility.yul\":7651:7739   */\n      swap2\n      pop\n        /* \"#utility.yul\":7467:7745   */\n      pop\n        /* \"#utility.yul\":7405:7745   */\n      swap3\n      swap2\n      pop\n      pop\n      jump\t// out\n        /* \"#utility.yul\":7751:8260   */\n    tag_20:\n        /* \"#utility.yul\":7820:7826   */\n      0x00\n        /* \"#utility.yul\":7869:7871   */\n      0x20\n        /* \"#utility.yul\":7857:7866   */\n      dup3\n        /* \"#utility.yul\":7848:7855   */\n      dup5\n        /* \"#utility.yul\":7844:7867   */\n      sub\n        /* \"#utility.yul\":7840:7872   */\n      slt\n        /* \"#utility.yul\":7837:7956   */\n      iszero\n      tag_204\n      jumpi\n        /* \"#utility.yul\":7875:7954   */\n      tag_205\n      tag_65\n      jump\t// in\n    tag_205:\n        /* \"#utility.yul\":7837:7956   */\n    tag_204:\n        /* \"#utility.yul\":8023:8024   */\n      0x00\n        /* \"#utility.yul\":8012:8021   */\n      dup3\n        /* \"#utility.yul\":8008:8025   */\n      add\n        /* \"#utility.yul\":7995:8026   */\n      calldataload\n        /* \"#utility.yul\":8053:8071   */\n      0xffffffffffffffff\n        /* \"#utility.yul\":8045:8051   */\n      dup2\n        /* \"#utility.yul\":8042:8072   */\n      gt\n        /* \"#utility.yul\":8039:8156   */\n      iszero\n      tag_206\n      jumpi\n        /* \"#utility.yul\":8075:8154   */\n      tag_207\n      tag_66\n      jump\t// in\n    tag_207:\n        /* \"#utility.yul\":8039:8156   */\n    tag_206:\n        /* \"#utility.yul\":8180:8243   */\n      tag_208\n        /* \"#utility.yul\":8235:8242   */\n      dup5\n        /* \"#utility.yul\":8226:8232   */\n      dup3\n        /* \"#utility.yul\":8215:8224   */\n      dup6\n        /* \"#utility.yul\":8211:8233   */\n      add\n        /* \"#utility.yul\":8180:8243   */\n      tag_94\n      jump\t// in\n    tag_208:\n        /* \"#utility.yul\":8170:8243   */\n      swap2\n      pop\n        /* \"#utility.yul\":7966:8253   */\n      pop\n        /* \"#utility.yul\":7751:8260   */\n      swap3\n      swap2\n      pop\n      pop\n      jump\t// out\n        /* \"#utility.yul\":8266:8595   */\n    tag_24:\n        /* \"#utility.yul\":8325:8331   */\n      0x00\n        /* \"#utility.yul\":8374:8376   */\n      0x20\n        /* \"#utility.yul\":8362:8371   */\n      dup3\n        /* \"#utility.yul\":8353:8360   */\n      dup5\n        /* \"#utility.yul\":8349:8372   */\n      sub\n        /* \"#utility.yul\":8345:8377   */\n      slt\n        /* \"#utility.yul\":8342:8461   */\n      iszero\n      tag_210\n      jumpi\n        /* \"#utility.yul\":8380:8459   */\n      tag_211\n      tag_65\n      jump\t// in\n    tag_211:\n        /* \"#utility.yul\":8342:8461   */\n    tag_210:\n        /* \"#utility.yul\":8500:8501   */\n      0x00\n        /* \"#utility.yul\":8525:8578   */\n      tag_212\n        /* \"#utility.yul\":8570:8577   */\n      dup5\n        /* \"#utility.yul\":8561:8567   */\n      dup3\n        /* \"#utility.yul\":8550:8559   */\n      dup6\n        /* \"#utility.yul\":8546:8568   */\n      add\n        /* \"#utility.yul\":8525:8578   */\n      tag_70\n      jump\t// in\n    tag_212:\n        /* \"#utility.yul\":8515:8578   */\n      swap2\n      pop\n        /* \"#utility.yul\":8471:8588   */\n      pop\n        /* \"#utility.yul\":8266:8595   */\n      swap3\n      swap2\n      pop\n      pop\n      jump\t// out\n        /* \"#utility.yul\":8601:8736   */\n    tag_95:\n        /* \"#utility.yul\":8689:8695   */\n      0x00\n        /* \"#utility.yul\":8723:8728   */\n      dup2\n        /* \"#utility.yul\":8717:8729   */\n      mload\n        /* \"#utility.yul\":8707:8729   */\n      swap1\n      pop\n        /* \"#utility.yul\":8601:8736   */\n      swap2\n      swap1\n      pop\n      jump\t// out\n        /* \"#utility.yul\":8742:8947   */\n    tag_96:\n        /* \"#utility.yul\":8862:8873   */\n      0x00\n        /* \"#utility.yul\":8896:8902   */\n      dup3\n        /* \"#utility.yul\":8891:8894   */\n      dup3\n        /* \"#utility.yul\":8884:8903   */\n      mstore\n        /* \"#utility.yul\":8936:8940   */\n      0x20\n        /* \"#utility.yul\":8931:8934   */\n      dup3\n        /* \"#utility.yul\":8927:8941   */\n      add\n        /* \"#utility.yul\":8912:8941   */\n      swap1\n      pop\n        /* \"#utility.yul\":8742:8947   */\n      swap3\n      swap2\n      pop\n      pop\n      jump\t// out\n        /* \"#utility.yul\":8953:9106   */\n    tag_97:\n        /* \"#utility.yul\":9041:9045   */\n      0x00\n        /* \"#utility.yul\":9064:9067   */\n      dup2\n        /* \"#utility.yul\":9056:9067   */\n      swap1\n      pop\n        /* \"#utility.yul\":9094:9098   */\n      0x20\n        /* \"#utility.yul\":9089:9092   */\n      dup3\n        /* \"#utility.yul\":9085:9099   */\n      add\n        /* \"#utility.yul\":9077:9099   */\n      swap1\n      pop\n        /* \"#utility.yul\":8953:9106   */\n      swap2\n      swap1\n      pop\n      jump\t// out\n        /* \"#utility.yul\":9178:10124   */\n    tag_98:\n        /* \"#utility.yul\":9279:9282   */\n      0x00\n        /* \"#utility.yul\":9315:9319   */\n      0x80\n        /* \"#utility.yul\":9310:9313   */\n      dup4\n        /* \"#utility.yul\":9306:9320   */\n      add\n        /* \"#utility.yul\":9403:9407   */\n      0x00\n        /* \"#utility.yul\":9396:9401   */\n      dup4\n        /* \"#utility.yul\":9392:9408   */\n      add\n        /* \"#utility.yul\":9386:9409   */\n      mload\n        /* \"#utility.yul\":9422:9485   */\n      tag_217\n        /* \"#utility.yul\":9479:9483   */\n      0x00\n        /* \"#utility.yul\":9474:9477   */\n      dup7\n        /* \"#utility.yul\":9470:9484   */\n      add\n        /* \"#utility.yul\":9456:9468   */\n      dup3\n        /* \"#utility.yul\":9422:9485   */\n      tag_81\n      jump\t// in\n    tag_217:\n        /* \"#utility.yul\":9330:9495   */\n      pop\n        /* \"#utility.yul\":9580:9584   */\n      0x20\n        /* \"#utility.yul\":9573:9578   */\n      dup4\n        /* \"#utility.yul\":9569:9585   */\n      add\n        /* \"#utility.yul\":9563:9586   */\n      mload\n        /* \"#utility.yul\":9633:9636   */\n      dup5\n        /* \"#utility.yul\":9627:9631   */\n      dup3\n        /* \"#utility.yul\":9623:9637   */\n      sub\n        /* \"#utility.yul\":9616:9620   */\n      0x20\n        /* \"#utility.yul\":9611:9614   */\n      dup7\n        /* \"#utility.yul\":9607:9621   */\n      add\n        /* \"#utility.yul\":9600:9638   */\n      mstore\n        /* \"#utility.yul\":9659:9732   */\n      tag_218\n        /* \"#utility.yul\":9727:9731   */\n      dup3\n        /* \"#utility.yul\":9713:9725   */\n      dup3\n        /* \"#utility.yul\":9659:9732   */\n      tag_83\n      jump\t// in\n    tag_218:\n        /* \"#utility.yul\":9651:9732   */\n      swap2\n      pop\n        /* \"#utility.yul\":9505:9743   */\n      pop\n        /* \"#utility.yul\":9830:9834   */\n      0x40\n        /* \"#utility.yul\":9823:9828   */\n      dup4\n        /* \"#utility.yul\":9819:9835   */\n      add\n        /* \"#utility.yul\":9813:9836   */\n      mload\n        /* \"#utility.yul\":9849:9912   */\n      tag_219\n        /* \"#utility.yul\":9906:9910   */\n      0x40\n        /* \"#utility.yul\":9901:9904   */\n      dup7\n        /* \"#utility.yul\":9897:9911   */\n      add\n        /* \"#utility.yul\":9883:9895   */\n      dup3\n        /* \"#utility.yul\":9849:9912   */\n      tag_84\n      jump\t// in\n    tag_219:\n        /* \"#utility.yul\":9753:9922   */\n      pop\n        /* \"#utility.yul\":10005:10009   */\n      0x60\n        /* \"#utility.yul\":9998:10003   */\n      dup4\n        /* \"#utility.yul\":9994:10010   */\n      add\n        /* \"#utility.yul\":9988:10011   */\n      mload\n        /* \"#utility.yul\":10024:10087   */\n      tag_220\n        /* \"#utility.yul\":10081:10085   */\n      0x60\n        /* \"#utility.yul\":10076:10079   */\n      dup7\n        /* \"#utility.yul\":10072:10086   */\n      add\n        /* \"#utility.yul\":10058:10070   */\n      dup3\n        /* \"#utility.yul\":10024:10087   */\n      tag_84\n      jump\t// in\n    tag_220:\n        /* \"#utility.yul\":9932:10097   */\n      pop\n        /* \"#utility.yul\":10114:10118   */\n      dup1\n        /* \"#utility.yul\":10107:10118   */\n      swap2\n      pop\n        /* \"#utility.yul\":9284:10124   */\n      pop\n        /* \"#utility.yul\":9178:10124   */\n      swap3\n      swap2\n      pop\n      pop\n      jump\t// out\n        /* \"#utility.yul\":10130:10370   */\n    tag_99:\n        /* \"#utility.yul\":10241:10251   */\n      0x00\n        /* \"#utility.yul\":10276:10364   */\n      tag_222\n        /* \"#utility.yul\":10360:10363   */\n      dup4\n        /* \"#utility.yul\":10352:10358   */\n      dup4\n        /* \"#utility.yul\":10276:10364   */\n      tag_98\n      jump\t// in\n    tag_222:\n        /* \"#utility.yul\":10262:10364   */\n      swap1\n      pop\n        /* \"#utility.yul\":10130:10370   */\n      swap3\n      swap2\n      pop\n      pop\n      jump\t// out\n        /* \"#utility.yul\":10376:10510   */\n    tag_100:\n        /* \"#utility.yul\":10467:10471   */\n      0x00\n        /* \"#utility.yul\":10499:10503   */\n      0x20\n        /* \"#utility.yul\":10494:10497   */\n      dup3\n        /* \"#utility.yul\":10490:10504   */\n      add\n        /* \"#utility.yul\":10482:10504   */\n      swap1\n      pop\n        /* \"#utility.yul\":10376:10510   */\n      swap2\n      swap1\n      pop\n      jump\t// out\n        /* \"#utility.yul\":10586:11665   */\n    tag_101:\n        /* \"#utility.yul\":10747:10750   */\n      0x00\n        /* \"#utility.yul\":10776:10851   */\n      tag_225\n        /* \"#utility.yul\":10845:10850   */\n      dup3\n        /* \"#utility.yul\":10776:10851   */\n      tag_95\n      jump\t// in\n    tag_225:\n        /* \"#utility.yul\":10867:10974   */\n      tag_226\n        /* \"#utility.yul\":10967:10973   */\n      dup2\n        /* \"#utility.yul\":10962:10965   */\n      dup6\n        /* \"#utility.yul\":10867:10974   */\n      tag_96\n      jump\t// in\n    tag_226:\n        /* \"#utility.yul\":10860:10974   */\n      swap4\n      pop\n        /* \"#utility.yul\":11000:11003   */\n      dup4\n        /* \"#utility.yul\":11045:11049   */\n      0x20\n        /* \"#utility.yul\":11037:11043   */\n      dup3\n        /* \"#utility.yul\":11033:11050   */\n      mul\n        /* \"#utility.yul\":11028:11031   */\n      dup6\n        /* \"#utility.yul\":11024:11051   */\n      add\n        /* \"#utility.yul\":11075:11152   */\n      tag_227\n        /* \"#utility.yul\":11146:11151   */\n      dup6\n        /* \"#utility.yul\":11075:11152   */\n      tag_97\n      jump\t// in\n    tag_227:\n        /* \"#utility.yul\":11175:11182   */\n      dup1\n        /* \"#utility.yul\":11206:11207   */\n      0x00\n        /* \"#utility.yul\":11191:11620   */\n    tag_228:\n        /* \"#utility.yul\":11216:11222   */\n      dup6\n        /* \"#utility.yul\":11213:11214   */\n      dup2\n        /* \"#utility.yul\":11210:11223   */\n      lt\n        /* \"#utility.yul\":11191:11620   */\n      iszero\n      tag_230\n      jumpi\n        /* \"#utility.yul\":11287:11296   */\n      dup5\n        /* \"#utility.yul\":11281:11285   */\n      dup5\n        /* \"#utility.yul\":11277:11297   */\n      sub\n        /* \"#utility.yul\":11272:11275   */\n      dup10\n        /* \"#utility.yul\":11265:11298   */\n      mstore\n        /* \"#utility.yul\":11338:11344   */\n      dup2\n        /* \"#utility.yul\":11332:11345   */\n      mload\n        /* \"#utility.yul\":11366:11472   */\n      tag_231\n        /* \"#utility.yul\":11467:11471   */\n      dup6\n        /* \"#utility.yul\":11452:11465   */\n      dup3\n        /* \"#utility.yul\":11366:11472   */\n      tag_99\n      jump\t// in\n    tag_231:\n        /* \"#utility.yul\":11358:11472   */\n      swap5\n      pop\n        /* \"#utility.yul\":11495:11576   */\n      tag_232\n        /* \"#utility.yul\":11569:11575   */\n      dup4\n        /* \"#utility.yul\":11495:11576   */\n      tag_100\n      jump\t// in\n    tag_232:\n        /* \"#utility.yul\":11485:11576   */\n      swap3\n      pop\n        /* \"#utility.yul\":11605:11609   */\n      0x20\n        /* \"#utility.yul\":11600:11603   */\n      dup11\n        /* \"#utility.yul\":11596:11610   */\n      add\n        /* \"#utility.yul\":11589:11610   */\n      swap10\n      pop\n        /* \"#utility.yul\":11251:11620   */\n      pop\n        /* \"#utility.yul\":11238:11239   */\n      0x01\n        /* \"#utility.yul\":11235:11236   */\n      dup2\n        /* \"#utility.yul\":11231:11240   */\n      add\n        /* \"#utility.yul\":11226:11240   */\n      swap1\n      pop\n        /* \"#utility.yul\":11191:11620   */\n      jump(tag_228)\n    tag_230:\n        /* \"#utility.yul\":11195:11209   */\n      pop\n        /* \"#utility.yul\":11636:11640   */\n      dup3\n        /* \"#utility.yul\":11629:11640   */\n      swap8\n      pop\n        /* \"#utility.yul\":11656:11659   */\n      dup8\n        /* \"#utility.yul\":11649:11659   */\n      swap6\n      pop\n        /* \"#utility.yul\":10752:11665   */\n      pop\n      pop\n      pop\n      pop\n      pop\n        /* \"#utility.yul\":10586:11665   */\n      swap3\n      swap2\n      pop\n      pop\n      jump\t// out\n        /* \"#utility.yul\":11671:12128   */\n    tag_27:\n        /* \"#utility.yul\":11856:11860   */\n      0x00\n        /* \"#utility.yul\":11894:11896   */\n      0x20\n        /* \"#utility.yul\":11883:11892   */\n      dup3\n        /* \"#utility.yul\":11879:11897   */\n      add\n        /* \"#utility.yul\":11871:11897   */\n      swap1\n      pop\n        /* \"#utility.yul\":11943:11952   */\n      dup2\n        /* \"#utility.yul\":11937:11941   */\n      dup2\n        /* \"#utility.yul\":11933:11953   */\n      sub\n        /* \"#utility.yul\":11929:11930   */\n      0x00\n        /* \"#utility.yul\":11918:11927   */\n      dup4\n        /* \"#utility.yul\":11914:11931   */\n      add\n        /* \"#utility.yul\":11907:11954   */\n      mstore\n        /* \"#utility.yul\":11971:12121   */\n      tag_234\n        /* \"#utility.yul\":12116:12120   */\n      dup2\n        /* \"#utility.yul\":12107:12113   */\n      dup5\n        /* \"#utility.yul\":11971:12121   */\n      tag_101\n      jump\t// in\n    tag_234:\n        /* \"#utility.yul\":11963:12121   */\n      swap1\n      pop\n        /* \"#utility.yul\":11671:12128   */\n      swap3\n      swap2\n      pop\n      pop\n      jump\t// out\n        /* \"#utility.yul\":12134:12314   */\n    tag_102:\n        /* \"#utility.yul\":12182:12259   */\n      0x4e487b7100000000000000000000000000000000000000000000000000000000\n        /* \"#utility.yul\":12179:12180   */\n      0x00\n        /* \"#utility.yul\":12172:12260   */\n      mstore\n        /* \"#utility.yul\":12279:12283   */\n      0x22\n        /* \"#utility.yul\":12276:12277   */\n      0x04\n        /* \"#utility.yul\":12269:12284   */\n      mstore\n        /* \"#utility.yul\":12303:12307   */\n      0x24\n        /* \"#utility.yul\":12300:12301   */\n      0x00\n        /* \"#utility.yul\":12293:12308   */\n      revert\n        /* \"#utility.yul\":12320:12640   */\n    tag_31:\n        /* \"#utility.yul\":12364:12370   */\n      0x00\n        /* \"#utility.yul\":12401:12402   */\n      0x02\n        /* \"#utility.yul\":12395:12399   */\n      dup3\n        /* \"#utility.yul\":12391:12403   */\n      div\n        /* \"#utility.yul\":12381:12403   */\n      swap1\n      pop\n        /* \"#utility.yul\":12448:12449   */\n      0x01\n        /* \"#utility.yul\":12442:12446   */\n      dup3\n        /* \"#utility.yul\":12438:12450   */\n      and\n        /* \"#utility.yul\":12469:12487   */\n      dup1\n        /* \"#utility.yul\":12459:12540   */\n      tag_237\n      jumpi\n        /* \"#utility.yul\":12525:12529   */\n      0x7f\n        /* \"#utility.yul\":12517:12523   */\n      dup3\n        /* \"#utility.yul\":12513:12530   */\n      and\n        /* \"#utility.yul\":12503:12530   */\n      swap2\n      pop\n        /* \"#utility.yul\":12459:12540   */\n    tag_237:\n        /* \"#utility.yul\":12587:12589   */\n      0x20\n        /* \"#utility.yul\":12579:12585   */\n      dup3\n        /* \"#utility.yul\":12576:12590   */\n      lt\n        /* \"#utility.yul\":12556:12574   */\n      dup2\n        /* \"#utility.yul\":12553:12591   */\n      sub\n        /* \"#utility.yul\":12550:12634   */\n      tag_238\n      jumpi\n        /* \"#utility.yul\":12606:12624   */\n      tag_239\n      tag_102\n      jump\t// in\n    tag_239:\n        /* \"#utility.yul\":12550:12634   */\n    tag_238:\n        /* \"#utility.yul\":12371:12640   */\n      pop\n        /* \"#utility.yul\":12320:12640   */\n      swap2\n      swap1\n      pop\n      jump\t// out\n        /* \"#utility.yul\":12646:12826   */\n    tag_41:\n        /* \"#utility.yul\":12694:12771   */\n      0x4e487b7100000000000000000000000000000000000000000000000000000000\n        /* \"#utility.yul\":12691:12692   */\n      0x00\n        /* \"#utility.yul\":12684:12772   */\n      mstore\n        /* \"#utility.yul\":12791:12795   */\n      0x32\n        /* \"#utility.yul\":12788:12789   */\n      0x04\n        /* \"#utility.yul\":12781:12796   */\n      mstore\n        /* \"#utility.yul\":12815:12819   */\n      0x24\n        /* \"#utility.yul\":12812:12813   */\n      0x00\n        /* \"#utility.yul\":12805:12820   */\n      revert\n        /* \"#utility.yul\":12832:13013   */\n    tag_103:\n        /* \"#utility.yul\":12972:13005   */\n      0x545745455420544f4f204c4f4f4f4f4e472042524f4f4f4f4f4f4f2121212100\n        /* \"#utility.yul\":12968:12969   */\n      0x00\n        /* \"#utility.yul\":12960:12966   */\n      dup3\n        /* \"#utility.yul\":12956:12970   */\n      add\n        /* \"#utility.yul\":12949:13006   */\n      mstore\n        /* \"#utility.yul\":12832:13013   */\n      pop\n      jump\t// out\n        /* \"#utility.yul\":13019:13385   */\n    tag_104:\n        /* \"#utility.yul\":13161:13164   */\n      0x00\n        /* \"#utility.yul\":13182:13249   */\n      tag_243\n        /* \"#utility.yul\":13246:13248   */\n      0x1f\n        /* \"#utility.yul\":13241:13244   */\n      dup4\n        /* \"#utility.yul\":13182:13249   */\n      tag_76\n      jump\t// in\n    tag_243:\n        /* \"#utility.yul\":13175:13249   */\n      swap2\n      pop\n        /* \"#utility.yul\":13258:13351   */\n      tag_244\n        /* \"#utility.yul\":13347:13350   */\n      dup3\n        /* \"#utility.yul\":13258:13351   */\n      tag_103\n      jump\t// in\n    tag_244:\n        /* \"#utility.yul\":13376:13378   */\n      0x20\n        /* \"#utility.yul\":13371:13374   */\n      dup3\n        /* \"#utility.yul\":13367:13379   */\n      add\n        /* \"#utility.yul\":13360:13379   */\n      swap1\n      pop\n        /* \"#utility.yul\":13019:13385   */\n      swap2\n      swap1\n      pop\n      jump\t// out\n        /* \"#utility.yul\":13391:13810   */\n    tag_51:\n        /* \"#utility.yul\":13557:13561   */\n      0x00\n        /* \"#utility.yul\":13595:13597   */\n      0x20\n        /* \"#utility.yul\":13584:13593   */\n      dup3\n        /* \"#utility.yul\":13580:13598   */\n      add\n        /* \"#utility.yul\":13572:13598   */\n      swap1\n      pop\n        /* \"#utility.yul\":13644:13653   */\n      dup2\n        /* \"#utility.yul\":13638:13642   */\n      dup2\n        /* \"#utility.yul\":13634:13654   */\n      sub\n        /* \"#utility.yul\":13630:13631   */\n      0x00\n        /* \"#utility.yul\":13619:13628   */\n      dup4\n        /* \"#utility.yul\":13615:13632   */\n      add\n        /* \"#utility.yul\":13608:13655   */\n      mstore\n        /* \"#utility.yul\":13672:13803   */\n      tag_246\n        /* \"#utility.yul\":13798:13802   */\n      dup2\n        /* \"#utility.yul\":13672:13803   */\n      tag_104\n      jump\t// in\n    tag_246:\n        /* \"#utility.yul\":13664:13803   */\n      swap1\n      pop\n        /* \"#utility.yul\":13391:13810   */\n      swap2\n      swap1\n      pop\n      jump\t// out\n        /* \"#utility.yul\":13816:13957   */\n    tag_105:\n        /* \"#utility.yul\":13865:13869   */\n      0x00\n        /* \"#utility.yul\":13888:13891   */\n      dup2\n        /* \"#utility.yul\":13880:13891   */\n      swap1\n      pop\n        /* \"#utility.yul\":13911:13914   */\n      dup2\n        /* \"#utility.yul\":13908:13909   */\n      0x00\n        /* \"#utility.yul\":13901:13915   */\n      mstore\n        /* \"#utility.yul\":13945:13949   */\n      0x20\n        /* \"#utility.yul\":13942:13943   */\n      0x00\n        /* \"#utility.yul\":13932:13950   */\n      keccak256\n        /* \"#utility.yul\":13924:13950   */\n      swap1\n      pop\n        /* \"#utility.yul\":13816:13957   */\n      swap2\n      swap1\n      pop\n      jump\t// out\n        /* \"#utility.yul\":13963:14056   */\n    tag_106:\n        /* \"#utility.yul\":14000:14006   */\n      0x00\n        /* \"#utility.yul\":14047:14049   */\n      0x20\n        /* \"#utility.yul\":14042:14044   */\n      0x1f\n        /* \"#utility.yul\":14035:14040   */\n      dup4\n        /* \"#utility.yul\":14031:14045   */\n      add\n        /* \"#utility.yul\":14027:14050   */\n      div\n        /* \"#utility.yul\":14017:14050   */\n      swap1\n      pop\n        /* \"#utility.yul\":13963:14056   */\n      swap2\n      swap1\n      pop\n      jump\t// out\n        /* \"#utility.yul\":14062:14169   */\n    tag_107:\n        /* \"#utility.yul\":14106:14114   */\n      0x00\n        /* \"#utility.yul\":14156:14161   */\n      dup3\n        /* \"#utility.yul\":14150:14154   */\n      dup3\n        /* \"#utility.yul\":14146:14162   */\n      shl\n        /* \"#utility.yul\":14125:14162   */\n      swap1\n      pop\n        /* \"#utility.yul\":14062:14169   */\n      swap3\n      swap2\n      pop\n      pop\n      jump\t// out\n        /* \"#utility.yul\":14175:14568   */\n    tag_108:\n        /* \"#utility.yul\":14244:14250   */\n      0x00\n        /* \"#utility.yul\":14294:14295   */\n      0x08\n        /* \"#utility.yul\":14282:14292   */\n      dup4\n        /* \"#utility.yul\":14278:14296   */\n      mul\n        /* \"#utility.yul\":14317:14414   */\n      tag_251\n        /* \"#utility.yul\":14347:14413   */\n      0xffffffffffffffffffffffffffffffffffffffffffffffffffffffffffffffff\n        /* \"#utility.yul\":14336:14345   */\n      dup3\n        /* \"#utility.yul\":14317:14414   */\n      tag_107\n      jump\t// in\n    tag_251:\n        /* \"#utility.yul\":14435:14474   */\n      tag_252\n        /* \"#utility.yul\":14465:14473   */\n      dup7\n        /* \"#utility.yul\":14454:14463   */\n      dup4\n        /* \"#utility.yul\":14435:14474   */\n      tag_107\n      jump\t// in\n    tag_252:\n        /* \"#utility.yul\":14423:14474   */\n      swap6\n      pop\n        /* \"#utility.yul\":14507:14511   */\n      dup1\n        /* \"#utility.yul\":14503:14512   */\n      not\n        /* \"#utility.yul\":14496:14501   */\n      dup5\n        /* \"#utility.yul\":14492:14513   */\n      and\n        /* \"#utility.yul\":14483:14513   */\n      swap4\n      pop\n        /* \"#utility.yul\":14556:14560   */\n      dup1\n        /* \"#utility.yul\":14546:14554   */\n      dup7\n        /* \"#utility.yul\":14542:14561   */\n      and\n        /* \"#utility.yul\":14535:14540   */\n      dup5\n        /* \"#utility.yul\":14532:14562   */\n      or\n        /* \"#utility.yul\":14522:14562   */\n      swap3\n      pop\n        /* \"#utility.yul\":14251:14568   */\n      pop\n      pop\n        /* \"#utility.yul\":14175:14568   */\n      swap4\n      swap3\n      pop\n      pop\n      pop\n      jump\t// out\n        /* \"#utility.yul\":14574:14634   */\n    tag_109:\n        /* \"#utility.yul\":14602:14605   */\n      0x00\n        /* \"#utility.yul\":14623:14628   */\n      dup2\n        /* \"#utility.yul\":14616:14628   */\n      swap1\n      pop\n        /* \"#utility.yul\":14574:14634   */\n      swap2\n      swap1\n      pop\n      jump\t// out\n        /* \"#utility.yul\":14640:14782   */\n    tag_110:\n        /* \"#utility.yul\":14690:14699   */\n      0x00\n        /* \"#utility.yul\":14723:14776   */\n      tag_255\n        /* \"#utility.yul\":14741:14775   */\n      tag_256\n        /* \"#utility.yul\":14750:14774   */\n      tag_257\n        /* \"#utility.yul\":14768:14773   */\n      dup5\n        /* \"#utility.yul\":14750:14774   */\n      tag_71\n      jump\t// in\n    tag_257:\n        /* \"#utility.yul\":14741:14775   */\n      tag_109\n      jump\t// in\n    tag_256:\n        /* \"#utility.yul\":14723:14776   */\n      tag_71\n      jump\t// in\n    tag_255:\n        /* \"#utility.yul\":14710:14776   */\n      swap1\n      pop\n        /* \"#utility.yul\":14640:14782   */\n      swap2\n      swap1\n      pop\n      jump\t// out\n        /* \"#utility.yul\":14788:14863   */\n    tag_111:\n        /* \"#utility.yul\":14831:14834   */\n      0x00\n        /* \"#utility.yul\":14852:14857   */\n      dup2\n        /* \"#utility.yul\":14845:14857   */\n      swap1\n      pop\n        /* \"#utility.yul\":14788:14863   */\n      swap2\n      swap1\n      pop\n      jump\t// out\n        /* \"#utility.yul\":14869:15138   */\n    tag_112:\n        /* \"#utility.yul\":14979:15018   */\n      tag_260\n        /* \"#utility.yul\":15010:15017   */\n      dup4\n        /* \"#utility.yul\":14979:15018   */\n      tag_110\n      jump\t// in\n    tag_260:\n        /* \"#utility.yul\":15040:15131   */\n      tag_261\n        /* \"#utility.yul\":15089:15130   */\n      tag_262\n        /* \"#utility.yul\":15113:15129   */\n      dup3\n        /* \"#utility.yul\":15089:15130   */\n      tag_111\n      jump\t// in\n    tag_262:\n        /* \"#utility.yul\":15081:15087   */\n      dup5\n        /* \"#utility.yul\":15074:15078   */\n      dup5\n        /* \"#utility.yul\":15068:15079   */\n      sload\n        /* \"#utility.yul\":15040:15131   */\n      tag_108\n      jump\t// in\n    tag_261:\n        /* \"#utility.yul\":15034:15038   */\n      dup3\n        /* \"#utility.yul\":15027:15132   */\n      sstore\n        /* \"#utility.yul\":14945:15138   */\n      pop\n        /* \"#utility.yul\":14869:15138   */\n      pop\n      pop\n      pop\n      jump\t// out\n        /* \"#utility.yul\":15144:15217   */\n    tag_113:\n        /* \"#utility.yul\":15189:15192   */\n      0x00\n        /* \"#utility.yul\":15144:15217   */\n      swap1\n      jump\t// out\n        /* \"#utility.yul\":15223:15412   */\n    tag_114:\n        /* \"#utility.yul\":15300:15332   */\n      tag_265\n      tag_113\n      jump\t// in\n    tag_265:\n        /* \"#utility.yul\":15341:15406   */\n      tag_266\n        /* \"#utility.yul\":15399:15405   */\n      dup2\n        /* \"#utility.yul\":15391:15397   */\n      dup5\n        /* \"#utility.yul\":15385:15389   */\n      dup5\n        /* \"#utility.yul\":15341:15406   */\n      tag_112\n      jump\t// in\n    tag_266:\n        /* \"#utility.yul\":15276:15412   */\n      pop\n        /* \"#utility.yul\":15223:15412   */\n      pop\n      pop\n      jump\t// out\n        /* \"#utility.yul\":15418:15604   */\n    tag_115:\n        /* \"#utility.yul\":15478:15598   */\n    tag_268:\n        /* \"#utility.yul\":15495:15498   */\n      dup2\n        /* \"#utility.yul\":15488:15493   */\n      dup2\n        /* \"#utility.yul\":15485:15499   */\n      lt\n        /* \"#utility.yul\":15478:15598   */\n      iszero\n      tag_270\n      jumpi\n        /* \"#utility.yul\":15549:15588   */\n      tag_271\n        /* \"#utility.yul\":15586:15587   */\n      0x00\n        /* \"#utility.yul\":15579:15584   */\n      dup3\n        /* \"#utility.yul\":15549:15588   */\n      tag_114\n      jump\t// in\n    tag_271:\n        /* \"#utility.yul\":15522:15523   */\n      0x01\n        /* \"#utility.yul\":15515:15520   */\n      dup2\n        /* \"#utility.yul\":15511:15524   */\n      add\n        /* \"#utility.yul\":15502:15524   */\n      swap1\n      pop\n        /* \"#utility.yul\":15478:15598   */\n      jump(tag_268)\n    tag_270:\n        /* \"#utility.yul\":15418:15604   */\n      pop\n      pop\n      jump\t// out\n        /* \"#utility.yul\":15610:16153   */\n    tag_116:\n        /* \"#utility.yul\":15711:15713   */\n      0x1f\n        /* \"#utility.yul\":15706:15709   */\n      dup3\n        /* \"#utility.yul\":15703:15714   */\n      gt\n        /* \"#utility.yul\":15700:16146   */\n      iszero\n      tag_273\n      jumpi\n        /* \"#utility.yul\":15745:15783   */\n      tag_274\n        /* \"#utility.yul\":15777:15782   */\n      dup2\n        /* \"#utility.yul\":15745:15783   */\n      tag_105\n      jump\t// in\n    tag_274:\n        /* \"#utility.yul\":15829:15858   */\n      tag_275\n        /* \"#utility.yul\":15847:15857   */\n      dup5\n        /* \"#utility.yul\":15829:15858   */\n      tag_106\n      jump\t// in\n    tag_275:\n        /* \"#utility.yul\":15819:15827   */\n      dup2\n        /* \"#utility.yul\":15815:15859   */\n      add\n        /* \"#utility.yul\":16012:16014   */\n      0x20\n        /* \"#utility.yul\":16000:16010   */\n      dup6\n        /* \"#utility.yul\":15997:16015   */\n      lt\n        /* \"#utility.yul\":15994:16043   */\n      iszero\n      tag_276\n      jumpi\n        /* \"#utility.yul\":16033:16041   */\n      dup2\n        /* \"#utility.yul\":16018:16041   */\n      swap1\n      pop\n        /* \"#utility.yul\":15994:16043   */\n    tag_276:\n        /* \"#utility.yul\":16056:16136   */\n      tag_277\n        /* \"#utility.yul\":16112:16134   */\n      tag_278\n        /* \"#utility.yul\":16130:16133   */\n      dup6\n        /* \"#utility.yul\":16112:16134   */\n      tag_106\n      jump\t// in\n    tag_278:\n        /* \"#utility.yul\":16102:16110   */\n      dup4\n        /* \"#utility.yul\":16098:16135   */\n      add\n        /* \"#utility.yul\":16085:16096   */\n      dup3\n        /* \"#utility.yul\":16056:16136   */\n      tag_115\n      jump\t// in\n    tag_277:\n        /* \"#utility.yul\":15715:16146   */\n      pop\n      pop\n        /* \"#utility.yul\":15700:16146   */\n    tag_273:\n        /* \"#utility.yul\":15610:16153   */\n      pop\n      pop\n      pop\n      jump\t// out\n        /* \"#utility.yul\":16159:16276   */\n    tag_117:\n        /* \"#utility.yul\":16213:16221   */\n      0x00\n        /* \"#utility.yul\":16263:16268   */\n      dup3\n        /* \"#utility.yul\":16257:16261   */\n      dup3\n        /* \"#utility.yul\":16253:16269   */\n      shr\n        /* \"#utility.yul\":16232:16269   */\n      swap1\n      pop\n        /* \"#utility.yul\":16159:16276   */\n      swap3\n      swap2\n      pop\n      pop\n      jump\t// out\n        /* \"#utility.yul\":16282:16451   */\n    tag_118:\n        /* \"#utility.yul\":16326:16332   */\n      0x00\n        /* \"#utility.yul\":16359:16410   */\n      tag_281\n        /* \"#utility.yul\":16407:16408   */\n      0x00\n        /* \"#utility.yul\":16403:16409   */\n      not\n        /* \"#utility.yul\":16395:16400   */\n      dup5\n        /* \"#utility.yul\":16392:16393   */\n      0x08\n        /* \"#utility.yul\":16388:16401   */\n      mul\n        /* \"#utility.yul\":16359:16410   */\n      tag_117\n      jump\t// in\n    tag_281:\n        /* \"#utility.yul\":16355:16411   */\n      not\n        /* \"#utility.yul\":16440:16444   */\n      dup1\n        /* \"#utility.yul\":16434:16438   */\n      dup4\n        /* \"#utility.yul\":16430:16445   */\n      and\n        /* \"#utility.yul\":16420:16445   */\n      swap2\n      pop\n        /* \"#utility.yul\":16333:16451   */\n      pop\n        /* \"#utility.yul\":16282:16451   */\n      swap3\n      swap2\n      pop\n      pop\n      jump\t// out\n        /* \"#utility.yul\":16456:16751   */\n    tag_119:\n        /* \"#utility.yul\":16532:16536   */\n      0x00\n        /* \"#utility.yul\":16678:16707   */\n      tag_283\n        /* \"#utility.yul\":16703:16706   */\n      dup4\n        /* \"#utility.yul\":16697:16701   */\n      dup4\n        /* \"#utility.yul\":16678:16707   */\n      tag_118\n      jump\t// in\n    tag_283:\n        /* \"#utility.yul\":16670:16707   */\n      swap2\n      pop\n        /* \"#utility.yul\":16740:16743   */\n      dup3\n        /* \"#utility.yul\":16737:16738   */\n      0x02\n        /* \"#utility.yul\":16733:16744   */\n      mul\n        /* \"#utility.yul\":16727:16731   */\n      dup3\n        /* \"#utility.yul\":16724:16745   */\n      or\n        /* \"#utility.yul\":16716:16745   */\n      swap1\n      pop\n        /* \"#utility.yul\":16456:16751   */\n      swap3\n      swap2\n      pop\n      pop\n      jump\t// out\n        /* \"#utility.yul\":16756:18151   */\n    tag_54:\n        /* \"#utility.yul\":16873:16910   */\n      tag_285\n        /* \"#utility.yul\":16906:16909   */\n      dup3\n        /* \"#utility.yul\":16873:16910   */\n      tag_75\n      jump\t// in\n    tag_285:\n        /* \"#utility.yul\":16975:16993   */\n      0xffffffffffffffff\n        /* \"#utility.yul\":16967:16973   */\n      dup2\n        /* \"#utility.yul\":16964:16994   */\n      gt\n        /* \"#utility.yul\":16961:17017   */\n      iszero\n      tag_286\n      jumpi\n        /* \"#utility.yul\":16997:17015   */\n      tag_287\n      tag_88\n      jump\t// in\n    tag_287:\n        /* \"#utility.yul\":16961:17017   */\n    tag_286:\n        /* \"#utility.yul\":17041:17079   */\n      tag_288\n        /* \"#utility.yul\":17073:17077   */\n      dup3\n        /* \"#utility.yul\":17067:17078   */\n      sload\n        /* \"#utility.yul\":17041:17079   */\n      tag_31\n      jump\t// in\n    tag_288:\n        /* \"#utility.yul\":17126:17193   */\n      tag_289\n        /* \"#utility.yul\":17186:17192   */\n      dup3\n        /* \"#utility.yul\":17178:17184   */\n      dup3\n        /* \"#utility.yul\":17172:17176   */\n      dup6\n        /* \"#utility.yul\":17126:17193   */\n      tag_116\n      jump\t// in\n    tag_289:\n        /* \"#utility.yul\":17220:17221   */\n      0x00\n        /* \"#utility.yul\":17244:17248   */\n      0x20\n        /* \"#utility.yul\":17231:17248   */\n      swap1\n      pop\n        /* \"#utility.yul\":17276:17278   */\n      0x1f\n        /* \"#utility.yul\":17268:17274   */\n      dup4\n        /* \"#utility.yul\":17265:17279   */\n      gt\n        /* \"#utility.yul\":17293:17294   */\n      0x01\n        /* \"#utility.yul\":17288:17906   */\n      dup2\n      eq\n      tag_291\n      jumpi\n        /* \"#utility.yul\":17950:17951   */\n      0x00\n        /* \"#utility.yul\":17967:17973   */\n      dup5\n        /* \"#utility.yul\":17964:18041   */\n      iszero\n      tag_292\n      jumpi\n        /* \"#utility.yul\":18016:18025   */\n      dup3\n        /* \"#utility.yul\":18011:18014   */\n      dup8\n        /* \"#utility.yul\":18007:18026   */\n      add\n        /* \"#utility.yul\":18001:18027   */\n      mload\n        /* \"#utility.yul\":17992:18027   */\n      swap1\n      pop\n        /* \"#utility.yul\":17964:18041   */\n    tag_292:\n        /* \"#utility.yul\":18067:18134   */\n      tag_293\n        /* \"#utility.yul\":18127:18133   */\n      dup6\n        /* \"#utility.yul\":18120:18125   */\n      dup3\n        /* \"#utility.yul\":18067:18134   */\n      tag_119\n      jump\t// in\n    tag_293:\n        /* \"#utility.yul\":18061:18065   */\n      dup7\n        /* \"#utility.yul\":18054:18135   */\n      sstore\n        /* \"#utility.yul\":17923:18145   */\n      pop\n        /* \"#utility.yul\":17258:18145   */\n      jump(tag_290)\n        /* \"#utility.yul\":17288:17906   */\n    tag_291:\n        /* \"#utility.yul\":17340:17344   */\n      0x1f\n        /* \"#utility.yul\":17336:17345   */\n      not\n        /* \"#utility.yul\":17328:17334   */\n      dup5\n        /* \"#utility.yul\":17324:17346   */\n      and\n        /* \"#utility.yul\":17374:17411   */\n      tag_294\n        /* \"#utility.yul\":17406:17410   */\n      dup7\n        /* \"#utility.yul\":17374:17411   */\n      tag_105\n      jump\t// in\n    tag_294:\n        /* \"#utility.yul\":17433:17434   */\n      0x00\n        /* \"#utility.yul\":17447:17655   */\n    tag_295:\n        /* \"#utility.yul\":17461:17468   */\n      dup3\n        /* \"#utility.yul\":17458:17459   */\n      dup2\n        /* \"#utility.yul\":17455:17469   */\n      lt\n        /* \"#utility.yul\":17447:17655   */\n      iszero\n      tag_297\n      jumpi\n        /* \"#utility.yul\":17540:17549   */\n      dup5\n        /* \"#utility.yul\":17535:17538   */\n      dup10\n        /* \"#utility.yul\":17531:17550   */\n      add\n        /* \"#utility.yul\":17525:17551   */\n      mload\n        /* \"#utility.yul\":17517:17523   */\n      dup3\n        /* \"#utility.yul\":17510:17552   */\n      sstore\n        /* \"#utility.yul\":17591:17592   */\n      0x01\n        /* \"#utility.yul\":17583:17589   */\n      dup3\n        /* \"#utility.yul\":17579:17593   */\n      add\n        /* \"#utility.yul\":17569:17593   */\n      swap2\n      pop\n        /* \"#utility.yul\":17638:17640   */\n      0x20\n        /* \"#utility.yul\":17627:17636   */\n      dup6\n        /* \"#utility.yul\":17623:17641   */\n      add\n        /* \"#utility.yul\":17610:17641   */\n      swap5\n      pop\n        /* \"#utility.yul\":17484:17488   */\n      0x20\n        /* \"#utility.yul\":17481:17482   */\n      dup2\n        /* \"#utility.yul\":17477:17489   */\n      add\n        /* \"#utility.yul\":17472:17489   */\n      swap1\n      pop\n        /* \"#utility.yul\":17447:17655   */\n      jump(tag_295)\n    tag_297:\n        /* \"#utility.yul\":17683:17689   */\n      dup7\n        /* \"#utility.yul\":17674:17681   */\n      dup4\n        /* \"#utility.yul\":17671:17690   */\n      lt\n        /* \"#utility.yul\":17668:17847   */\n      iszero\n      tag_298\n      jumpi\n        /* \"#utility.yul\":17741:17750   */\n      dup5\n        /* \"#utility.yul\":17736:17739   */\n      dup10\n        /* \"#utility.yul\":17732:17751   */\n      add\n        /* \"#utility.yul\":17726:17752   */\n      mload\n        /* \"#utility.yul\":17784:17832   */\n      tag_299\n        /* \"#utility.yul\":17826:17830   */\n      0x1f\n        /* \"#utility.yul\":17818:17824   */\n      dup10\n        /* \"#utility.yul\":17814:17831   */\n      and\n        /* \"#utility.yul\":17803:17812   */\n      dup3\n        /* \"#utility.yul\":17784:17832   */\n      tag_118\n      jump\t// in\n    tag_299:\n        /* \"#utility.yul\":17776:17782   */\n      dup4\n        /* \"#utility.yul\":17769:17833   */\n      sstore\n        /* \"#utility.yul\":17691:17847   */\n      pop\n        /* \"#utility.yul\":17668:17847   */\n    tag_298:\n        /* \"#utility.yul\":17893:17894   */\n      0x01\n        /* \"#utility.yul\":17889:17890   */\n      0x02\n        /* \"#utility.yul\":17881:17887   */\n      dup9\n        /* \"#utility.yul\":17877:17891   */\n      mul\n        /* \"#utility.yul\":17873:17895   */\n      add\n        /* \"#utility.yul\":17867:17871   */\n      dup9\n        /* \"#utility.yul\":17860:17896   */\n      sstore\n        /* \"#utility.yul\":17295:17906   */\n      pop\n      pop\n      pop\n        /* \"#utility.yul\":17258:18145   */\n    tag_290:\n      pop\n        /* \"#utility.yul\":16848:18151   */\n      pop\n      pop\n      pop\n        /* \"#utility.yul\":16756:18151   */\n      pop\n      pop\n      jump\t// out\n\n    auxdata: 0xa26469706673582212206814fedebeb10237726a428d9e174b99204265330053d7d76e7812e82555eafe64736f6c634300081a0033\n}\n",
				"bytecode": {
					"linkReferences": {},
					"object": "6080604052348015600e575f80fd5b50610f808061001c5f395ff3fe608060405234801561000f575f80fd5b506004361061004a575f3560e01c806305a1b4a91461004e578063254e4019146100815780637c9cd2bc146100b15780639e92b093146100cd575b5f80fd5b61006860048036038101906100639190610717565b6100fd565b60405161007894939291906107e3565b60405180910390f35b61009b60048036038101906100969190610717565b6101e7565b6040516100a891906108f3565b60405180910390f35b6100cb60048036038101906100c69190610a3f565b610354565b005b6100e760048036038101906100e29190610a86565b6104ae565b6040516100f49190610bcc565b60405180910390f35b5f602052815f5260405f208181548110610115575f80fd5b905f5260205f2090600402015f9150915050805f015f9054906101000a900473ffffffffffffffffffffffffffffffffffffffff169080600101805461015a90610c19565b80601f016020809104026020016040519081016040528092919081815260200182805461018690610c19565b80156101d15780601f106101a8576101008083540402835291602001916101d1565b820191905f5260205f20905b8154815290600101906020018083116101b457829003601f168201915b5050505050908060020154908060030154905084565b6101ef61063e565b5f808473ffffffffffffffffffffffffffffffffffffffff1673ffffffffffffffffffffffffffffffffffffffff1681526020019081526020015f20828154811061023d5761023c610c49565b5b905f5260205f2090600402016040518060800160405290815f82015f9054906101000a900473ffffffffffffffffffffffffffffffffffffffff1673ffffffffffffffffffffffffffffffffffffffff1673ffffffffffffffffffffffffffffffffffffffff1681526020016001820180546102b890610c19565b80601f01602080910402602001604051908101604052809291908181526020018280546102e490610c19565b801561032f5780601f106103065761010080835404028352916020019161032f565b820191905f5260205f20905b81548152906001019060200180831161031257829003601f168201915b5050505050815260200160028201548152602001600382015481525050905092915050565b600561ffff168151111561039d576040517f08c379a000000000000000000000000000000000000000000000000000000000815260040161039490610cc0565b60405180910390fd5b5f60405180608001604052803373ffffffffffffffffffffffffffffffffffffffff1681526020018381526020014281526020015f81525090505f803373ffffffffffffffffffffffffffffffffffffffff1673ffffffffffffffffffffffffffffffffffffffff1681526020019081526020015f2081908060018154018082558091505060019003905f5260205f2090600402015f909190919091505f820151815f015f6101000a81548173ffffffffffffffffffffffffffffffffffffffff021916908373ffffffffffffffffffffffffffffffffffffffff16021790555060208201518160010190816104939190610e7b565b50604082015181600201556060820151816003015550505050565b60605f808373ffffffffffffffffffffffffffffffffffffffff1673ffffffffffffffffffffffffffffffffffffffff1681526020019081526020015f20805480602002602001604051908101604052809291908181526020015f905b82821015610633578382905f5260205f2090600402016040518060800160405290815f82015f9054906101000a900473ffffffffffffffffffffffffffffffffffffffff1673ffffffffffffffffffffffffffffffffffffffff1673ffffffffffffffffffffffffffffffffffffffff16815260200160018201805461059090610c19565b80601f01602080910402602001604051908101604052809291908181526020018280546105bc90610c19565b80156106075780601f106105de57610100808354040283529160200191610607565b820191905f5260205f20905b8154815290600101906020018083116105ea57829003601f168201915b50505050508152602001600282015481526020016003820154815250508152602001906001019061050b565b505050509050919050565b60405180608001604052805f73ffffffffffffffffffffffffffffffffffffffff168152602001606081526020015f81526020015f81525090565b5f604051905090565b5f80fd5b5f80fd5b5f73ffffffffffffffffffffffffffffffffffffffff82169050919050565b5f6106b38261068a565b9050919050565b6106c3816106a9565b81146106cd575f80fd5b50565b5f813590506106de816106ba565b92915050565b5f819050919050565b6106f6816106e4565b8114610700575f80fd5b50565b5f81359050610711816106ed565b92915050565b5f806040838503121561072d5761072c610682565b5b5f61073a858286016106d0565b925050602061074b85828601610703565b9150509250929050565b61075e816106a9565b82525050565b5f81519050919050565b5f82825260208201905092915050565b8281835e5f83830152505050565b5f601f19601f8301169050919050565b5f6107a682610764565b6107b0818561076e565b93506107c081856020860161077e565b6107c98161078c565b840191505092915050565b6107dd816106e4565b82525050565b5f6080820190506107f65f830187610755565b8181036020830152610808818661079c565b905061081760408301856107d4565b61082460608301846107d4565b95945050505050565b610836816106a9565b82525050565b5f82825260208201905092915050565b5f61085682610764565b610860818561083c565b935061087081856020860161077e565b6108798161078c565b840191505092915050565b61088d816106e4565b82525050565b5f608083015f8301516108a85f86018261082d565b50602083015184820360208601526108c0828261084c565b91505060408301516108d56040860182610884565b5060608301516108e86060860182610884565b508091505092915050565b5f6020820190508181035f83015261090b8184610893565b905092915050565b5f80fd5b5f80fd5b7f4e487b71000000000000000000000000000000000000000000000000000000005f52604160045260245ffd5b6109518261078c565b810181811067ffffffffffffffff821117156109705761096f61091b565b5b80604052505050565b5f610982610679565b905061098e8282610948565b919050565b5f67ffffffffffffffff8211156109ad576109ac61091b565b5b6109b68261078c565b9050602081019050919050565b828183375f83830152505050565b5f6109e36109de84610993565b610979565b9050828152602081018484840111156109ff576109fe610917565b5b610a0a8482856109c3565b509392505050565b5f82601f830112610a2657610a25610913565b5b8135610a368482602086016109d1565b91505092915050565b5f60208284031215610a5457610a53610682565b5b5f82013567ffffffffffffffff811115610a7157610a70610686565b5b610a7d84828501610a12565b91505092915050565b5f60208284031215610a9b57610a9a610682565b5b5f610aa8848285016106d0565b91505092915050565b5f81519050919050565b5f82825260208201905092915050565b5f819050602082019050919050565b5f608083015f830151610aef5f86018261082d565b5060208301518482036020860152610b07828261084c565b9150506040830151610b1c6040860182610884565b506060830151610b2f6060860182610884565b508091505092915050565b5f610b458383610ada565b905092915050565b5f602082019050919050565b5f610b6382610ab1565b610b6d8185610abb565b935083602082028501610b7f85610acb565b805f5b85811015610bba5784840389528151610b9b8582610b3a565b9450610ba683610b4d565b925060208a01995050600181019050610b82565b50829750879550505050505092915050565b5f6020820190508181035f830152610be48184610b59565b905092915050565b7f4e487b71000000000000000000000000000000000000000000000000000000005f52602260045260245ffd5b5f6002820490506001821680610c3057607f821691505b602082108103610c4357610c42610bec565b5b50919050565b7f4e487b71000000000000000000000000000000000000000000000000000000005f52603260045260245ffd5b7f545745455420544f4f204c4f4f4f4f4e472042524f4f4f4f4f4f4f21212121005f82015250565b5f610caa601f8361076e565b9150610cb582610c76565b602082019050919050565b5f6020820190508181035f830152610cd781610c9e565b9050919050565b5f819050815f5260205f209050919050565b5f6020601f8301049050919050565b5f82821b905092915050565b5f60088302610d3a7fffffffffffffffffffffffffffffffffffffffffffffffffffffffffffffffff82610cff565b610d448683610cff565b95508019841693508086168417925050509392505050565b5f819050919050565b5f610d7f610d7a610d75846106e4565b610d5c565b6106e4565b9050919050565b5f819050919050565b610d9883610d65565b610dac610da482610d86565b848454610d0b565b825550505050565b5f90565b610dc0610db4565b610dcb818484610d8f565b505050565b5b81811015610dee57610de35f82610db8565b600181019050610dd1565b5050565b601f821115610e3357610e0481610cde565b610e0d84610cf0565b81016020851015610e1c578190505b610e30610e2885610cf0565b830182610dd0565b50505b505050565b5f82821c905092915050565b5f610e535f1984600802610e38565b1980831691505092915050565b5f610e6b8383610e44565b9150826002028217905092915050565b610e8482610764565b67ffffffffffffffff811115610e9d57610e9c61091b565b5b610ea78254610c19565b610eb2828285610df2565b5f60209050601f831160018114610ee3575f8415610ed1578287015190505b610edb8582610e60565b865550610f42565b601f198416610ef186610cde565b5f5b82811015610f1857848901518255600182019150602085019450602081019050610ef3565b86831015610f355784890151610f31601f891682610e44565b8355505b6001600288020188555050505b50505050505056fea26469706673582212206814fedebeb10237726a428d9e174b99204265330053d7d76e7812e82555eafe64736f6c634300081a0033",
					"opcodes": "PUSH1 0x80 PUSH1 0x40 MSTORE CALLVALUE DUP1 ISZERO PUSH1 0xE JUMPI PUSH0 DUP1 REVERT JUMPDEST POP PUSH2 0xF80 DUP1 PUSH2 0x1C PUSH0 CODECOPY PUSH0 RETURN INVALID PUSH1 0x80 PUSH1 0x40 MSTORE CALLVALUE DUP1 ISZERO PUSH2 0xF JUMPI PUSH0 DUP1 REVERT JUMPDEST POP PUSH1 0x4 CALLDATASIZE LT PUSH2 0x4A JUMPI PUSH0 CALLDATALOAD PUSH1 0xE0 SHR DUP1 PUSH4 0x5A1B4A9 EQ PUSH2 0x4E JUMPI DUP1 PUSH4 0x254E4019 EQ PUSH2 0x81 JUMPI DUP1 PUSH4 0x7C9CD2BC EQ PUSH2 0xB1 JUMPI DUP1 PUSH4 0x9E92B093 EQ PUSH2 0xCD JUMPI JUMPDEST PUSH0 DUP1 REVERT JUMPDEST PUSH2 0x68 PUSH1 0x4 DUP1 CALLDATASIZE SUB DUP2 ADD SWAP1 PUSH2 0x63 SWAP2 SWAP1 PUSH2 0x717 JUMP JUMPDEST PUSH2 0xFD JUMP JUMPDEST PUSH1 0x40 MLOAD PUSH2 0x78 SWAP5 SWAP4 SWAP3 SWAP2 SWAP1 PUSH2 0x7E3 JUMP JUMPDEST PUSH1 0x40 MLOAD DUP1 SWAP2 SUB SWAP1 RETURN JUMPDEST PUSH2 0x9B PUSH1 0x4 DUP1 CALLDATASIZE SUB DUP2 ADD SWAP1 PUSH2 0x96 SWAP2 SWAP1 PUSH2 0x717 JUMP JUMPDEST PUSH2 0x1E7 JUMP JUMPDEST PUSH1 0x40 MLOAD PUSH2 0xA8 SWAP2 SWAP1 PUSH2 0x8F3 JUMP JUMPDEST PUSH1 0x40 MLOAD DUP1 SWAP2 SUB SWAP1 RETURN JUMPDEST PUSH2 0xCB PUSH1 0x4 DUP1 CALLDATASIZE SUB DUP2 ADD SWAP1 PUSH2 0xC6 SWAP2 SWAP1 PUSH2 0xA3F JUMP JUMPDEST PUSH2 0x354 JUMP JUMPDEST STOP JUMPDEST PUSH2 0xE7 PUSH1 0x4 DUP1 CALLDATASIZE SUB DUP2 ADD SWAP1 PUSH2 0xE2 SWAP2 SWAP1 PUSH2 0xA86 JUMP JUMPDEST PUSH2 0x4AE JUMP JUMPDEST PUSH1 0x40 MLOAD PUSH2 0xF4 SWAP2 SWAP1 PUSH2 0xBCC JUMP JUMPDEST PUSH1 0x40 MLOAD DUP1 SWAP2 SUB SWAP1 RETURN JUMPDEST PUSH0 PUSH1 0x20 MSTORE DUP2 PUSH0 MSTORE PUSH1 0x40 PUSH0 KECCAK256 DUP2 DUP2 SLOAD DUP2 LT PUSH2 0x115 JUMPI PUSH0 DUP1 REVERT JUMPDEST SWAP1 PUSH0 MSTORE PUSH1 0x20 PUSH0 KECCAK256 SWAP1 PUSH1 0x4 MUL ADD PUSH0 SWAP2 POP SWAP2 POP POP DUP1 PUSH0 ADD PUSH0 SWAP1 SLOAD SWAP1 PUSH2 0x100 EXP SWAP1 DIV PUSH20 0xFFFFFFFFFFFFFFFFFFFFFFFFFFFFFFFFFFFFFFFF AND SWAP1 DUP1 PUSH1 0x1 ADD DUP1 SLOAD PUSH2 0x15A SWAP1 PUSH2 0xC19 JUMP JUMPDEST DUP1 PUSH1 0x1F ADD PUSH1 0x20 DUP1 SWAP2 DIV MUL PUSH1 0x20 ADD PUSH1 0x40 MLOAD SWAP1 DUP2 ADD PUSH1 0x40 MSTORE DUP1 SWAP3 SWAP2 SWAP1 DUP2 DUP2 MSTORE PUSH1 0x20 ADD DUP3 DUP1 SLOAD PUSH2 0x186 SWAP1 PUSH2 0xC19 JUMP JUMPDEST DUP1 ISZERO PUSH2 0x1D1 JUMPI DUP1 PUSH1 0x1F LT PUSH2 0x1A8 JUMPI PUSH2 0x100 DUP1 DUP4 SLOAD DIV MUL DUP4 MSTORE SWAP2 PUSH1 0x20 ADD SWAP2 PUSH2 0x1D1 JUMP JUMPDEST DUP3 ADD SWAP2 SWAP1 PUSH0 MSTORE PUSH1 0x20 PUSH0 KECCAK256 SWAP1 JUMPDEST DUP2 SLOAD DUP2 MSTORE SWAP1 PUSH1 0x1 ADD SWAP1 PUSH1 0x20 ADD DUP1 DUP4 GT PUSH2 0x1B4 JUMPI DUP3 SWAP1 SUB PUSH1 0x1F AND DUP3 ADD SWAP2 JUMPDEST POP POP POP POP POP SWAP1 DUP1 PUSH1 0x2 ADD SLOAD SWAP1 DUP1 PUSH1 0x3 ADD SLOAD SWAP1 POP DUP5 JUMP JUMPDEST PUSH2 0x1EF PUSH2 0x63E JUMP JUMPDEST PUSH0 DUP1 DUP5 PUSH20 0xFFFFFFFFFFFFFFFFFFFFFFFFFFFFFFFFFFFFFFFF AND PUSH20 0xFFFFFFFFFFFFFFFFFFFFFFFFFFFFFFFFFFFFFFFF AND DUP2 MSTORE PUSH1 0x20 ADD SWAP1 DUP2 MSTORE PUSH1 0x20 ADD PUSH0 KECCAK256 DUP3 DUP2 SLOAD DUP2 LT PUSH2 0x23D JUMPI PUSH2 0x23C PUSH2 0xC49 JUMP JUMPDEST JUMPDEST SWAP1 PUSH0 MSTORE PUSH1 0x20 PUSH0 KECCAK256 SWAP1 PUSH1 0x4 MUL ADD PUSH1 0x40 MLOAD DUP1 PUSH1 0x80 ADD PUSH1 0x40 MSTORE SWAP1 DUP2 PUSH0 DUP3 ADD PUSH0 SWAP1 SLOAD SWAP1 PUSH2 0x100 EXP SWAP1 DIV PUSH20 0xFFFFFFFFFFFFFFFFFFFFFFFFFFFFFFFFFFFFFFFF AND PUSH20 0xFFFFFFFFFFFFFFFFFFFFFFFFFFFFFFFFFFFFFFFF AND PUSH20 0xFFFFFFFFFFFFFFFFFFFFFFFFFFFFFFFFFFFFFFFF AND DUP2 MSTORE PUSH1 0x20 ADD PUSH1 0x1 DUP3 ADD DUP1 SLOAD PUSH2 0x2B8 SWAP1 PUSH2 0xC19 JUMP JUMPDEST DUP1 PUSH1 0x1F ADD PUSH1 0x20 DUP1 SWAP2 DIV MUL PUSH1 0x20 ADD PUSH1 0x40 MLOAD SWAP1 DUP2 ADD PUSH1 0x40 MSTORE DUP1 SWAP3 SWAP2 SWAP1 DUP2 DUP2 MSTORE PUSH1 0x20 ADD DUP3 DUP1 SLOAD PUSH2 0x2E4 SWAP1 PUSH2 0xC19 JUMP JUMPDEST DUP1 ISZERO PUSH2 0x32F JUMPI DUP1 PUSH1 0x1F LT PUSH2 0x306 JUMPI PUSH2 0x100 DUP1 DUP4 SLOAD DIV MUL DUP4 MSTORE SWAP2 PUSH1 0x20 ADD SWAP2 PUSH2 0x32F JUMP JUMPDEST DUP3 ADD SWAP2 SWAP1 PUSH0 MSTORE PUSH1 0x20 PUSH0 KECCAK256 SWAP1 JUMPDEST DUP2 SLOAD DUP2 MSTORE SWAP1 PUSH1 0x1 ADD SWAP1 PUSH1 0x20 ADD DUP1 DUP4 GT PUSH2 0x312 JUMPI DUP3 SWAP1 SUB PUSH1 0x1F AND DUP3 ADD SWAP2 JUMPDEST POP POP POP POP POP DUP2 MSTORE PUSH1 0x20 ADD PUSH1 0x2 DUP3 ADD SLOAD DUP2 MSTORE PUSH1 0x20 ADD PUSH1 0x3 DUP3 ADD SLOAD DUP2 MSTORE POP POP SWAP1 POP SWAP3 SWAP2 POP POP JUMP JUMPDEST PUSH1 0x5 PUSH2 0xFFFF AND DUP2 MLOAD GT ISZERO PUSH2 0x39D JUMPI PUSH1 0x40 MLOAD PUSH32 0x8C379A000000000000000000000000000000000000000000000000000000000 DUP2 MSTORE PUSH1 0x4 ADD PUSH2 0x394 SWAP1 PUSH2 0xCC0 JUMP JUMPDEST PUSH1 0x40 MLOAD DUP1 SWAP2 SUB SWAP1 REVERT JUMPDEST PUSH0 PUSH1 0x40 MLOAD DUP1 PUSH1 0x80 ADD PUSH1 0x40 MSTORE DUP1 CALLER PUSH20 0xFFFFFFFFFFFFFFFFFFFFFFFFFFFFFFFFFFFFFFFF AND DUP2 MSTORE PUSH1 0x20 ADD DUP4 DUP2 MSTORE PUSH1 0x20 ADD TIMESTAMP DUP2 MSTORE PUSH1 0x20 ADD PUSH0 DUP2 MSTORE POP SWAP1 POP PUSH0 DUP1 CALLER PUSH20 0xFFFFFFFFFFFFFFFFFFFFFFFFFFFFFFFFFFFFFFFF AND PUSH20 0xFFFFFFFFFFFFFFFFFFFFFFFFFFFFFFFFFFFFFFFF AND DUP2 MSTORE PUSH1 0x20 ADD SWAP1 DUP2 MSTORE PUSH1 0x20 ADD PUSH0 KECCAK256 DUP2 SWAP1 DUP1 PUSH1 0x1 DUP2 SLOAD ADD DUP1 DUP3 SSTORE DUP1 SWAP2 POP POP PUSH1 0x1 SWAP1 SUB SWAP1 PUSH0 MSTORE PUSH1 0x20 PUSH0 KECCAK256 SWAP1 PUSH1 0x4 MUL ADD PUSH0 SWAP1 SWAP2 SWAP1 SWAP2 SWAP1 SWAP2 POP PUSH0 DUP3 ADD MLOAD DUP2 PUSH0 ADD PUSH0 PUSH2 0x100 EXP DUP2 SLOAD DUP2 PUSH20 0xFFFFFFFFFFFFFFFFFFFFFFFFFFFFFFFFFFFFFFFF MUL NOT AND SWAP1 DUP4 PUSH20 0xFFFFFFFFFFFFFFFFFFFFFFFFFFFFFFFFFFFFFFFF AND MUL OR SWAP1 SSTORE POP PUSH1 0x20 DUP3 ADD MLOAD DUP2 PUSH1 0x1 ADD SWAP1 DUP2 PUSH2 0x493 SWAP2 SWAP1 PUSH2 0xE7B JUMP JUMPDEST POP PUSH1 0x40 DUP3 ADD MLOAD DUP2 PUSH1 0x2 ADD SSTORE PUSH1 0x60 DUP3 ADD MLOAD DUP2 PUSH1 0x3 ADD SSTORE POP POP POP POP JUMP JUMPDEST PUSH1 0x60 PUSH0 DUP1 DUP4 PUSH20 0xFFFFFFFFFFFFFFFFFFFFFFFFFFFFFFFFFFFFFFFF AND PUSH20 0xFFFFFFFFFFFFFFFFFFFFFFFFFFFFFFFFFFFFFFFF AND DUP2 MSTORE PUSH1 0x20 ADD SWAP1 DUP2 MSTORE PUSH1 0x20 ADD PUSH0 KECCAK256 DUP1 SLOAD DUP1 PUSH1 0x20 MUL PUSH1 0x20 ADD PUSH1 0x40 MLOAD SWAP1 DUP2 ADD PUSH1 0x40 MSTORE DUP1 SWAP3 SWAP2 SWAP1 DUP2 DUP2 MSTORE PUSH1 0x20 ADD PUSH0 SWAP1 JUMPDEST DUP3 DUP3 LT ISZERO PUSH2 0x633 JUMPI DUP4 DUP3 SWAP1 PUSH0 MSTORE PUSH1 0x20 PUSH0 KECCAK256 SWAP1 PUSH1 0x4 MUL ADD PUSH1 0x40 MLOAD DUP1 PUSH1 0x80 ADD PUSH1 0x40 MSTORE SWAP1 DUP2 PUSH0 DUP3 ADD PUSH0 SWAP1 SLOAD SWAP1 PUSH2 0x100 EXP SWAP1 DIV PUSH20 0xFFFFFFFFFFFFFFFFFFFFFFFFFFFFFFFFFFFFFFFF AND PUSH20 0xFFFFFFFFFFFFFFFFFFFFFFFFFFFFFFFFFFFFFFFF AND PUSH20 0xFFFFFFFFFFFFFFFFFFFFFFFFFFFFFFFFFFFFFFFF AND DUP2 MSTORE PUSH1 0x20 ADD PUSH1 0x1 DUP3 ADD DUP1 SLOAD PUSH2 0x590 SWAP1 PUSH2 0xC19 JUMP JUMPDEST DUP1 PUSH1 0x1F ADD PUSH1 0x20 DUP1 SWAP2 DIV MUL PUSH1 0x20 ADD PUSH1 0x40 MLOAD SWAP1 DUP2 ADD PUSH1 0x40 MSTORE DUP1 SWAP3 SWAP2 SWAP1 DUP2 DUP2 MSTORE PUSH1 0x20 ADD DUP3 DUP1 SLOAD PUSH2 0x5BC SWAP1 PUSH2 0xC19 JUMP JUMPDEST DUP1 ISZERO PUSH2 0x607 JUMPI DUP1 PUSH1 0x1F LT PUSH2 0x5DE JUMPI PUSH2 0x100 DUP1 DUP4 SLOAD DIV MUL DUP4 MSTORE SWAP2 PUSH1 0x20 ADD SWAP2 PUSH2 0x607 JUMP JUMPDEST DUP3 ADD SWAP2 SWAP1 PUSH0 MSTORE PUSH1 0x20 PUSH0 KECCAK256 SWAP1 JUMPDEST DUP2 SLOAD DUP2 MSTORE SWAP1 PUSH1 0x1 ADD SWAP1 PUSH1 0x20 ADD DUP1 DUP4 GT PUSH2 0x5EA JUMPI DUP3 SWAP1 SUB PUSH1 0x1F AND DUP3 ADD SWAP2 JUMPDEST POP POP POP POP POP DUP2 MSTORE PUSH1 0x20 ADD PUSH1 0x2 DUP3 ADD SLOAD DUP2 MSTORE PUSH1 0x20 ADD PUSH1 0x3 DUP3 ADD SLOAD DUP2 MSTORE POP POP DUP2 MSTORE PUSH1 0x20 ADD SWAP1 PUSH1 0x1 ADD SWAP1 PUSH2 0x50B JUMP JUMPDEST POP POP POP POP SWAP1 POP SWAP2 SWAP1 POP JUMP JUMPDEST PUSH1 0x40 MLOAD DUP1 PUSH1 0x80 ADD PUSH1 0x40 MSTORE DUP1 PUSH0 PUSH20 0xFFFFFFFFFFFFFFFFFFFFFFFFFFFFFFFFFFFFFFFF AND DUP2 MSTORE PUSH1 0x20 ADD PUSH1 0x60 DUP2 MSTORE PUSH1 0x20 ADD PUSH0 DUP2 MSTORE PUSH1 0x20 ADD PUSH0 DUP2 MSTORE POP SWAP1 JUMP JUMPDEST PUSH0 PUSH1 0x40 MLOAD SWAP1 POP SWAP1 JUMP JUMPDEST PUSH0 DUP1 REVERT JUMPDEST PUSH0 DUP1 REVERT JUMPDEST PUSH0 PUSH20 0xFFFFFFFFFFFFFFFFFFFFFFFFFFFFFFFFFFFFFFFF DUP3 AND SWAP1 POP SWAP2 SWAP1 POP JUMP JUMPDEST PUSH0 PUSH2 0x6B3 DUP3 PUSH2 0x68A JUMP JUMPDEST SWAP1 POP SWAP2 SWAP1 POP JUMP JUMPDEST PUSH2 0x6C3 DUP2 PUSH2 0x6A9 JUMP JUMPDEST DUP2 EQ PUSH2 0x6CD JUMPI PUSH0 DUP1 REVERT JUMPDEST POP JUMP JUMPDEST PUSH0 DUP2 CALLDATALOAD SWAP1 POP PUSH2 0x6DE DUP2 PUSH2 0x6BA JUMP JUMPDEST SWAP3 SWAP2 POP POP JUMP JUMPDEST PUSH0 DUP2 SWAP1 POP SWAP2 SWAP1 POP JUMP JUMPDEST PUSH2 0x6F6 DUP2 PUSH2 0x6E4 JUMP JUMPDEST DUP2 EQ PUSH2 0x700 JUMPI PUSH0 DUP1 REVERT JUMPDEST POP JUMP JUMPDEST PUSH0 DUP2 CALLDATALOAD SWAP1 POP PUSH2 0x711 DUP2 PUSH2 0x6ED JUMP JUMPDEST SWAP3 SWAP2 POP POP JUMP JUMPDEST PUSH0 DUP1 PUSH1 0x40 DUP4 DUP6 SUB SLT ISZERO PUSH2 0x72D JUMPI PUSH2 0x72C PUSH2 0x682 JUMP JUMPDEST JUMPDEST PUSH0 PUSH2 0x73A DUP6 DUP3 DUP7 ADD PUSH2 0x6D0 JUMP JUMPDEST SWAP3 POP POP PUSH1 0x20 PUSH2 0x74B DUP6 DUP3 DUP7 ADD PUSH2 0x703 JUMP JUMPDEST SWAP2 POP POP SWAP3 POP SWAP3 SWAP1 POP JUMP JUMPDEST PUSH2 0x75E DUP2 PUSH2 0x6A9 JUMP JUMPDEST DUP3 MSTORE POP POP JUMP JUMPDEST PUSH0 DUP2 MLOAD SWAP1 POP SWAP2 SWAP1 POP JUMP JUMPDEST PUSH0 DUP3 DUP3 MSTORE PUSH1 0x20 DUP3 ADD SWAP1 POP SWAP3 SWAP2 POP POP JUMP JUMPDEST DUP3 DUP2 DUP4 MCOPY PUSH0 DUP4 DUP4 ADD MSTORE POP POP POP JUMP JUMPDEST PUSH0 PUSH1 0x1F NOT PUSH1 0x1F DUP4 ADD AND SWAP1 POP SWAP2 SWAP1 POP JUMP JUMPDEST PUSH0 PUSH2 0x7A6 DUP3 PUSH2 0x764 JUMP JUMPDEST PUSH2 0x7B0 DUP2 DUP6 PUSH2 0x76E JUMP JUMPDEST SWAP4 POP PUSH2 0x7C0 DUP2 DUP6 PUSH1 0x20 DUP7 ADD PUSH2 0x77E JUMP JUMPDEST PUSH2 0x7C9 DUP2 PUSH2 0x78C JUMP JUMPDEST DUP5 ADD SWAP2 POP POP SWAP3 SWAP2 POP POP JUMP JUMPDEST PUSH2 0x7DD DUP2 PUSH2 0x6E4 JUMP JUMPDEST DUP3 MSTORE POP POP JUMP JUMPDEST PUSH0 PUSH1 0x80 DUP3 ADD SWAP1 POP PUSH2 0x7F6 PUSH0 DUP4 ADD DUP8 PUSH2 0x755 JUMP JUMPDEST DUP2 DUP2 SUB PUSH1 0x20 DUP4 ADD MSTORE PUSH2 0x808 DUP2 DUP7 PUSH2 0x79C JUMP JUMPDEST SWAP1 POP PUSH2 0x817 PUSH1 0x40 DUP4 ADD DUP6 PUSH2 0x7D4 JUMP JUMPDEST PUSH2 0x824 PUSH1 0x60 DUP4 ADD DUP5 PUSH2 0x7D4 JUMP JUMPDEST SWAP6 SWAP5 POP POP POP POP POP JUMP JUMPDEST PUSH2 0x836 DUP2 PUSH2 0x6A9 JUMP JUMPDEST DUP3 MSTORE POP POP JUMP JUMPDEST PUSH0 DUP3 DUP3 MSTORE PUSH1 0x20 DUP3 ADD SWAP1 POP SWAP3 SWAP2 POP POP JUMP JUMPDEST PUSH0 PUSH2 0x856 DUP3 PUSH2 0x764 JUMP JUMPDEST PUSH2 0x860 DUP2 DUP6 PUSH2 0x83C JUMP JUMPDEST SWAP4 POP PUSH2 0x870 DUP2 DUP6 PUSH1 0x20 DUP7 ADD PUSH2 0x77E JUMP JUMPDEST PUSH2 0x879 DUP2 PUSH2 0x78C JUMP JUMPDEST DUP5 ADD SWAP2 POP POP SWAP3 SWAP2 POP POP JUMP JUMPDEST PUSH2 0x88D DUP2 PUSH2 0x6E4 JUMP JUMPDEST DUP3 MSTORE POP POP JUMP JUMPDEST PUSH0 PUSH1 0x80 DUP4 ADD PUSH0 DUP4 ADD MLOAD PUSH2 0x8A8 PUSH0 DUP7 ADD DUP3 PUSH2 0x82D JUMP JUMPDEST POP PUSH1 0x20 DUP4 ADD MLOAD DUP5 DUP3 SUB PUSH1 0x20 DUP7 ADD MSTORE PUSH2 0x8C0 DUP3 DUP3 PUSH2 0x84C JUMP JUMPDEST SWAP2 POP POP PUSH1 0x40 DUP4 ADD MLOAD PUSH2 0x8D5 PUSH1 0x40 DUP7 ADD DUP3 PUSH2 0x884 JUMP JUMPDEST POP PUSH1 0x60 DUP4 ADD MLOAD PUSH2 0x8E8 PUSH1 0x60 DUP7 ADD DUP3 PUSH2 0x884 JUMP JUMPDEST POP DUP1 SWAP2 POP POP SWAP3 SWAP2 POP POP JUMP JUMPDEST PUSH0 PUSH1 0x20 DUP3 ADD SWAP1 POP DUP2 DUP2 SUB PUSH0 DUP4 ADD MSTORE PUSH2 0x90B DUP2 DUP5 PUSH2 0x893 JUMP JUMPDEST SWAP1 POP SWAP3 SWAP2 POP POP JUMP JUMPDEST PUSH0 DUP1 REVERT JUMPDEST PUSH0 DUP1 REVERT JUMPDEST PUSH32 0x4E487B7100000000000000000000000000000000000000000000000000000000 PUSH0 MSTORE PUSH1 0x41 PUSH1 0x4 MSTORE PUSH1 0x24 PUSH0 REVERT JUMPDEST PUSH2 0x951 DUP3 PUSH2 0x78C JUMP JUMPDEST DUP2 ADD DUP2 DUP2 LT PUSH8 0xFFFFFFFFFFFFFFFF DUP3 GT OR ISZERO PUSH2 0x970 JUMPI PUSH2 0x96F PUSH2 0x91B JUMP JUMPDEST JUMPDEST DUP1 PUSH1 0x40 MSTORE POP POP POP JUMP JUMPDEST PUSH0 PUSH2 0x982 PUSH2 0x679 JUMP JUMPDEST SWAP1 POP PUSH2 0x98E DUP3 DUP3 PUSH2 0x948 JUMP JUMPDEST SWAP2 SWAP1 POP JUMP JUMPDEST PUSH0 PUSH8 0xFFFFFFFFFFFFFFFF DUP3 GT ISZERO PUSH2 0x9AD JUMPI PUSH2 0x9AC PUSH2 0x91B JUMP JUMPDEST JUMPDEST PUSH2 0x9B6 DUP3 PUSH2 0x78C JUMP JUMPDEST SWAP1 POP PUSH1 0x20 DUP2 ADD SWAP1 POP SWAP2 SWAP1 POP JUMP JUMPDEST DUP3 DUP2 DUP4 CALLDATACOPY PUSH0 DUP4 DUP4 ADD MSTORE POP POP POP JUMP JUMPDEST PUSH0 PUSH2 0x9E3 PUSH2 0x9DE DUP5 PUSH2 0x993 JUMP JUMPDEST PUSH2 0x979 JUMP JUMPDEST SWAP1 POP DUP3 DUP2 MSTORE PUSH1 0x20 DUP2 ADD DUP5 DUP5 DUP5 ADD GT ISZERO PUSH2 0x9FF JUMPI PUSH2 0x9FE PUSH2 0x917 JUMP JUMPDEST JUMPDEST PUSH2 0xA0A DUP5 DUP3 DUP6 PUSH2 0x9C3 JUMP JUMPDEST POP SWAP4 SWAP3 POP POP POP JUMP JUMPDEST PUSH0 DUP3 PUSH1 0x1F DUP4 ADD SLT PUSH2 0xA26 JUMPI PUSH2 0xA25 PUSH2 0x913 JUMP JUMPDEST JUMPDEST DUP2 CALLDATALOAD PUSH2 0xA36 DUP5 DUP3 PUSH1 0x20 DUP7 ADD PUSH2 0x9D1 JUMP JUMPDEST SWAP2 POP POP SWAP3 SWAP2 POP POP JUMP JUMPDEST PUSH0 PUSH1 0x20 DUP3 DUP5 SUB SLT ISZERO PUSH2 0xA54 JUMPI PUSH2 0xA53 PUSH2 0x682 JUMP JUMPDEST JUMPDEST PUSH0 DUP3 ADD CALLDATALOAD PUSH8 0xFFFFFFFFFFFFFFFF DUP2 GT ISZERO PUSH2 0xA71 JUMPI PUSH2 0xA70 PUSH2 0x686 JUMP JUMPDEST JUMPDEST PUSH2 0xA7D DUP5 DUP3 DUP6 ADD PUSH2 0xA12 JUMP JUMPDEST SWAP2 POP POP SWAP3 SWAP2 POP POP JUMP JUMPDEST PUSH0 PUSH1 0x20 DUP3 DUP5 SUB SLT ISZERO PUSH2 0xA9B JUMPI PUSH2 0xA9A PUSH2 0x682 JUMP JUMPDEST JUMPDEST PUSH0 PUSH2 0xAA8 DUP5 DUP3 DUP6 ADD PUSH2 0x6D0 JUMP JUMPDEST SWAP2 POP POP SWAP3 SWAP2 POP POP JUMP JUMPDEST PUSH0 DUP2 MLOAD SWAP1 POP SWAP2 SWAP1 POP JUMP JUMPDEST PUSH0 DUP3 DUP3 MSTORE PUSH1 0x20 DUP3 ADD SWAP1 POP SWAP3 SWAP2 POP POP JUMP JUMPDEST PUSH0 DUP2 SWAP1 POP PUSH1 0x20 DUP3 ADD SWAP1 POP SWAP2 SWAP1 POP JUMP JUMPDEST PUSH0 PUSH1 0x80 DUP4 ADD PUSH0 DUP4 ADD MLOAD PUSH2 0xAEF PUSH0 DUP7 ADD DUP3 PUSH2 0x82D JUMP JUMPDEST POP PUSH1 0x20 DUP4 ADD MLOAD DUP5 DUP3 SUB PUSH1 0x20 DUP7 ADD MSTORE PUSH2 0xB07 DUP3 DUP3 PUSH2 0x84C JUMP JUMPDEST SWAP2 POP POP PUSH1 0x40 DUP4 ADD MLOAD PUSH2 0xB1C PUSH1 0x40 DUP7 ADD DUP3 PUSH2 0x884 JUMP JUMPDEST POP PUSH1 0x60 DUP4 ADD MLOAD PUSH2 0xB2F PUSH1 0x60 DUP7 ADD DUP3 PUSH2 0x884 JUMP JUMPDEST POP DUP1 SWAP2 POP POP SWAP3 SWAP2 POP POP JUMP JUMPDEST PUSH0 PUSH2 0xB45 DUP4 DUP4 PUSH2 0xADA JUMP JUMPDEST SWAP1 POP SWAP3 SWAP2 POP POP JUMP JUMPDEST PUSH0 PUSH1 0x20 DUP3 ADD SWAP1 POP SWAP2 SWAP1 POP JUMP JUMPDEST PUSH0 PUSH2 0xB63 DUP3 PUSH2 0xAB1 JUMP JUMPDEST PUSH2 0xB6D DUP2 DUP6 PUSH2 0xABB JUMP JUMPDEST SWAP4 POP DUP4 PUSH1 0x20 DUP3 MUL DUP6 ADD PUSH2 0xB7F DUP6 PUSH2 0xACB JUMP JUMPDEST DUP1 PUSH0 JUMPDEST DUP6 DUP2 LT ISZERO PUSH2 0xBBA JUMPI DUP5 DUP5 SUB DUP10 MSTORE DUP2 MLOAD PUSH2 0xB9B DUP6 DUP3 PUSH2 0xB3A JUMP JUMPDEST SWAP5 POP PUSH2 0xBA6 DUP4 PUSH2 0xB4D JUMP JUMPDEST SWAP3 POP PUSH1 0x20 DUP11 ADD SWAP10 POP POP PUSH1 0x1 DUP2 ADD SWAP1 POP PUSH2 0xB82 JUMP JUMPDEST POP DUP3 SWAP8 POP DUP8 SWAP6 POP POP POP POP POP POP SWAP3 SWAP2 POP POP JUMP JUMPDEST PUSH0 PUSH1 0x20 DUP3 ADD SWAP1 POP DUP2 DUP2 SUB PUSH0 DUP4 ADD MSTORE PUSH2 0xBE4 DUP2 DUP5 PUSH2 0xB59 JUMP JUMPDEST SWAP1 POP SWAP3 SWAP2 POP POP JUMP JUMPDEST PUSH32 0x4E487B7100000000000000000000000000000000000000000000000000000000 PUSH0 MSTORE PUSH1 0x22 PUSH1 0x4 MSTORE PUSH1 0x24 PUSH0 REVERT JUMPDEST PUSH0 PUSH1 0x2 DUP3 DIV SWAP1 POP PUSH1 0x1 DUP3 AND DUP1 PUSH2 0xC30 JUMPI PUSH1 0x7F DUP3 AND SWAP2 POP JUMPDEST PUSH1 0x20 DUP3 LT DUP2 SUB PUSH2 0xC43 JUMPI PUSH2 0xC42 PUSH2 0xBEC JUMP JUMPDEST JUMPDEST POP SWAP2 SWAP1 POP JUMP JUMPDEST PUSH32 0x4E487B7100000000000000000000000000000000000000000000000000000000 PUSH0 MSTORE PUSH1 0x32 PUSH1 0x4 MSTORE PUSH1 0x24 PUSH0 REVERT JUMPDEST PUSH32 0x545745455420544F4F204C4F4F4F4F4E472042524F4F4F4F4F4F4F2121212100 PUSH0 DUP3 ADD MSTORE POP JUMP JUMPDEST PUSH0 PUSH2 0xCAA PUSH1 0x1F DUP4 PUSH2 0x76E JUMP JUMPDEST SWAP2 POP PUSH2 0xCB5 DUP3 PUSH2 0xC76 JUMP JUMPDEST PUSH1 0x20 DUP3 ADD SWAP1 POP SWAP2 SWAP1 POP JUMP JUMPDEST PUSH0 PUSH1 0x20 DUP3 ADD SWAP1 POP DUP2 DUP2 SUB PUSH0 DUP4 ADD MSTORE PUSH2 0xCD7 DUP2 PUSH2 0xC9E JUMP JUMPDEST SWAP1 POP SWAP2 SWAP1 POP JUMP JUMPDEST PUSH0 DUP2 SWAP1 POP DUP2 PUSH0 MSTORE PUSH1 0x20 PUSH0 KECCAK256 SWAP1 POP SWAP2 SWAP1 POP JUMP JUMPDEST PUSH0 PUSH1 0x20 PUSH1 0x1F DUP4 ADD DIV SWAP1 POP SWAP2 SWAP1 POP JUMP JUMPDEST PUSH0 DUP3 DUP3 SHL SWAP1 POP SWAP3 SWAP2 POP POP JUMP JUMPDEST PUSH0 PUSH1 0x8 DUP4 MUL PUSH2 0xD3A PUSH32 0xFFFFFFFFFFFFFFFFFFFFFFFFFFFFFFFFFFFFFFFFFFFFFFFFFFFFFFFFFFFFFFFF DUP3 PUSH2 0xCFF JUMP JUMPDEST PUSH2 0xD44 DUP7 DUP4 PUSH2 0xCFF JUMP JUMPDEST SWAP6 POP DUP1 NOT DUP5 AND SWAP4 POP DUP1 DUP7 AND DUP5 OR SWAP3 POP POP POP SWAP4 SWAP3 POP POP POP JUMP JUMPDEST PUSH0 DUP2 SWAP1 POP SWAP2 SWAP1 POP JUMP JUMPDEST PUSH0 PUSH2 0xD7F PUSH2 0xD7A PUSH2 0xD75 DUP5 PUSH2 0x6E4 JUMP JUMPDEST PUSH2 0xD5C JUMP JUMPDEST PUSH2 0x6E4 JUMP JUMPDEST SWAP1 POP SWAP2 SWAP1 POP JUMP JUMPDEST PUSH0 DUP2 SWAP1 POP SWAP2 SWAP1 POP JUMP JUMPDEST PUSH2 0xD98 DUP4 PUSH2 0xD65 JUMP JUMPDEST PUSH2 0xDAC PUSH2 0xDA4 DUP3 PUSH2 0xD86 JUMP JUMPDEST DUP5 DUP5 SLOAD PUSH2 0xD0B JUMP JUMPDEST DUP3 SSTORE POP POP POP POP JUMP JUMPDEST PUSH0 SWAP1 JUMP JUMPDEST PUSH2 0xDC0 PUSH2 0xDB4 JUMP JUMPDEST PUSH2 0xDCB DUP2 DUP5 DUP5 PUSH2 0xD8F JUMP JUMPDEST POP POP POP JUMP JUMPDEST JUMPDEST DUP2 DUP2 LT ISZERO PUSH2 0xDEE JUMPI PUSH2 0xDE3 PUSH0 DUP3 PUSH2 0xDB8 JUMP JUMPDEST PUSH1 0x1 DUP2 ADD SWAP1 POP PUSH2 0xDD1 JUMP JUMPDEST POP POP JUMP JUMPDEST PUSH1 0x1F DUP3 GT ISZERO PUSH2 0xE33 JUMPI PUSH2 0xE04 DUP2 PUSH2 0xCDE JUMP JUMPDEST PUSH2 0xE0D DUP5 PUSH2 0xCF0 JUMP JUMPDEST DUP2 ADD PUSH1 0x20 DUP6 LT ISZERO PUSH2 0xE1C JUMPI DUP2 SWAP1 POP JUMPDEST PUSH2 0xE30 PUSH2 0xE28 DUP6 PUSH2 0xCF0 JUMP JUMPDEST DUP4 ADD DUP3 PUSH2 0xDD0 JUMP JUMPDEST POP POP JUMPDEST POP POP POP JUMP JUMPDEST PUSH0 DUP3 DUP3 SHR SWAP1 POP SWAP3 SWAP2 POP POP JUMP JUMPDEST PUSH0 PUSH2 0xE53 PUSH0 NOT DUP5 PUSH1 0x8 MUL PUSH2 0xE38 JUMP JUMPDEST NOT DUP1 DUP4 AND SWAP2 POP POP SWAP3 SWAP2 POP POP JUMP JUMPDEST PUSH0 PUSH2 0xE6B DUP4 DUP4 PUSH2 0xE44 JUMP JUMPDEST SWAP2 POP DUP3 PUSH1 0x2 MUL DUP3 OR SWAP1 POP SWAP3 SWAP2 POP POP JUMP JUMPDEST PUSH2 0xE84 DUP3 PUSH2 0x764 JUMP JUMPDEST PUSH8 0xFFFFFFFFFFFFFFFF DUP2 GT ISZERO PUSH2 0xE9D JUMPI PUSH2 0xE9C PUSH2 0x91B JUMP JUMPDEST JUMPDEST PUSH2 0xEA7 DUP3 SLOAD PUSH2 0xC19 JUMP JUMPDEST PUSH2 0xEB2 DUP3 DUP3 DUP6 PUSH2 0xDF2 JUMP JUMPDEST PUSH0 PUSH1 0x20 SWAP1 POP PUSH1 0x1F DUP4 GT PUSH1 0x1 DUP2 EQ PUSH2 0xEE3 JUMPI PUSH0 DUP5 ISZERO PUSH2 0xED1 JUMPI DUP3 DUP8 ADD MLOAD SWAP1 POP JUMPDEST PUSH2 0xEDB DUP6 DUP3 PUSH2 0xE60 JUMP JUMPDEST DUP7 SSTORE POP PUSH2 0xF42 JUMP JUMPDEST PUSH1 0x1F NOT DUP5 AND PUSH2 0xEF1 DUP7 PUSH2 0xCDE JUMP JUMPDEST PUSH0 JUMPDEST DUP3 DUP2 LT ISZERO PUSH2 0xF18 JUMPI DUP5 DUP10 ADD MLOAD DUP3 SSTORE PUSH1 0x1 DUP3 ADD SWAP2 POP PUSH1 0x20 DUP6 ADD SWAP5 POP PUSH1 0x20 DUP2 ADD SWAP1 POP PUSH2 0xEF3 JUMP JUMPDEST DUP7 DUP4 LT ISZERO PUSH2 0xF35 JUMPI DUP5 DUP10 ADD MLOAD PUSH2 0xF31 PUSH1 0x1F DUP10 AND DUP3 PUSH2 0xE44 JUMP JUMPDEST DUP4 SSTORE POP JUMPDEST PUSH1 0x1 PUSH1 0x2 DUP9 MUL ADD DUP9 SSTORE POP POP POP JUMPDEST POP POP POP POP POP POP JUMP INVALID LOG2 PUSH5 0x6970667358 0x22 SLT KECCAK256 PUSH9 0x14FEDEBEB10237726A TIMESTAMP DUP14 SWAP15 OR 0x4B SWAP10 KECCAK256 TIMESTAMP PUSH6 0x330053D7D76E PUSH25 0x12E82555EAFE64736F6C634300081A00330000000000000000 "
				},
				"gasEstimates": {
					"creation": {
						"codeDepositCost": "793600",
						"executionCost": "823",
						"totalCost": "794423"
					},
					"external": {
						"createTweet(string)": "infinite",
						"getTweets(address)": "infinite",
						"singleTweet(address,uint256)": "infinite",
						"tweets(address,uint256)": "infinite"
					}
				},
				"methodIdentifiers": {
					"createTweet(string)": "7c9cd2bc",
					"getTweets(address)": "9e92b093",
					"singleTweet(address,uint256)": "254e4019",
					"tweets(address,uint256)": "05a1b4a9"
				}
			},
			"storageLayout": {
				"storage": [
					{
						"astId": 19,
						"contract": "Solidity/Solidity/Contracts/Projects/twitter_structs.sol:twitterStructs",
						"label": "tweets",
						"offset": 0,
						"slot": "0",
						"type": "t_mapping(t_address,t_array(t_struct(Tweet)13_storage)dyn_storage)"
					}
				],
				"types": {
					"t_address": {
						"encoding": "inplace",
						"label": "address",
						"numberOfBytes": "20"
					},
					"t_array(t_struct(Tweet)13_storage)dyn_storage": {
						"base": "t_struct(Tweet)13_storage",
						"encoding": "dynamic_array",
						"label": "struct twitterStructs.Tweet[]",
						"numberOfBytes": "32"
					},
					"t_mapping(t_address,t_array(t_struct(Tweet)13_storage)dyn_storage)": {
						"encoding": "mapping",
						"key": "t_address",
						"label": "mapping(address => struct twitterStructs.Tweet[])",
						"numberOfBytes": "32",
						"value": "t_array(t_struct(Tweet)13_storage)dyn_storage"
					},
					"t_string_storage": {
						"encoding": "bytes",
						"label": "string",
						"numberOfBytes": "32"
					},
					"t_struct(Tweet)13_storage": {
						"encoding": "inplace",
						"label": "struct twitterStructs.Tweet",
						"members": [
							{
								"astId": 6,
								"contract": "Solidity/Solidity/Contracts/Projects/twitter_structs.sol:twitterStructs",
								"label": "owner",
								"offset": 0,
								"slot": "0",
								"type": "t_address"
							},
							{
								"astId": 8,
								"contract": "Solidity/Solidity/Contracts/Projects/twitter_structs.sol:twitterStructs",
								"label": "content",
								"offset": 0,
								"slot": "1",
								"type": "t_string_storage"
							},
							{
								"astId": 10,
								"contract": "Solidity/Solidity/Contracts/Projects/twitter_structs.sol:twitterStructs",
								"label": "timestamp",
								"offset": 0,
								"slot": "2",
								"type": "t_uint256"
							},
							{
								"astId": 12,
								"contract": "Solidity/Solidity/Contracts/Projects/twitter_structs.sol:twitterStructs",
								"label": "likes",
								"offset": 0,
								"slot": "3",
								"type": "t_uint256"
							}
						],
						"numberOfBytes": "128"
					},
					"t_uint256": {
						"encoding": "inplace",
						"label": "uint256",
						"numberOfBytes": "32"
					}
				}
			},
			"userdoc": {
				"kind": "user",
				"methods": {},
				"version": 1
			}
		}
	}
}